:020000040800F2
:1000000020AB0020050400080104000801040008DA
:1000100001040008010400080104000800000000B9
:1000200000000000000000000000000001040008C3
:10003000010400080000000001040008BD7F000862
:10004000010400080104000801040008010400087C
:10005000010400080104000801040008010400086C
:10006000010400080104000801040008010400085C
:10007000010400080104000801040008010400084C
:1000800001040008010400084D790008010400087B
:10009000010400080104000801040008010400082C
:1000A000010400080104000801040008010400081C
:1000B000010400080104000801040008010400080C
:1000C00001040008114F0008B54F000801040008A2
:1000D00001040008010400080104000801040008EC
:1000E00001040008010400080104000801040008DC
:1000F00001040008010400080104000801040008CC
:1001000001040008010400080104000801040008BB
:10011000010400080104000801040008A97F000888
:10012000010400080104000801040008010400089B
:10013000010400080104000801040008010400088B
:10014000010400080104000801040008010400087B
:10015000010400080104000801040008010400086B
:10016000010400080104000801040008010400085B
:10017000E98000080180000801040008010400086B
:0801800001040008010400085D
:10040000FEE700000D4A0E4B0E498B4210D30E48FA
:100410000E494FF000028842B8BF40F8042BFADBC7
:10042000DFF82C00016841F47001016006F0B0BFF4
:1004300052F8040F43F8040BE7E700BFE02001087F
:1004400000000020B4090020B80900201C2B002067
:1004500088ED00E00F4B1A6842F020421A609A685B
:1004600022F040529A609A6822F040429A609A685C
:1004700042F070429A605A6A42F04C425A6203F566
:1004800050531A6B42F000521A631A6D42F0005238
:100490001A65704700040240034B302283F84D2355
:1004A0004FF400529A60704700E100E0782358430F
:1004B0000723B0FBF3F0002301339842FCD27047CE
:1004C0004FF47A735843FFF7F1BF000012230B80FB
:1004D000004870470000002004230B80004870474C
:1004E0001C00002010B5044C04480A46214600F0C8
:1004F000C3FD204610BD00BFB02800201D07010825
:100500000A4608B5044920B9044800F0B5FD024880
:1005100008BD0348F9E700BFB028002030070108F4
:10052000510701080A4608B5044920B9044800F0FB
:10053000A3FD024808BD0348F9E700BFB02800202A
:1005400072070108800B002010B5044C04480A46CD
:10055000214600F091FD204610BD00BFB0280020CC
:100560000407010810B5044C04480A46214600F06F
:1005700083FD204610BD00BFB02800200F070108F2
:10058000704770477047704770477047704700006A
:1005900010B5074C2068FF2807D0064B064A9B6819
:1005A000126806499847FF232360002010BD00BF52
:1005B0008800002014010020CC0900202E2A0020F1
:1005C00043230B80004870478C00002043230B809E
:1005D00000487047CF00002038B54022044602236F
:1005E000812101F07BF9022340220121204601F004
:1005F00075F9822103230822204601F06FF9084B88
:10060000022200251A715D71064B1B689847402332
:10061000054A0121204601F09BF9284638BD00BF5C
:100620000000002014010020EE29002038B5282306
:1006300003FB0101074D084BB1F88C131B690446FD
:100640002846984740232A460121204601F080F998
:10065000002038BDEE2900201401002010B58121B2
:10066000044601F05EF90121204601F05AF9822189
:10067000204601F056F9024B5B689847002010BDF8
:1006800014010020F8B50A7812F0600406460D4601
:1006900024D0202C29D1CC884B78C4B112060DD59A
:1006A0001A4A1B49976818462246B847EA881849EB
:1006B000304600F08EFA00242046F8BD154A144951
:1006C0001360154B22461C6000F09BFAF3E70F4ABB
:1006D0002146956818462246A847EDE74B780A2B35
:1006E00007D00B2B0AD0062BE6D100F0B7FC022472
:1006F000E2E70122094900F06CFADDE78B7813B9D3
:10070000064A1360D7E700F0A9FCD5E714010020E2
:100710002E2A002088000020CC090020D0090020CB
:1007200070B51F4B1A68032A02F1010102D019604B
:10073000002070BD1B4C00221A602378002BF7D1DB
:10074000194D2A68B2F5004F08BF2B60174B296876
:100750001B68994202D100232370E9E7144E8CBF35
:10076000C1F500435B1A33603368402B8AB20CD961
:10077000403B4031336001232370296040230D4901
:100780000A44812101F00AF9D2E7194429604FF0A7
:10079000000131600EBF022101219BB22170EEE702
:1007A000C4090020C8090020C0090020BC0900209D
:1007B000B80900200000001070B5174D2B78012BF0
:1007C0002C4603D1154E33685BB92B702378022B6E
:1007D00016D100231A46812101F0E0F8002323708E
:1007E0000EE00F490C68402BA2B20BD9403B4034BD
:1007F00033600C6040230B490A44812101F0CEF89C
:10080000002070BD1C440C604FF0000131600ABF35
:1008100002219BB22970EEE7C8090020B809002028
:10082000C00900200000001000207047F0B50B4BFD
:100830000B4A1C680B4D01440026884201D1002060
:10084000F0BD136810F8017BEF540133802B08BF13
:100850003346A3421360F0D10220F0BDB82A002035
:10086000BC2A0020382A00202DE9F041134D144FF6
:1008700004464618A6421DD10020BDE8F0810A209A
:1008800003F0A0FE4AF6AA233B602B68D8F80020AC
:100890009A1AC2F30E0247F6FF718A42EFD0094A54
:1008A00014F8011BD1540133B3F5004F08BF0023E6
:1008B0002B60DFE7DFF81080E7E700BFBC0900200E
:1008C0000030004000000010C009002021280FD196
:1008D000084B1A680A701A68120A4A705A888A7095
:1008E000DA78CA701A790A715A794A719B798B71D0
:1008F00000207047280100200020704707B502AB98
:10090000012103F8010D1846FFF7AEFF03B05DF8B3
:1009100004FB0000094B0A491A68096891420AD091
:1009200008498A5C02701A680132802A08BF0022D6
:100930001A60012070470020704700BFB82A0020CD
:10094000BC2A0020382A0020034B1868034B1B6880
:10095000C01A18BF01207047BC2A0020B82A002006
:1009600010B5D0F8E83504461B699847032384F88E
:100970001231002010BD08B590F8123180F8133103
:10098000042380F81231D0F8E835DB68984700205E
:1009900008BD08B5D0F8E435DB6903B198470020FD
:1009A00008BD08B5D0F8E4351B6A9847002008BD9B
:1009B00008B5D0F8E4355B6A9847002008BD0023ED
:1009C00010B519460446402200F088FF40228021DD
:1009D0000023204600F082FF012384F81231D4F86E
:1009E000E835A0785B689847002010BD13B56946CC
:1009F000044600F011FB9DF8001001F01F03012BCD
:100A00000FD007D3022B11D001F08001204600F057
:100A1000E5FF03E06946204600F038F9002002B007
:100A200010BD6946204600F075FAF7E76946204692
:100A300000F088FAF2E7000038B5044600294FD1EB
:100A400090F81131022B1DD1D0F83821D0F8243183
:100A50009A4224D9C178012908BFD0F82811A2EB05
:100A6000030204BF5B18C0F82831C0F83821D0F861
:100A7000281192B200F0BDF800231A46194620460C
:100A800000F066FF94F81631012B06D11A4A23694B
:100A900012685A60002384F81631002038BDD0F85F
:100AA0003C21B2FBF3F503FB15255DB9934209D850
:100AB000D0F840319A4205D22A4600F09AF8C4F89C
:100AC0004051D9E7D4F8E435DB682BB194F8122112
:100AD000032A01D120469847204600F0B9F8D1E713
:100AE000D0F8E4355B69002BD7D090F81221032AA7
:100AF000D3D19847D1E700BFC02A002010B50446E3
:100B000069BB90F81131032B1AD1D0F89033D0F88B
:100B10007C23934216D9C178012908BFD0F88013ED
:100B2000A3EB020304BF8918C0F880139A4228BFC0
:100B30001A46C0F8903392B2D0F8801300F071F8E2
:100B4000002010BDD0F8E4351B6923B190F81221C4
:100B5000032A00D19847204600F06BF8F0E7D0F860
:100B6000E4359B69002BEBD090F81221032AE7D1E2
:100B70009847E5E72DE9F0410446164698460D46AC
:100B8000069FFFF767FC20462946C4F8E485C4F8B1
:100B9000E875C4F8EC6500F053FED4F8E8351B683E
:100BA00098472046BDE8F041FFF776BC10B5D0F875
:100BB000E43504461B689847D4F8E8359B689847A5
:100BC000002010BD08B5D0F8E4355B6898470020D8
:100BD00008BD10B504461346C4F83C21C4F83821BA
:100BE000022280F811210A46002100F0D7FE0020E1
:100BF00010BD08B513460A46002100F0CFFE0020C4
:100C000008BD10B504461346C4F89423C4F89023D5
:100C1000032280F811210A46002100F099FE0020ED
:100C200010BD08B513460A46002100F091FE0020D1
:100C300008BD10B5042380F81131002304461A467C
:100C4000194600F0ABFE204600F0E4FD002010BD88
:100C500010B5052380F81131002304461A461946C1
:100C600000F076FE204600F0D5FD002010BD10B546
:100C70008021044600F0B2FE2046002100F0AEFEC6
:100C80002046BDE8104000F0C5BD000037B54B78E8
:100C900004460D46092B00F29680DFE813F0E400CD
:100CA00024019400F400940089000A009400D60006
:100CB000A900CB88ADF806304B881A0A013A062AFB
:100CC00000F28180DFE802F0040C357F7F55690077
:100CD000D0F8EC351B68A0780DF10601984717E0B5
:100CE000D0F8E43580789B6A0DF106019847A37827
:100CF000012B09D1237A012B06D1D4F8E4250DF17B
:100D00000601D26A1846904702234370C4F8F005E2
:100D1000BDF80620002A66D0EB88002B63D09A42EB
:100D200028BF1A46ADF8062001462046FFF751FFBE
:100D300059E0DBB2052B46D8DFE803F003070B0FC1
:100D40001317D0F8EC355B68C5E7D0F8EC359B6835
:100D5000C1E7D0F8EC35DB68BDE7D0F8EC351B69AE
:100D6000B9E7D0F8EC355B69B5E7D0F8EC359B69AD
:100D7000B1E7807838BBD4F8E4350DF106019B6A01
:100D800098475F49837B0B71C37B4B71037C8B71ED
:100D90000A23ADF806300846BAE7807898B9D4F847
:100DA000E4350DF10601DB6A984707234370AFE78E
:100DB0008B8843B9CB8833B990F812318D78032BE7
:100DC00005F07F0503D12046FFF751FF0BE080F8C7
:100DD0001451294600F034FE2046FFF72AFF2DB1BA
:100DE000022384F81231002003B030BD0123F8E75C
:100DF0008978444D01292970E5D890F81231022BE9
:100E00000DD0032BDFD1B1B9022380F8123180F865
:100E10001011FFF7D7FE2046FFF70BFFE3E700298D
:100E2000F9D00121032380F8101180F812312046F7
:100E3000FFF7BCFEEFE790F810110129EBD0FFF7A8
:100E4000C1FE297884F81011F1E7CA88012ABAD1C5
:100E500090F81231022B04D0032BB4D100F5887125
:100E600063E7294961E790F81231023B012BAAD8C8
:100E7000264B00221A60D0F818210AB102221A600B
:100E80000222224951E74B88012B08D1C4F81831BE
:100E9000D4F8E43529469B6820469847BBE7022BE7
:100EA000A1D18A8812F0FF0F9DD10369120A013A7D
:100EB0005B680121042A13D8DFE802F012030C0E4C
:100EC0001000022262F30613114A1360012384F812
:100ED0001631A0E70322F5E70422F3E70522F1E744
:100EE00061F30613F0E790F81231023B012B3FF655
:100EF0006AAF4B88012B7FF476AF0023C6E700BFB3
:100F000012000020E0090020D8090020D4090020A8
:100F1000C02A002038B590F81231032B04460D4644
:100F20000DD10B79012B0AD8D0F8E4359B6898478E
:100F3000EB8813B92046FFF77CFE002038BDFFF791
:100F400096FEFAE770B50A788E8802F06002202AD1
:100F500004460D46F3B205D1D0F8E4359B689847B6
:100F6000002070BD4A78012A1CD02AD3032AF7D169
:100F700090F81221022A3FD0032A02D0FFF777FE11
:100F8000EEE74A8822B95E0602D0194600F026FD37
:100F9000D4F8E43529469B68204698472046FFF759
:100FA00048FEDDE790F81221022A25D0032AE5D178
:100FB0004A88002AD4D15906F0D0194600F027FDFE
:100FC000E6E790F81221022A16D0032AD6D116F0AD
:100FD000800F4FF028010F4A16D003F07F0301FB6A
:100FE000030393F81E316BB10123136009490222F8
:100FF0002046FFF7EEFDB3E75A06B1D0194600F0E0
:10100000EDFCADE70023F0E701FB030393F8763333
:10101000E9E700BFDC09002090F8CC350B7090F8B0
:10102000CD354B7090F8CF2590F8CE3503EB0223E9
:101030004B8090F8D12590F8D03503EB02238B80BC
:1010400090F8D32590F8D23503EB02239BB2CB80E6
:10105000C0F84031012380F81131704710B580216C
:10106000044600F0BBFC2046002100F0B7FC2046FF
:10107000BDE8104000F0CEBB30B588B105462B1A54
:1010800015F8014BDBB2002CF9D15B000233138061
:101090000B7003234B700138022310F8015F05B970
:1010A00030BD5A1CD2B2CD540233DBB28C54F4E7BB
:1010B00037B50023114C019305460320FFF7F6F9DD
:1010C0002A68013C1369019314D0019B002BF4DAC8
:1010D000019B43F001030193019B13612968074BB6
:1010E0000A690192013B02D0019AD207F8D4032089
:1010F000FFF7DCF9002003B030BD00BF410D030055
:1011000010B5C47844B900EB82000333D0F8D000A6
:101110009B102246934201D1002010BD51F822407D
:1011200004600132F6E710B50332D0F8D0309210E7
:101130000020904202D101EB800010BD1C6841F8F4
:1011400020400130F5E70000012230B50023827015
:1011500001294FF04002C37082803CD10823037004
:10116000042343704FF4A073C38002230372C1723F
:101170004FF0A04303F5006202614278C36003EBC5
:10118000421203F5106100F1180402F51062914259
:101190002FD103F580624261044603F58862C0F8EE
:1011A000CC2014F8902B03EB421503F5A06105F554
:1011B000A065A94224D103EB023203F5805100F16E
:1011C000D00402F5805291421ED103F56063C0F84D
:1011D0000C31002030BD0029CCD10C230370062334
:1011E00043704FF4A063C38002230372C172094BA2
:1011F000C0E744F8041B01F50075A5632031C6E77C
:1012000044F8041B2031D4E744F8041B01F5805155
:10121000D9E700BF0000044038B5037A012B05462A
:101220004FF0000450F80C2F2BD1936B697A64F3C4
:10123000104309B143F480139363EA68D3686FF3F2
:1012400086136FF396536FF351436FF3D343D36019
:10125000FFF72EFFEB78012B06D1052363F344043F
:10126000EB6844F020049C60EB78012B07D1EB681D
:101270009C68052262F3440444F020049C60002032
:1012800038BDD36843F04003D360FFF711FF6B7A9A
:10129000EA68002B0CBF4FF434134FF474139363BC
:1012A0001420FFF70DF9DFE7C268936843F00103EC
:1012B000936000207047C268936823F00103936035
:1012C0000020704707B500230193019B43F02003E2
:1012D0000193019B61F38A130193C368019A1A6118
:1012E000C168074B0A690192013B02D0019A92063C
:1012F000F8D40320FFF7DAF8002003B05DF804FB10
:10130000410D030007B500230193019B43F0100337
:101310000193C368019A1A61C168074B0A69019277
:10132000013B02D0019AD206F8D40320FFF7BEF8A1
:10133000002003B05DF804FB410D030008B5C2684E
:10134000D36801296FF35D736FF39E7307D143F088
:101350000053D3603220FFF7B3F8002008BD002906
:10136000F7D143F08043F4E7C3685869C04300F005
:1013700001007047C36858699B691840704702694B
:10138000136861F3010313607047000010B5C26871
:1013900000239361C1686FF080424A61C1684FF0D9
:1013A000FF344C60C1684A61C26809499161C278E2
:1013B0009A4208BF1023C26843F47013916943F442
:1013C000605343F008030B439361002010BD00BF3E
:1013D0000008008070B5D0F80C3100261E6002694C
:1013E000136866F3CC231360C37A044635465BBBAF
:1013F000037A012B0CBF31460121FFF7C0FFC26801
:101400004FF480735362C0F2400663F30F06C36863
:101410009E624FF4A07363F30F05C368C0F28005AA
:10142000C3F804514FF4E07363F30F05C3686FF31F
:101430001F45C3F80851C368C3F80C51C368C3F80B
:101440001051C368C3F8145110212046FFF73AFF2A
:101450002046FFF757FF2269002313612269536179
:1014600022694FF0FF31916122691D46D361FF2649
:1014700004F1180261788B421AD3002304F154025C
:101480001D46FF2661788B4222D32269136943F4FB
:1014900080731361E378012B05D1154B402262F371
:1014A0005943226913632046FFF770FF002070BD87
:1014B000106801680029ACBF00214FF09041016025
:1014C00052F8041B0D6152F8041C01338E60D1E701
:1014D000106801680029ACBF00214FF09041016005
:1014E00052F8041B0D6152F8041C01338E60C9E7E9
:1014F000030101000369034A9B68C3F34103D05C05
:10150000704700BF7F07010800B5036981699A68C9
:101510000B68C2F34102032A0FD8DFE802F00E0E77
:10152000020E032262F30A030B600269536843F45C
:101530008073536000205DF804FB6FF30A03F3E748
:1015400030B54C780B78012C4FF000021DD100EB28
:10155000830504FA03F3AD6963F30F022B681C04DF
:101560000DD48C6864F30A03CC78C98864F3934380
:1015700061F3995343F0805343F400432B600369B4
:10158000D9690A43DA61002030BD00EB8304656D40
:10159000012404FA03F363F31F42DFE730B54A780E
:1015A0000B780025012A2C4610D100EB830102FAAA
:1015B00003F3896963F30F046FF3CF350D6002699C
:1015C000D36923EA0403D361002030BD00EB83021A
:1015D000516D012202FA03F363F31F44ECE770B587
:1015E0004E780D784B69012E49D100EB8505AD6928
:1015F0002A682C6963F312043BBB66F3DC442C615C
:10160000C3780C78012B2DD100EB84030C699B6906
:101610005C61CB78012B07D103699B68DB0554BF64
:1016200042F0005242F080520B7800EB830342F00C
:1016300004429B691A60CB78012B04D18B8A0A780B
:10164000C968FFF75DFD002070BD8E683344013B23
:10165000B3FBF6F363F3DC44CB78012B08BF63F3F1
:101660005E74CCE7CB78012BD3D04B69002BD0D064
:10167000056901236E6BA34033436B63C9E71435DF
:1016800000EB85028E6854682268246903BB66F308
:101690001204012363F3DC4400EB85056B681C61D5
:1016A000C378012B05D10B780C6900EB83035B6DCC
:1016B0005C61CB78012B03D14B79C3B142F000526E
:1016C0000B7800EB830042F00442436D1A60BAE7E6
:1016D0003344013BB3FBF6F363F3DC44C3F3090388
:1016E000734363F31204C3F312034B61D4E742F074
:1016F0008052E5E770B54B784D69012B28D184699C
:101700002268236915B965F3060305E08E68B542C2
:10171000F9D94E6166F3060343F400232361C378CD
:10172000012B05D10B780D6900EB83039B695D618B
:1017300042F004422260C37843B94B6933B1026975
:101740000978506B01238B4003435363002070BD25
:101750000C788E68143400EB84035B681A681B698C
:10176000C5B900EB840466F30603646843F4002300
:101770002361C378012B05D10B780C6900EB83033F
:101780005B6D5C610B7800EB830042F00442436DBB
:101790001A60DBE74E61E4E74B78012B0B7800EB36
:1017A00083000AD182691368002B01DA43F0804379
:1017B00043F40013136000207047426D1368F7E78D
:1017C0004B78012B0B78C97800EB8300A1F1020163
:1017D0000CBF8269426D136801296FF3555398BF9E
:1017E00043F0805313600020704703699869DB69F8
:1017F0001840000C704700EB81014B6D9A6803693B
:1018000058691040704703699869DB69184080B2D5
:1018100070470000094B182262F30603426D136102
:10182000C378012B08D1436D00F2CC525A61436D4D
:101830001A684FF080221A60704700BF00000860ED
:1018400070B50446FFF780FC00230121657884F819
:10185000121184F8143104F58E7218464026AB42FA
:1018600002F128021AD3002204F55D7311464020CC
:10187000AA4203F1280321D32046FFF71CFD20468E
:10188000FFF7CAFC00212046FFF758FD2046FFF76E
:10189000A1FD2046BDE87040FFF706BD02F8283CD8
:1018A00022F8223C02F8271C02F8250C42F8206C92
:1018B00042F81C0C42F8140C0133D0E703F8282C32
:1018C00023F8222C03F8271C03F8251C43F8200CCE
:1018D00043F81C1C43F8141C0132C9E770B54EB222
:1018E00001F07F04002E4FF02805B5BF05FB040171
:1018F00005FB010101F58E7101F55D71E4B2002E69
:10190000B8BFCC80022BCB704FEAD67508BF00233E
:101910000C704D708A6008BF0B71FFF711FE00203C
:1019200070BD4BB2002B10B54FF0280201F07F04C0
:10193000B5BF02FB040102FB010101F58E7101F547
:101940005D71DB0F0C704B70FFF728FE002010BD9F
:1019500070B501F07F04282606FB040506FB040190
:10196000C5F88833002385F87443C5F88023C5F88B
:101970008C3385F87533C37806FB0404012B08BF4C
:10198000C5F8842394F8743301F55D711BB9FFF732
:10199000B1FE002070BDFFF722FEFAE770B501F03E
:1019A0007F05282404FB050104FB05040126C4F877
:1019B0002821C4F82C21002201F58E7184F81D61C4
:1019C00084F81C51C4F83421C4F830311DB9FFF734
:1019D00091FE002070BDFFF702FEFAE74BB2002B2C
:1019E00010B54FF0280201F07F04B5BF02FB0401DF
:1019F00002FB010101F58E7101F55D710122DB0F22
:101A00008A700C704B70FFF7C7FE002010BD38B510
:101A10004BB2002B01F07F054FF02802B5BF02FB4F
:101A2000050102FB010101F58E7101F55D710024D4
:101A3000DB0F8C700D704B70FFF7C2FE204638BD77
:101A40000269002361F30A1311680B4313607047A6
:101A50002DE9F04F85B00446FFF786FC18B9002049
:101A600005B0BDE8F08F2046FFF784FC83460028D0
:101A7000F5D0C0F3074919F008000DD02046FFF754
:101A8000B4FEDFF894A2804604F154050027B8F1B3
:101A9000000F40F0FB80012019F0040F0DD020460C
:101AA000FFF7B1FE2546814604F118074FF0000804
:101AB000B9F1000F40F0348101205FFA8BF5AE07D9
:101AC00042BFE36802225A61BBF1000F18DAA37A21
:101AD0003BB1D4F80C2113686FF341036FF300039B
:101AE00013602269536823F0010353608A4B1B681B
:101AF00020469B699847E3684FF000425A610120F5
:101B0000CBF3072631072FD500238DF80F3094F83B
:101B100012318DF80F30804B1B6820465B69984767
:101B20002369E2689B684FF400615161A27AD2B1E7
:101B3000DA0718D594F81531012B14D19DF80F3020
:101B4000032B10D1D4F80C21136843F00103136068
:101B5000D4F80C21136843F0030313606F4A136930
:101B600043F00603136101202B0708D56A4B1B685D
:101B70002046DB689847E36808225A610120EF0697
:101B800016D5E268936923F010039361E3681D6A38
:101B9000C5F34343022B05F00F0800F05481062BD8
:101BA00000F06C81E268936943F0100393610120B7
:101BB000F50633D522695368002723F001035360EB
:101BC00039462046FFF77EFB04F118023B46FF2111
:101BD00060788342C0F05E8123694FF0FF329A61E2
:101BE0000125236965F30F0765F31F47DF6122694C
:101BF0000B23536122691361226913686FF30A137F
:101C000013602046FFF706FEE3684FF480525A61E6
:101C1000414B1B6820461B6998472846B10619D5D9
:101C20002046FFF771FCE3682046DD68FFF762FCA1
:101C3000032840F036810023A3704FF40073A38083
:101C4000092363F38D25E368DD60E3684FF40052F8
:101C50005A610120CBF30745EA0609D52E4B1B68D4
:101C60002046DB699847E3684FF480125A610120EF
:101C7000AB067FF5F5AE284B1B6820461B6A9847DC
:101C8000E3684FF400125A610120E9E618F0010FF1
:101C90003CD0FBB2194620460193FFF7ACFDC307C9
:101CA000064623D52A68019B01269660E278B24257
:101CB0000BD12A681069282202FB0742C0F31200E8
:101CC000D2F87C13091AC2F88C13DAF800201946EE
:101CD000126820469047E378012B07D137B994F872
:101CE0001131052B02D12046FFF794FDB00741BF0B
:101CF00002262B6832469A60310707D5DAF80030A1
:101D000020469B6898472B6808229A6001374FEA63
:101D100058080435BBE600BF5C01002000ED00E080
:101D200019F0010F5DD023695FFA88FA19695E6BBB
:101D300004EB8A0226FA0AF69269F6019268F6B274
:101D40000E431640F2071CD55A6B012101FA08F127
:101D500022EA01025A633B6801269E60544B1B68CD
:101D600051465B6820469847E378B34209D1B8F101
:101D7000000F06D194F81131042B02D12046FFF751
:101D800049FD330742BF3B6808269E60F00642BF0C
:101D90003B6810269E60710642BF3B6840269E60ED
:101DA000B20742BF3B6802269E60330619D5D5F8BC
:101DB0003421D5F830319B1AD5F82421934228BF1D
:101DC000134603339B0801933B689B69019A9BB2BE
:101DD000934206D9D5F83431D5F830619E4200D906
:101DE00036B908F101084FEA5909283504375FE68A
:101DF000F61AD5F82431D5F828119E4228BF1E4680
:101E0000F31C9B0801935246B3B22046FFF778F9C2
:101E1000D5F82831D5F830213344C5F82831D5F824
:101E200034311E44C5F834613B6896429B69CDD17C
:101E3000206995F81C11426B012606FA01F122EA8D
:101E400001024263C2E747F6F0732B423FF4AAAEA9
:101E5000282707FB0847C5F30A152A46D7F8801339
:101E60002046FFF760F9D7F880332B44C7F880335A
:101E7000D7F88C331D44C7F88C5393E6082204F23C
:101E8000CC5120462827FFF74EF907FB0847C5F33A
:101E90000A15EDE752F8040B8160906B0133816005
:101EA00096E60123A3704023A3800523C9E600BF63
:101EB0005C01002038B5274B0224C3F88440042479
:101EC000C3F88440244B00251D809C8824F4E064E2
:101ED0002404240C9C809D821C88A4B244F001043C
:101EE0001C801C88A4B244F480641C801C88A4B2AA
:101EF00044F480741C809C8AE507FCD5174C94F848
:101F00004440640004F0FE041C82134B9C8AA40726
:101F1000FCD580B21C8B18820F4B0A44914212D11F
:101F20009A8A1106FCD59A8A5207FCD51A8892B271
:101F300042F400721A80322002F018FB0120BDE842
:101F4000384003F03FB8988A0006FCD511F8010B21
:101F50001882E3E700E100E000580040C42A0020B6
:101F6000F8B5434B14460222C3F884200422C3F878
:101F70008420404B0D46002119809A8822F4E062AB
:101F80001204120C9A8099821A8892B242F00102CD
:101F90001A801A8892B242F480621A801A8892B229
:101FA00042F480721A809A8AD707FCD5324F97F88C
:101FB0004420520002F0FE021A822E4B1A46998AE1
:101FC0008E07FCD580B2198B1882938A1906FCD52E
:101FD000284EB38A5B07FCD533889BB243F4007369
:101FE000338022460021284606F09CF83388214A97
:101FF0009BB243F4807333801146938ADE07FCD58D
:1020000097F844305B0043F0010313828B8A9807F2
:10201000FCD50B8B174B2A46013C511B8C4220D818
:10202000198821F480610904090C19809A8A5206E2
:10203000FCD51A8A2A551A8892B242F400721A8084
:102040000C4A13889B05FCD413889BB243F480632D
:102050001380322002F08AFA0120BDE8F84002F035
:10206000B1BF998A4906FCD5198A02F8011BD4E749
:1020700000E100E000580040C42A0020F0B506222C
:10208000ADF21C4D9B499C4806F0ACF90446D8B90A
:102090009A4D9B4F2A8A04AE083231460720FFF73B
:1020A0005FFF2B8A9C4209DB05AAF158D25895485C
:1020B00006F040F801200DF21C4DF0BD315D3846B0
:1020C00006F038F80134ECE709228F498A4806F017
:1020D00089F9082230B904A90420FFF741FF059AC5
:1020E0000499E4E78949844806F07CF918B9082284
:1020F00004A90520F1E7062285497F4806F072F918
:1021000038B9042204A90620FFF72AFF04997C4865
:102110007CE009227F49784806F064F918B9042266
:1021200004A90820F0E70A227B49734806F05AF90F
:1021300000BB0DF10E0279496F4806F0B3F8002894
:1021400010DDBDF80E301BB94FF6FF73ADF80E3041
:10215000BDF80E30ADF81030022204A91220FFF7AE
:10216000A9FEA7E7022204A91220FFF7F9FEBDF895
:102170001010CCE707226A495F4806F033F9D0B95E
:102180000DF10E0265495C4806F08CF800280EDD62
:10219000BDF80E301BB94FF6FF73ADF80E30BDF829
:1021A0000E30ADF81030022204A90E20D7E702222B
:1021B00004A90E20D9E70A225A494F4806F012F91D
:1021C000024610B904A90320C9E70D2256494A481E
:1021D00006F008F9024610B904A90220BFE7092257
:1021E0005249454806F0FEF818B9002204A901201A
:1021F000B5E705224E49404806F0F4F848B904A96D
:102200000B208022FFF7ACFE4A4804A905F092FF9C
:1022100050E70A224849384806F0E4F838BB0DF187
:102220000E023E49344806F03DF800280EDDBDF8A8
:102230000E301BB94FF6FF73ADF80E30BDF80E30FF
:10224000ADF81030022204A90D2088E7062204A967
:102250000D20FFF785FE04980DF030FDBDF8143019
:10226000009302460B46354805F064FF22E70A2238
:102270003349214806F0B6F8D0B90DF10E022749CE
:102280001D4806F00FF800280EDDBDF80E301BB912
:102290004FF6FF73ADF80E30BDF80E30ADF81030CC
:1022A000022204A90F205AE7022204A90F205CE7AA
:1022B0000B222449104806F095F8002844D10DF16E
:1022C0000E0216490C4805F0EDFF00280EDDBDF8A2
:1022D0000E301BB94FF6FF73ADF80E30BDF80E305F
:1022E000ADF81030022204A9102038E7022204A918
:1022F00010203AE73B090108910B0020C42A002076
:10230000C5120108DA0D0108420901084C0901084B
:10231000550901085C0901086609010871090108ED
:10232000850901088D09010898090108A609010815
:10233000B009010802100108B60901084F0D010893
:10234000C1090108CC09010808225549554806F081
:1023500049F810BB0DF10E025349524805F0A2FF97
:10236000002816DD514BBDF80E1019824FF4C070D5
:1023700002F06EFABDF80E301BB94FF6FF73ADF8E0
:102380000E30BDF80E30ADF81030022204A90C203A
:10239000E5E6022204A90C20E7E60B224449414865
:1023A00006F020F8D0B90DF10E023F493D4805F086
:1023B00079FF00280EDDBDF80E301BB94FF6FF7314
:1023C000ADF80E30BDF80E30ADF81030022204A981
:1023D0001320C4E6022204A91320C6E60B223549C5
:1023E000304805F0FFFFD0B90DF10E022E492D48FF
:1023F00005F058FF00280EDDBDF80E301BB94FF672
:10240000FF73ADF80E30BDF80E30ADF8103002227B
:1024100004A91120A3E6022204A91120A5E607229F
:102420002549204805F0DEFF68B9042204A90920E7
:10243000FFF796FD04980DF041FC02460B461F483D
:1024400005F078FE36E606221D49164805F0CAFF5B
:1024500018B9042204A90A20EAE70B2219491148F5
:1024600005F0C0FFD0B90DF10E020F490D4805F07F
:1024700019FF00280EDDBDF80E301BB94FF6FF73B3
:10248000ADF80E30BDF80E30ADF81030022204A9C0
:10249000142064E6022204A9142066E600200AE65D
:1024A000D8090108910B002071090108C42A0020F5
:1024B000E1090108ED090108F9090108010A01080B
:1024C000090A0108100A0108F0B50B2289B09D49DC
:1024D0009D4805F087FFB8B9FF230DF800300130A3
:1024E0002028FAD100242146203420226846A4B2B4
:1024F00002F050FAB4F5005FF5D19449944805F024
:102500004FFF012009B0F0BD102292498E4805F01E
:1025100069FF90B9FF230DF8003001302028FAD16F
:102520004FF494642146203420226846A4B202F07D
:1025300031FAB4F5DC6FF5D1DFE705228649824830
:1025400005F050FF044688B9844A85497E4805F065
:10255000A9FE002804DD10222146804802F01AFA64
:102560007E4A80497A4805F079FECAE707227E490B
:10257000754805F037FF68B97C4A7D49724805F017
:1025800091FE002804DD20221146784802F002FA6C
:10259000764AE6E7062277496B4805F023FF68B9DB
:1025A000754A6F49684805F07DFE002804DD102259
:1025B0004021714802F0EEF96F4AD2E704226F49D8
:1025C000614805F00FFFF8B96A466D495E486D4CE9
:1025D00005F068FE002812DDBDF80020E16840F635
:1025E000C4139A4288BFADF80030090CBDF8003022
:1025F000090419434FF49070E16002F059F9E26860
:102600006149C2F30B02ADE7092260494E4805F06B
:10261000E9FEE0B96A465E494B485A4C05F042FE75
:1026200000280BDD9DF800306BB1E36843F4003304
:10263000E360E1684FF4907002F03AF9E2685549BE
:10264000C2F340428EE7E36823F40033F0E70C2244
:1026500051493D4805F0C6FE002834D16A464C4930
:102660003948484C05F01EFE00281DDD9DF800305D
:1026700003F0FD02012A01D00A2B00D1A382A18A16
:102680004FF4906002F0E4F8444B1A78A38A72B1D8
:10269000032B12D00A2B05D0012B05D10222404B6F
:1026A0001A7001E03E4A1370A28A3E495AE7032B92
:1026B00005D00A2B05D0012BF6D10422EFE7062224
:1026C000EDE70F22EBE70B2237491F4805F08AFEA2
:1026D000B0B9364C364BA36003F14433A3604FF4DA
:1026E000FA6001F06FFF334B63614FF47A6001F0E1
:1026F00069FF6369304943F001036361626931E74F
:1027000005222E49104805F06DFE002840F0B080EB
:102710006A461F490C481B4C05F0C4FD00280CDD1F
:102720009DF80000002851D0E36843F48023E36063
:10273000E1684FF4907002F0BBF8E2682049C2F300
:1027400080420FE7AD0E0108910B0020B90E010881
:10275000610C0020C00E0108D10E0108DE29002006
:10276000D70E010802100108C90C0108B829002081
:10277000ED0E0108030F0108800B00200A0F01086D
:102780000F0F0108C42A0020C5120108240F0108F8
:102790002E0F0108440F0108550F01084B1E0020A1
:1027A000480A0020620F0108760F0108003C024031
:1027B0003B2A1908E300FF0F820F0108960F01085A
:1027C0009C0F01080000804400C07F44E388228AF7
:1027D0001FED047A5FED046AA188264F01339B0246
:1027E000B3FBF2F3013BE3809BB207EE903AF8EEC5
:1027F000677A4FF4806567EE877A890287EEA67A5A
:10280000B1FBF2F11C4AA18089B24E191160052278
:1028100091FBF2F219492582C2EB4602184E7A6208
:10282000F7EE007A77EE677A72624A62386030605B
:10283000086017EE900A0DF041FA41EC100B0CF015
:1028400081FF51EC100B0DF065FD0E4B2946186011
:102850004FF4C07001F0FCFFA188A02001F0F8FF48
:10286000E188C02001F0F4FFE36823F480235EE7F1
:10287000002047E600200140A80A00200022014075
:10288000002101406C280020F0B52DED028BAD49F0
:10289000AD48A5B0052205F0A5FD0146002839D1B7
:1028A000802204A805F03EFC04AAA849A648A84C2A
:1028B00005F0F8FC002820DD04A805F025FC51EC0B
:1028C000100B0DF047FDDFEDA37A00EE100AB4EE19
:1028D000E70AF1EE10FA1ADCDFED9F7AB4EE670A30
:1028E000DFED9E7AF1EE10FA48BFB0EE670A4FF4C2
:1028F000946084ED0A0A02F013F8A06A0DF0DEF984
:102900000B4697490246974805F0A8FCDDE09FED8D
:10291000930AECE794498C48052205F063FD0146D3
:10292000B0BB802204A805F0FDFB04AA87498648B5
:10293000874C05F0B7FC002820DD04A805F0E4FB77
:1029400051EC100B0DF006FDDFED827A00EE100A5F
:10295000B4EEE70AF1EE10FA17DCDFED7F7AB4EEA1
:10296000670ADFED7E7AF1EE10FA48BFB0EE670A33
:102970004FF4986084ED0B0A01F0D2FFE06A0DF08D
:102980009DF90B4602467949BDE79FED740AEFE7D2
:1029900077496D48052205F025FD0146B0BB802230
:1029A00004A805F0BFFB04AA68496748684C05F015
:1029B00079FC002820DD04A805F0A6FB51EC100BE3
:1029C0000DF0C8FCDFED637A00EE100AB4EEE70A02
:1029D000F1EE10FA17DCDFED607AB4EE670AF1EE83
:1029E00010FAF7EE007A48BFB0EE670A4FF49C6029
:1029F00084ED0C0A01F094FF206B0DF05FF90B469B
:102A000002465C497FE7B7EE000AEFE75A494E48B5
:102A1000052205F0E7FC0146A0BB802204A805F0D2
:102A200081FB04AA49494848494C05F03BFC002871
:102A30001EDD04A805F068FB51EC100B0DF08AFCBC
:102A4000DFED4E7A00EE100AB4EEE70AF1EE10FA6E
:102A500015DCB5EE400AF1EE10FAF7EE007A48BF49
:102A6000B0EE670A4FF4A06084ED0D0A01F058FF44
:102A7000606B0DF023F90B460246414943E7B7EE80
:102A8000000AEFE70E223F492F4805F0ABFC08BBD8
:102A90002F4C4FF4B86094ED0A0A01F041FF94ED19
:102AA0000B0A4FF4BC6001F03BFF94ED0C0A4FF4AD
:102AB000C06001F035FF94ED0D0A4FF4C46001F0E1
:102AC0002FFF3149274805F06BFC012025B0BDECF4
:102AD000028BF0BD0F222D491B4805F083FC002816
:102AE00056D14FF4B86002F03BF8194C4FF4BC607B
:102AF00084ED0A0A02F034F84FF4C06084ED0B0A4A
:102B000002F02EF84FF4C46084ED0C0A02F028F8AD
:102B10004FF4946084ED0D0A94ED0A0A01F000FF71
:102B200094ED0B0A4FF4986001F0FAFE94ED0C0A54
:102B30004FF49C6001F0F4FE94ED0D0A4FF4A06098
:102B4000BDE700BF83070108910B0020890701083A
:102B5000C42A002000007A4400007AC4000000006B
:102B60009D070108610C0020AA070108B0070108B1
:102B7000BD070108C3070108D00701080000CC41C8
:102B8000D6070108E3070108F2070108FE0701085C
:102B90000422A749A74805F025FC002853D124AA00
:102BA000032342F8803DA449A24805F07BFB00289E
:102BB00037DD049BA14C012BC4BF01230493049B6C
:102BC000A3B34FF4B86001F0CBFF4FF4BC6084EDC9
:102BD0000A0A01F0C5FF4FF4C06084ED0B0A01F052
:102BE000BFFF4FF4C46084ED0C0A01F0B9FF84ED1F
:102BF0000D0A94ED0A0A4FF4946001F091FE94EDF1
:102C00000B0A4FF4986001F08BFE94ED0C0A4FF420
:102C10009C6001F085FE94ED0D0A4FF4A06001F078
:102C20007FFE049A012A09DD85494BE70023A36250
:102C3000E3624FF07E5323636363DAE7814982489E
:102C400005F00CFB41E7082280497A4805F0CAFBF1
:102C50000446002840F09C800146802204A805F02C
:102C600061FA4FF480522146774805F05BFA4FF441
:102C7000946001F075FF4FF4B86010EE104A01F057
:102C80006FFF20468DED030A0DF018F89DED030A45
:102C9000044610EE100A0D460DF010F822462B46A1
:102CA000CDE900016A4904A805F0D8FA04A96648EC
:102CB00005F067FB4FF4986001F052FF4FF4BC60E1
:102CC00010EE104A01F04CFF20468DED030A0CF087
:102CD000F5FF9DED030A044610EE100A0D460CF0B8
:102CE000EDFF22462B46CDE900015A4904A805F024
:102CF000B5FA04A9544805F044FB4FF49C6001F078
:102D00002FFF4FF4C06010EE104A01F029FF20465B
:102D10008DED030A0CF0D2FF9DED030A044610EE80
:102D2000100A0D460CF0CAFF22462B46CDE90001E1
:102D3000494904A805F092FA04A9434805F021FB8B
:102D40004FF4A06001F00CFF4FF4C46010EE104A85
:102D500001F006FF20468DED030A0CF0AFFF9DED5C
:102D6000030A044610EE100A0D460CF0A7FF224697
:102D7000CDE900012B46394904A805F06FFA04A9F2
:102D8000314805F0FEFA36492F4805F0FAFA9CE67C
:102D900034492848052205F025FB0146002869D161
:102DA000802204A805F0BEF904AA2F492148234C2B
:102DB00005F078FA00282ADD04A805F0A5F951EC01
:102DC000100B0DF0C7FA08EE100A0CF077FF4FF069
:102DD0003332264B06460F460DF054FAF0B912A3D3
:102DE000D3E90023304639460DF02EFAF7EE007A8B
:102DF000002818BFB0EE678A4FF4DC60B0EE480AD6
:102E000084ED0E8A01F08CFD208903F061FFA06B38
:102E10000CF054FF0B460246154974E5B7EE008AE4
:102E2000EAE700BFAFF300809A9999999999E93F31
:102E300009080108910B002071090108C42A00202B
:102E40000E08010817110108610C00201408010880
:102E50001D0801083B080108590801087708010806
:102E6000FB07010895080108890701083333F33F80
:102E70009B08010807224C494C4805F0B3FA00288A
:102E800041D18022002104A805F04CF904AA484948
:102E90004648484C05F006FA00282ADD04A805F04B
:102EA00033F951EC100B0DF055FA08EE100A0CF046
:102EB00005FF4FF03332404B06460F460DF0E2F966
:102EC000F0B937A3D3E90023304639460DF0BCF9F9
:102ED000F7EE007A002818BFB0EE678A4FF4E06082
:102EE000B0EE480A84ED0F8A01F01AFD208903F044
:102EF000EFFEE06B0CF0E2FE0B4602462F4902E5C6
:102F0000B7EE008AEAE72E492848052205F06AFA5A
:102F10000146002840D1802204A805F003F904AA44
:102F200023492248234C05F0BDF900282ADD04A8D6
:102F300005F0EAF851EC100B0DF00CFA08EE100A4F
:102F40000CF0BCFE4FF033321B4B06460F460DF023
:102F500099F9F0B912A3D3E90023304639460DF0B0
:102F600073F9F7EE007A002818BFB0EE678A4FF4C5
:102F7000E460B0EE480A84ED108A01F0D1FC2089AB
:102F800003F0A6FE206C0CF099FE0B4602460D499C
:102F9000B9E4B7EE008AEAE7002097E5AFF30080D6
:102FA0009A9999999999E93FB2080108910B0020E3
:102FB00089070108C42A00203333F33FBA08010807
:102FC000D3080108D9080108F0B50E22A5B0A1491F
:102FD000A14805F007FA002850D1A04805F036F9BD
:102FE000642001F0EFFA02F00BFC431C012B0546B4
:102FF00004D89B499B4805F0D3F933E0831C01D1E9
:103000009949F7E7002803DD0146984805F092F852
:10301000642001F0D7FA964E964805F017F901247E
:103020004720347003F034FD0A2001F0CBFA04F09D
:103030007BF904F099F9592817D105F55E43A733B8
:103040004DF6A8618C4893FBF1F105F073F864200C
:1030500001F0B8FA2846894B98470023472033707F
:1030600003F008FD012025B0F0BD00234720337098
:1030700003F000FD824805F0E9F8F3E70C228149EE
:10308000754805F0AFF9F8B904AA7F4972487F4C3A
:1030900005F008F9002810DD9DF8101094F8443070
:1030A0008B4201D17A49A5E74FF4587084F820107B
:1030B00001F076FB012001F085FF94F8202075498E
:1030C000684805F0CBF8CDE70C227349624805F05B
:1030D00089F9C0B904AA6C495F486C4C05F0E2F864
:1030E00000280DDD9DF8101094F820308B4201D19E
:1030F0006A497FE74FF4E86084F8441001F050FB20
:1031000094F84420DBE704226549534805F06AF946
:1031100028B105226349504805F064F908B96249AD
:1031200068E7082261494C4805F05CF90446E8B9B3
:103130008022014604A804F0F5FF5D4904A805F0CB
:103140002FF903AA5B49444805F0ACF8002889DD53
:10315000594D5A4F4AF6AA26039B9C4282D22E60B2
:1031600004A9384604F0E6FF0134F5E70522544986
:10317000394805F037F9D8B903AA52493648434CC3
:1031800005F090F800280ADD039B6BB1E36843F477
:103190008003E360E1684FF4907001F089FBE2681E
:1031A0004949C2F380528BE7E36823F48003F0E7D8
:1031B00007224649284805F015F908BB24AA4149C9
:1031C00042F8840D2448314C05F06CF800280CDDE1
:1031D000039A3F4B72B1E16801221A7041F4000179
:1031E0004FF49070E16001F063FBE2683949C2F38B
:1031F000C05265E7E16800221A7021F40001EFE790
:1032000035491548042205F0EDF8014600286BD138
:10321000802204A804F086FF04AA30490E4805F075
:1032200041F8002812DD2E4A04AB08AD1C4603CC41
:10323000AC4210605160234602F10802F6D12388A7
:10324000138060211022264801F0A4FB244A25495E
:1032500036E700BF1C0A0108910B00202B0A010869
:103260004E0A0108610C0020610A0108770A010872
:1032700050280020980A01080A0B0108610100206B
:10328000770B0108880B0108950B0108C42A002060
:10329000A90B010847110108D90B0108E60B010829
:1032A000160C01081B0C0108210C0108300C010848
:1032B000390C01087A0C0108003000409A07010817
:1032C0008E0C010871090108940C0108A10C010879
:1032D000E00B0020A90C0108B70C010889070108C0
:1032E000680A0020021001080A226A496A4805F0AB
:1032F00079F8C0B903AA69496748694C04F0D2FF5C
:1033000000280CDD039BFF2B84BF002303939DF853
:103310000C1084F821104FF4707001F041FA94F809
:1033200021206049CCE609225F495B4805F05AF844
:1033300008B95E4A8BE704225D49574805F052F808
:1033400010B903F0CDF98DE604225A49524805F030
:1033500049F828B1042258494F4805F043F810B9FC
:1033600003F0D0F97EE6042254494B4805F03AF8C0
:1033700098B924AA642442F8844D4849464804F088
:1033800091FF002805DD039B4D4A643B934288BFB3
:103390000394039801F028F864E6092249493E485D
:1033A00005F020F898B9484B48495862A3F50063E6
:1033B000002258620023C1E900234549C1E90023E6
:1033C0004449C1E90023444B4449586212E60422AF
:1033D0004349314805F006F880B924AA414942F82A
:1033E000840D2D4804F05EFF00283F4B03DD039A57
:1033F00002B101221A701A783C4961E60B223C495D
:10340000254804F0EFFF60B93A4B3B493B48D3E90C
:103410000023CDE900233A4BD3E9002304F01EFF3B
:1034200020E6082237491C4804F0DCFF0028EBD0D6
:1034300007223549184804F0D5FF88B903AA17496F
:103440001548174C04F02EFF002807DD039901B141
:1034500001214FF41870E18301F0FAF9E28BCBE718
:1034600006222A490C4804F0BDFF88B9202004F048
:1034700079FE0A2001F0A6F8BFF34F8F2449254BAF
:10348000CA6802F4E0621343CB60BFF34F8FFEE7DC
:103490000020E8E5BC0C0108910B00207A0C010823
:1034A000C42A0020C5120108C70C0108D10C01086C
:1034B000DB0C0108E00C0108E50C0108EA0C01082E
:1034C000DC410F00EF0C0108000C004060280020D8
:1034D000400A0020800A002000200040F90C01086A
:1034E000060D010871090108DC29002017110108E7
:1034F0000B0D0108B0290020170D0108610C0020F8
:10350000580A0020250D01082E0D0108A9090108FF
:1035100000ED00E00400FA052DE9F04F2DED028BDF
:10352000A7B08022002106A804F0FCFD0A22A549CC
:10353000A54804F057FFD0B905AAA449A248A44C55
:1035400004F0B0FE00280FDD059B002B0CDBE268C9
:103550006381C2F30B029BB2934288BF628161898F
:103560004FF4807001F074F962899A4911E10722E1
:103570009949954804F036FF054658BB05AA93497A
:103580009148934C04F08EFE002811DD059B002B22
:10359000B8BF0595BDF81420638922819A4288BF7F
:1035A0002381E020218901F053F9208903F090FB69
:1035B0008A4B18680CF082FB2389009302460B4665
:1035C0008748884904F04AFE012027B0BDEC028BF1
:1035D000BDE8F08F84497C48042204F003FF0146D3
:1035E00000284ED1802206A804F09CFD06AA7F493F
:1035F0007548774C04F056FE002835DD06A804F027
:1036000083FD51EC100B0CF0A5FE9FED797A07EECF
:10361000900AF4EEC77AF1EE10FA2FDCB7EE007ADA
:10362000F4EE477AF1EE10FA48BFF0EE477AC4EDB7
:10363000007A17EE900A0CF041FB00226D4B0CF063
:1036400091FB41EC100B0CF07DF851EC100B0CF0E1
:1036500061FEC0B201F032FC052000F0B3FF94ED32
:10366000000A802001F05CF920680CF027FB02467C
:103670000B465B48604904F0F1FDA5E7F0EE477AA0
:10368000D5E709225D49504804F0ACFE60B107223D
:103690005B494D4804F0A6FE30B1062259494A481C
:1036A00004F0A0FE00283ED105AA48494648484CEF
:1036B00004F0F8FD002834DD059A002A31DD238A64
:1036C000A28092B29342DCBF03F1FF32A280A288B3
:1036D000DB099A4238BFA380A3880BB90123A380DA
:1036E000A188A02001F0B4F8A288474B208A4FF4AB
:1036F000806191FBF0F15143196001F58061930203
:10370000052293FBF0F3414893FBF2F3404AC3EBED
:103710004103404943624B625362002303600B60E4
:103720001360A28821E708223B49274804F05AFE8B
:1037300000287BD105AA25492348254C04F0B2FD79
:10374000002824DDA28A059B012A26D1092B01DC51
:103750000A230593059A41F270739A42C8BF0593F4
:10376000BDF8141061824FF4D07001F071F82B4B4A
:103770001A782B4BEAB11A78638A03EB83035B0058
:10378000193BC2EB02129B1A264A9BB2D362628A91
:103790002549134804F062FD16E7032A03D11D2BC7
:1037A000D8DC1E23D5E70A2AD4D1632BD2DC6423CC
:1037B000CFE71A78638A9B1A03EB83035B00193BFC
:1037C000E2E700BF360D0108910B00207A0C0108DA
:1037D000C42A0020C5120108B90901087C0B002089
:1037E000610C0020410D01088809010889070108C2
:1037F0000000CC410000244001120108590D0108CD
:10380000C4090108630D0108A80A00200020014036
:103810000022014000210140F00901084B1E002058
:10382000480A002000140040171101080822A4498A
:10383000A44804F0D7FD80B905AAA349A14804F023
:1038400031FD0028A14B06DD059A002ABCBF0022ED
:103850000592059A1A831A8B9AE70A229C4999487D
:1038600004F0C0FD88B99B4A9B49964804F01AFDB4
:103870000028984B07DD1A782AB1984AD2E900014E
:10388000974AC2E900011A786FE6092295498D48E6
:1038900004F0A8FDB8B9944A00235362A2F500626F
:1038A00000215362914A0020C2E900018C4AC2E91A
:1038B00000018A4AC2E900018D4A8E4953628E484E
:1038C00004F06EFD80E609228C497E4804F08AFDF2
:1038D0000446002840F0BE80894E26AD00F06EFC04
:1038E000337845F8884D8022214606A8059304F0D8
:1038F00019FC4FF4805221467F4804F013FC2B46FC
:1039000005AA80496F4804F0CDFC3378059A9342AC
:10391000B8BF0593049B032B84BF03230493049A2D
:10392000059B022A42D10F2BD8BF1023764F724E2F
:10393000DFF8DC81D8BF059300241022059B93FBA0
:10394000F2F39C420CD371496B4804F01AFD6F49A5
:1039500006A804F025FD06A9674804F012FD33E629
:103960004FEA04194A46394606A804F077FC06A92E
:10397000304604F006FDDFF8C4A1002509EB05037D
:10398000514638F8132092B2A2F5006206A804F05E
:1039900065FC013506A9304604F0F3FC102DEDD18D
:1039A0005A49304604F0EDFC0134C6E7012A23D120
:1039B000574DABB1574E504F0024059B013B9C42E5
:1039C0000FD235F8142092B2A2F50062314606A853
:1039D00004F044FC06A9384604F0D3FC0134ECE7BB
:1039E000059235F813204C4992B2A2F5006206A860
:1039F00004F034FC06A9A7E7032A4FF00004444D65
:103A000014D0464E3C4F059B9C42A0D235F8143052
:103A10009BB22246A3F50063314606A804F01EFCC3
:103A200006A9384604F0ADFC0134ECE73C4E324FB9
:103A3000059B9C428BD235F8142092B2A2F500620D
:103A4000314606A804F00AFC06A9384604F099FCA1
:103A50000134EDE7072233491A4804F0C3FC054658
:103A6000B8B905AA18491748184C04F01BFC0028DF
:103A70000DDD059B002BB8BF0595BDF81410A18383
:103A80004FF4107000F0E4FE207F03F027FBA28BC0
:103A90006BE5062224490B4804F0A4FC05460028E7
:103AA0004ED1224F224E3968224C33682268124888
:103AB000CB1A214904F0D2FB3B683360256083E5D3
:103AC0006A0D0108910B00207A0C0108C42A00201D
:103AD000730D0108491E00202E0F0108800A0020E6
:103AE000400A0020EF0C0108000C00406028002074
:103AF000002000407E0D0108610C00208B0D0108A4
:103B0000AC0A0020950D0108B40D0108FB0701085F
:103B1000621C0020BE0D0108C20D0108C80D01087D
:103B2000171101086909010845090108380A002030
:103B3000D82900208C0A0020D10D0108BA0D0108F7
:103B400003229149914804F04DFC18B9904B9149DA
:103B50001A681EE6052290498C4804F043FC58B9C7
:103B60008E4B8F481A688F4B19688F4B1B68CB1A86
:103B70008E4904F073FB27E50A228D49834804F03F
:103B800031FC38B9874B1A68874B1A60834B186031
:103B9000884994E6082288497C4804F023FC98BBB5
:103BA00026AA864942F8840D7848854C04F07AFBB1
:103BB000002823DD059B142B17D0322B15D0642B46
:103BC00013D0C82B11D0B3F5FA7F0ED0B3F57A7F9E
:103BD0000BD0B3F5FA6F08D041F28832934204D08B
:103BE00042F21072934218BF002363844FF478703E
:103BF000618C00F02DFE608C03F0BAFA628C0AB181
:103C00007049C6E570495AE6062270495F4804F0DB
:103C1000E9FB30B9634B6E491A686E4B1B68D21AC8
:103C2000B7E507226C49594804F0DCFBB0B905AA96
:103C300062495648624C04F035FB00280CDD059BB8
:103C4000013B022B84BF02230593BDF8141061834E
:103C50004FF4007000F0FCFD628B86E405225F49A2
:103C60004A4804F0BFFB002840F0CA8080220021AF
:103C700006A804F057FA05AA50494448504D04F0EC
:103C800011FB00286DDD059920290CD040290AD0B0
:103C9000802908D0B1F5807F05D0B1F5007F02D032
:103CA000B1F5806F66D1AA88288A4A43B2FBF0F248
:103CB00092B2002A5BD0AA80EB88494A298203FB92
:103CC0000113B3FBF0F3A8889FED467A8EB24FF450
:103CD000806494FBF6F444431460013B04F5806473
:103CE000EB8082029BB292FBF6F205203E4E92FBE5
:103CF000F0F23E48C2EB44023D4C726207EE903A4D
:103D00006262426200223260F8EE677A22608CB210
:103D1000631E67EE877A07EE103AB8EEC77A026044
:103D2000C7EE876AF7EE007A76EEE77A17EE900A2A
:103D30000BF0C4FF41EC100B0BF004FD51EC100B29
:103D40000CF0E8FA2B4B214618604FF4C07000F0DD
:103D50007FFDA988A02000F07BFDE988C02000F04D
:103D600077FD2A8A244906A804F078FAF3E50123AE
:103D7000AB80A1E7214906A804F012FB06A9084878
:103D800004F0FFFAEDE700BF58090108910B00208D
:103D9000280A0020E20D01084F0901088C0A0020C2
:103DA000610C0020380A0020D8290020D10D01081C
:103DB0009B0901087E180108E40901087A0C010832
:103DC000C42A0020ED0D0108080E01085F09010852
:103DD000210E0108900A00203E0E0108DB090108AF
:103DE000A80A002000008044002001400022014079
:103DF000002101406C28002017110108460E01081F
:103E00000922AA49AA4804F0EDFA60B10822A9499A
:103E1000A74804F0E7FA30B10722A749A44804F004
:103E2000E1FA002842D105AAA449A148A44C04F013
:103E300039FA002837DD059B002B34DD228AE38028
:103E40009BB29A42DCBF02F1FF32E280E288A38893
:103E50009A4238BFE380E188C02000F0F9FCE38893
:103E6000DFED987A07EE103A238AB8EE477A013BE5
:103E700027EE277A07EE903AF8EEE77AC7EE276A40
:103E8000F7EE007A76EEE77A17EE900A0BF016FF5F
:103E900041EC100B0BF056FC51EC100B0CF03AFA05
:103EA000894B80B21860E288FFF75FBB0722874921
:103EB0007F4804F097FA044660B94FF480520146F7
:103EC000834804F02FF9834B1A68834B1A60834BA5
:103ED0001C605DE606228249754804F083FA0446B8
:103EE00048BB774D0146288A00F022FA7B4BDFF869
:103EF00000E22F8A1C60059425462046264622466D
:103F00002146B9420CD306B1059405B118601B686F
:103F100000937449059B744804F0A0F9FFF754BB63
:103F20005EF82150A542284482BF2C468AB2012661
:103F300001310125E5E703226C495D4804F052FA9E
:103F40000746002840F0AE805D4C0146208A00F014
:103F5000EFF9638B5A1E012A27D9042B25D0638BD6
:103F6000032B16D1218A624D0023059301391A468D
:103F70008A4265D303B10597059B0BB901230593CD
:103F8000564E5B4F9FED5B8A00253560238A9D422C
:103F90005ED3504B58491A684F4B1B68D31A4F4A8F
:103FA00006A8126804F05AF9D5E44C4BDFF83891B2
:103FB00000261E609846514BDFF854B14AF6AA22FB
:103FC0001A60258A7543ED10218A06F1010A01FB6A
:103FD0000AF2B5EBE20F0DD34946494804F0AAF8BE
:103FE00056464FF480520021484604F09BF8082EB4
:103FF000E1D1B4E73E4B53F82520D8F80030134404
:10400000C8F80030638B022B0BD113463D492A467A
:1040100006A804F023F906A9484604F0B2F90135D0
:10402000D2E7012B04D1384906A804F017F9F2E7CA
:10403000042BF0D101398D420CBF59463349F3E7C7
:1040400055F82200B84284BF0746012301328FE7AA
:1040500057F82520059B9A424FEA85080FD9FF2281
:10406000294906A804F0FAF806A91F4804F089F9BE
:10407000326857F8083013443360013586E707EE9D
:10408000902AB8EE677A07EE903AF8EEE77AC7EE34
:10409000276A66EE887AFCEEE77ACDED037A9DF822
:1040A0000C20DDE70020FFF790BA00BF780E010872
:1040B000910B0020CF090108820E01087A0C01083B
:1040C000C42A0020000080446C28002090090108C8
:1040D00000800010380A00205C280020640A0020BC
:1040E0008A0E0108910E0108610C00209409010854
:1040F0000090001000007F43DA0D010800300040FE
:104100009A0701089C0E0108C5120108A90E0108B2
:10411000A50E010810B54FF480520021144804F098
:1041200001F80D221349144804F05CF9134B30B91F
:10413000012413491C700E4804F032F911E01B7879
:104140005BB9FEF741FF58B9FFF7E6F940B9FDF753
:1041500095FF044620B90B49EDE7FEF7B5F910B11C
:104160000124204610BDFEF78FFB0028E9D0F7E7B9
:10417000610C0020F4080108910B00204A1E002069
:1041800002090108290901084209012300F01F0062
:1041900003FA00F0014B43F82200704700E100E011
:1041A0004309012200F01F0002FA00F02033024A06
:1041B00042F82300704700BF00E100E0F0B585B091
:1041C00000AF514B1B78002B08D0504B1B78504A46
:1041D000A2FB03235B08DBB2FB7102E04B4B1B78B5
:1041E000FB711220FFF7DCFF642000F0BFF9494BA0
:1041F00000229A81484BFB60434B1B78002B4ED02A
:10420000464A47494748002303600B601360434A0E
:10421000434944480A2343634B63536302E0FB680A
:10422000013BFB60404B1B6803F48073002B02D101
:10423000FB68002BF3D1FB79DBB23C4A4FF400550D
:10424000C4F201054FF0000E4FF0000C4FF00006D5
:10425000D5F8004104F00204002CF9D0EC6C42F8CF
:10426000024BD5F8004204F00204002CF9D0D5F836
:104270004C4142F8024B2C6804F00204002CFAD0A6
:10428000D5F84C4242F8024B013B7FF4E1AFA7F86E
:104290000AC0A7F808E02DE0FB68013BFB60224B59
:1042A0001B6803F00103002B02D1FB68002BF3D144
:1042B000FB79DBB21D4A4FF40055C4F201054FF003
:1042C000000E4FF0000C4FF000062C6804F00204C2
:1042D000002CFAD0EC6C42F8024B744584BFA64621
:1042E000B44606F10106013B7FF4EFAFA7F80AC020
:1042F000A7F808E0074B01229A811220FFF744FF3C
:1043000000BF1437BD46F0BD4B1E0020AC0A002094
:10431000ABAAAAAA0014004080969800002201408F
:10432000002101400020014000230140621C0020C8
:104330002DE9F84F4FF4805204460E46284829498B
:10434000274F03F0E4FE00224FF48063154693FBF1
:10435000F4F3DBB291B28C4215D9002102FB03FECB
:10436000084605E00EEB010C013157F82CC0604403
:104370005FFA81FC6345F5D8854247F8220038BFD3
:1043800005460132E6E756B113A7D7E90067DFF823
:1043900050B04FF0000A1FFA8AF39C4201D8BDE8E2
:1043A000F88F5BF82A000BF067FC804628468946A8
:1043B0000BF062FC02460B46404649460BF0FCFD02
:1043C00032463B460BF0CEFC0BF0A4FF4BF82A0024
:1043D0000AF1010ADFE700BF0000000000E06F40C3
:1043E00000900010008000102DE9F04F434B444C2A
:1043F0004FF48022C3F88020A7B08146642000F0EB
:10440000B5F8404B00224FF0000A4FF0000B9A81A4
:1044100056465F4601254D4535D9681E0BF02CFCEC
:104420000B460246594650460BF0C6FD41EC100BB8
:104430000BF0CEF98022002106A859EC108B03F076
:1044400071FE47EC106B0BF07DF951EC100B0BF08B
:1044500039FFA4F50064A0F5006042464B46019088
:104460000094294906A803F0F9FE06A9274803F09D
:1044700088FF244B01229A81204B4FF480221A603E
:1044800027B0BDE8F08F224BDB6C0FFA83F8404673
:104490000BF002FC32463B46CDE904010BF0AEFACC
:1044A000CDE9020128460BF0E7FB02460B46DDE9A9
:1044B00002010BF081FD02460B46304639460BF0F7
:1044C0009FFA02460B4606460F46DDE904010BF053
:1044D00095FADDE902230BF045FC02460B465046F7
:1044E00059460BF08DFA444582464FF00A008B4640
:1044F000B8BF4446013500F039F88CE700E100E030
:1045000001F8FFFF00140040A90F0108610C002012
:1045100000200140044B1968024609B9034919609B
:10452000186802441A607047E409002020AB00209C
:104530004FF0FF3070474FF400534B60002070473E
:1045400001207047002070472DE90048064B586A4B
:10455000A3F500630022596A12EB000B41F1000C35
:1045600058466146BDE80088000C004038B5134B42
:104570001A7804466AB1FFF7E7FF0A23E3FB040158
:1045800004460D46FFF7E0FFA94208BFA042F9D359
:1045900038BD0B4B1B7873B11346A34200D138BD15
:1045A0001C2200BF013AFCD10133F6E70D2200BF07
:1045B000013AFCD10133A342F8D138BD481E002096
:1045C0004B1E002038B5154B1A78044672B1FFF720
:1045D000BBFF42F21073E3FB040104460D46FFF7F4
:1045E000B3FFA94208BFA042F9D338BD0C4B1B78DA
:1045F00083B11346A34200D138BD47F2305200BF09
:10460000013AFCD10133F5E743F6982200BF013AA5
:10461000FCD10133A342F7D138BD00BF481E0020B2
:104620004B1E0020F8B5224C0646082580270520A1
:10463000FFF79CFF3E4215BF238B638B9BB29BB25F
:1046400015BF43F4804343F48043238363830520F1
:10465000FFF78CFF238B9BB243F400432383052099
:10466000FFF784FF638B9BB243F40043013D6383F8
:104670004FEA5707DBD10520FFF778FF238B9BB26A
:1046800043F4804323830520FFF770FF238B9BB205
:1046900043F4004323830520FFF768FF638B9BB23D
:1046A00043F4004363830520BDE8F840FFF75EBF95
:1046B000000C02402DE9F041114E08244FF0800813
:1046C00000273546338B9BB243F4004333830520E8
:1046D000FFF74CFF33695B046B8B9BB243F40043E1
:1046E0006B834FF0050048BF47EA0807FFF73EFF1E
:1046F000013C4FEA5808E5D13846BDE8F08100BFDB
:10470000000C024010B5124C238B9BB243F4804343
:104710002383238B6FEA43436FEA53439BB2238384
:104720000520FFF723FF638B9BB243F48043638331
:104730000520FFF71BFF638B6FEA43436FEA534388
:104740009BB263830520BDE81040FFF70FBF00BF99
:10475000000C024010B5114C638B9BB243F48043B4
:1047600063830520FFF702FF238B6FEA43436FEA61
:1047700053439BB223830520FFF7F8FE238B9BB2A4
:1047800043F4804323830520FFF7F0FE638B6FEA39
:1047900043436FEA53439BB2638310BD000C024056
:1047A0002DE9F041124C134E4FF480250746C4F812
:1047B000805064208846FFF7D9FE0023B381FFF7BD
:1047C000A1FFA020FFF72EFF380AFFF72BFFF8B25A
:1047D000FFF728FF4046FFF725FFFFF7BBFF052047
:1047E000FFF7F0FE0123B3812560BDE8F08100BF33
:1047F00000E100E000140040F8B5134C134E4FF4F4
:1048000080250746C4F880506420FFF7AFFE0023E0
:10481000B381FFF777FFA020FFF704FF380AFFF707
:1048200001FFF8B2FFF7FEFEFFF76CFFA120FFF7D4
:10483000F9FEFFF73FFF0746FFF78CFF0123B38127
:1048400025603846F8BD00BF00E100E000140040DC
:104850002DE9F041144C154E4FF480258046C4F8E4
:10486000805064200F46FFF781FE0023B381FFF7DD
:1048700049FFA020FFF7D6FE4FEA1820FFF7D2FE2F
:104880005FFA88F0FFF7CEFE380AFFF7CBFEF8B2EA
:10489000FFF7C8FEFFF75EFF0520FFF793FE012339
:1048A000B3812560BDE8F08100E100E00014004024
:1048B0002DE9F041184D194F4FF480268046C5F878
:1048C000806064200C46FFF751FE0023BB81FFF798
:1048D00019FFA020FFF7A6FE4FEA1820FFF7A2FE5F
:1048E0005FFA88F0FFF79EFE200EFFF79BFEC4F3F1
:1048F0000740FFF797FEC4F30720FFF793FEE0B2EF
:10490000FFF790FEFFF726FF0520FFF75BFE012370
:10491000BB812E60BDE8F08100E100E000140040A2
:104920002DE9F041194D1A4F4FF480268046C5F805
:104930008060642010EE104AFFF718FE0023BB8150
:10494000FFF7E0FEA020FFF76DFE4FEA1820FFF70B
:1049500069FE5FFA88F0FFF765FE200EFFF762FE42
:10496000C4F30740FFF75EFEC4F30720FFF75AFECB
:10497000E0B2FFF757FEFFF7EDFE0520FFF722FE3E
:104980000123BB812E60BDE8F08100BF00E100E0A3
:1049900000140040184B70B516464FF480220446B0
:1049A000C3F8802064200D46FFF7E0FD134B002282
:1049B0009A81FFF7A7FEA020FFF734FE280AFFF731
:1049C00031FEE8B2FFF72EFE013E651E3444A542DB
:1049D0000CD1FFF7BFFE0520FFF7F4FD074B0122C6
:1049E0009A81054B4FF480221A6070BD15F8010FB3
:1049F000FFF718FEEBE700BF00E100E00014004005
:104A000010B50446FFF77EFE9820FFF70BFE10203E
:104A1000FFF708FE200AFFF705FEE0B2FFF702FEEF
:104A2000BDE81040FFF796BE10B5134C638B9BB2E8
:104A300043F4804363830520FFF798FD238B6FEADF
:104A400043436FEA53439BB223830520FFF78EFD58
:104A5000638B6FEA43436FEA53439BB26383052042
:104A6000FFF784FD238B9BB243F48043238305200F
:104A7000BDE81040FFF77ABD000C0240F8B5174DB5
:104A8000174F4FF480260446C5F880606420FFF776
:104A90006DFD0023BB81FFF735FEA020FFF7C2FDAF
:104AA000200AFFF7BFFDE0B2FFF7BCFDFFF72AFECB
:104AB000A120FFF7B7FDFFF7FDFD000200F47F44E2
:104AC000FFF7B2FFFFF7F6FD0443FFF743FE0123B4
:104AD000A4B2BB812E602046F8BD00BF00E100E01B
:104AE00000140040F8B51C4D1C4F4FF480260446BE
:104AF000C5F880606420FFF739FD0023BB81FFF714
:104B000001FEA020FFF78EFD200AFFF78BFDE0B22B
:104B1000FFF788FDFFF7F6FDA120FFF783FDFFF704
:104B2000C9FD0446FFF780FFFFF7C4FD24020443DC
:104B3000FFF77AFFFFF7BEFD24020443FFF774FF7F
:104B4000FFF7B8FD24020443FFF704FE0123BB81F5
:104B50002E602046F8BD00BF00E100E000140040D8
:104B6000F7B51D4D1D4F4FF480260446C5F88060F3
:104B70006420FFF7FBFC0023BB81FFF7C3FDA020EF
:104B8000FFF750FD200AFFF74DFDE0B2FFF74AFDA9
:104B9000FFF7B8FDA120FFF745FDFFF78BFD0446A9
:104BA000FFF742FFFFF786FD40EA0424FFF73CFFD2
:104BB000FFF780FD40EA0424FFF736FFFFF77AFD98
:104BC00040EA04200190FFF7C5FD0123BB812E6060
:104BD0009DED010A03B0F0BD00E100E000140040CB
:104BE000F8B51C4B15464FF48022C3F880200646CA
:104BF00064200F46FFF7BAFC174B00249C81FFF797
:104C000081FDA020FFF70EFD380AFFF70BFDF8B27B
:104C1000FFF708FDFFF776FDA120FFF703FD013D3B
:104C200023469CB2AC4203F101070CDBFFF742FDC7
:104C30007055FFF78FFD084B01229A81054B4FF409
:104C400080221A60F8BDFFF735FD3055FFF7ECFE06
:104C50003B46E6E700E100E00014004010B50F4CD1
:104C6000238B9BB243F4804323830520FFF77EFC14
:104C7000238B6FEA43436FEA53439BB223830520A0
:104C8000FFF774FC638B6FEA43436FEA53439BB2B5
:104C900063830520BDE81040FFF768BC000C0240AC
:104CA00038B5FFF72FFD2920FFF7BCFCFFF702FD09
:104CB0000546FFF7B9FEFFF7FDFC0446FFF7CEFF00
:104CC000FFF748FD04EB052080B238BD000000006E
:104CD00010B5FFF717FD4F20FFF7A4FCFFF7EAFC24
:104CE0000446FFF7A1FEFFF7E5FC24020443FFF7AB
:104CF0009BFEFFF7DFFC24020443FFF795FEFFF75E
:104D0000D9FC24020443FFF7A9FFFFF723FDFFF7B7
:104D1000F9FC4E20FFF786FCFFF71CFDC4F38D0065
:104D200007EE900AF8EEE77A17EE900A0AF0C6FF4F
:104D300013A3D3E900230BF03FF917A3D3E9002312
:104D40000BF010F80022104B0AF058FE0F4BC3E98D
:104D50000001C4F30D4007EE900AF8EEE77A17EE73
:104D6000900A0AF0ABFF06A3D3E900230BF024F965
:104D7000074B00220AF0F6FF064BC3E9000110BD05
:104D80000000000080FFCF4000004440580A00208F
:104D900000005940B02900200000000000A064403D
:104DA000F8B5224C0646082580270520FFF7DEFBD4
:104DB0003E4215BF238B638B9BB29BB215BF43F45E
:104DC000005343F40053238363830520FFF7CEFB96
:104DD000238B9BB243F4804323830520FFF7C6FB5C
:104DE000638B9BB243F48043013D63834FEA5707D3
:104DF000DBD10520FFF7BAFB238B9BB243F40053B2
:104E000023830520FFF7B2FB238B9BB243F480433F
:104E100023830520FFF7AAFB638B9BB243F48043F7
:104E200063830520BDE8F840FFF7A0BB001C0240EB
:104E300010B5104C238B9BB243F400532383238B78
:104E40009BB243F4804323830520FFF78FFB638BE2
:104E50009BB243F4005363830520FFF787FB638B0A
:104E60009BB243F4804363830520BDE81040FFF705
:104E70007DBB00BF001C024010B50F4C638B9BB282
:104E800043F4005363830520FFF770FB238B9BB231
:104E900043F4804323830520FFF768FB238B9BB2F9
:104EA00043F4005323830520FFF760FB638B9BB221
:104EB00043F48043638310BD001C02402DE9F041A0
:104EC000114C124E4FF48025804600276420C4F810
:104ED0008050FFF74BFB3220B781FFF747FBFFF70E
:104EE000A7FF5820FFF75CFF3846FFF759FF404601
:104EF000FFF756FFFFF7C0FF3220FFF737FB012314
:104F0000B3812560BDE8F08100E100E000140040BD
:104F10001E4A938A118B090411FA83F31C498B42B0
:104F200014D005D8102B21D0B3F1021F07D0704741
:104F300018498B4212D0184A934204D07047174B3D
:104F400000221A8070470022154BFAE713490B889C
:104F5000581C0880118A134AD154704710490B8895
:104F6000581C08801049CB5C1382704713889BB291
:104F700043F001031380094B00221A800B4B0422DB
:104F80001A700B4B01221A70704700BF0058004086
:104F9000400002008000060082000600E8090020B0
:104FA000EA090020760B00204C1E00203C0A00205D
:104FB000AF290020024A938ADBB29382704700BF78
:104FC0000058004010B5574B002800F08980564A21
:104FD000564C0221C2F884100421C2F88410544AAD
:104FE000116C21F480011164116E21F480011166AD
:104FF000116B41F002011163116D41F00201116565
:10500000196841F420011960596A41F488415962D4
:10501000596841F440615960D96841F4A001D960F0
:10502000136C43F480031364136E43F4800313661C
:1050300023886FEA43436FEA53439BB223800A20DD
:10504000FFF7C0FA0023A3822380A380394B1B788B
:10505000002B36D0A3889BB243F01E03A380A38B02
:105060009BB243F09603A383238C9BB243F01F03B0
:1050700023842E4B00201A8918811A8991B22E4A56
:1050800092F820205200D2B20A431A819A8892B232
:1050900042F4E0629A8098821A8892B242F0010249
:1050A0001A801A8892B242F480621A801E4B102233
:1050B000022183F82123596083F8222304225A60B5
:1050C00010BDA3889BB243F00F03A380A38B9BB2B8
:1050D00043F04B03A383238C9BB243F01003C7E739
:1050E000124A9082108090805A6822F440625A607E
:1050F0001A6822F470021A60DA6822F47002DA6028
:105100000B4B1A6C22F480021A641A6E22F480028D
:105110001A66054B0222C3F884200422C3F88420B7
:1051200010BD00BF0004024000E100E00058004054
:10513000003802404B1E0020C42A00202DE9F04117
:10514000A94D2DED028B2B78013BADF5946D132B02
:1051500000F28F80DFE813F0FC00F500E10075003D
:105160008300950014009A00D902FA021701F00199
:105170002B01B8007801AF019D02A2006E02FC0273
:105180009A4E9B4F26AC4FF481620021204602F0DC
:10519000C9FF308A0021FFF7CBF8368A0023701E42
:1051A0001A4699B2814229DB9249DFF844C2DFED09
:1051B000926A0023002A08BF01220B6018461F468E
:1051C0004FF0FF081FFA83FE76451ED800B10F602E
:1051D0000B68A351894A8A4B12681B6889489B1A3D
:1051E00027AA002193514FF4816202F09BFF06F140
:1051F00008022146834802F08AFF3AE057F821105E
:105200008A4238BF0A460133CBE75CF823E0964573
:1052100005D904F80380774401330120D2E707EE73
:10522000902AB8EEE76A07EE90EAB8EE677AC7EE22
:10523000067A67EEA67AFCEEE77A17EE900AE0545B
:10524000E9E7714A6F4C1368704923606C4B18682A
:105250000B680860C31A63600023136009E06A4B9F
:10526000684A1B6813606949654B09681B685B1ACB
:10527000536000232B600DF5946DBDEC028BBDE8EF
:10528000F081634B1A685F4B1A60F2E75C4B614A2E
:105290001B6812689B1A5B4A1360EAE7B5F80110B5
:1052A000524C69B14FF6FF73994208BF00214FF489
:1052B0001070A183FFF7CCFA207F01F00FFFD8E731
:1052C000A28B504B1A80D4E7B5F80140474EB2EE9E
:1052D000048ABCB14FF6FF739C4208BF0024E4B2BD
:1052E0002046FFF7EBFD0520FFF76CF907EE904A2B
:1052F000F8EEE77A802087EE880A86ED000AFFF74D
:105300000FFBB6E7D6ED007A3E4A67EE887AFCEEF0
:10531000E77A17EE903A1380ABE74FF48052002102
:105320003D4802F0FFFE4FF481620021354802F053
:10533000F9FE334B1A68314B1A602E4B00221A606B
:1053400097E72F4B1A68314B1A6000222E4BF6E775
:10535000324A138B9BB243F4806313830A20FFF716
:1053600031F92F4A00239381A2F54C429381BFF378
:105370004F8F2C492C4BCA6802F4E0621343CB6078
:10538000BFF34F8FFEE78222002105A802F0CAFE7C
:10539000264B0293264B0193264B0093264A27491E
:1053A000274B05A802F05AFF802205A922E7B5F88D
:1053B00001300E4C8BB14FF6FF72934208BF0023B1
:1053C00062892381934288BF22812189E020FFF7EF
:1053D0003FFA208901F07CFC4BE71A4A094B12681E
:1053E0001A6022899A8044E7760B0020C42A0020A4
:1053F00000900010640A002000007F435C28002019
:10540000380A00204C1E00208C0A0020D8290020D9
:10541000280A0020900A002000800010000C0240A2
:105420000014014000ED00E00400FA05680A0020C5
:10543000800B0020DE290020D90F0108F20F01089F
:10544000D10C01087C0B0020B5F80130B34C002BC7
:105450002FD04FF6FF72934208BF0023228AA38009
:10546000D209934238BFA280A3880BB90123A3803D
:10547000A188A020FFF7ECF9A288A94B208A4FF45D
:10548000806191FBF0F15143196001F58061930255
:10549000052293FBF0F3A34893FBF2F3A24AC3EB7C
:1054A0004103A24943624B625362002303600B60D5
:1054B000D3E6A28805E7B5F80130984C002B39D027
:1054C0004FF6FF72934208BF0023228AE3809A427C
:1054D000DCBF02F1FF32E280E288A3889A4238BF43
:1054E000E380E188C020FFF7B3F9E388DFED907A2D
:1054F00007EE103A238AB8EE477A013B27EE277A67
:1055000007EE903AF8EEE77AC7EE276AF7EE007AF0
:1055100076EEE77A17EE900A0AF0D0FB41EC100B1A
:105520000AF010F951EC100B0AF0F4FE814B80B236
:1055300018609EE6E288C4E6B5F80110002976D02E
:105540004FF6FF7399423FF494AE20290DD04029C5
:105550000BD0802909D0B1F5807F06D0B1F5007F4E
:1055600003D0B1F5806F7FF484AE6C4EB288308A80
:105570004A43B2FBF0F292B2002A55D0B280F388CF
:105580009FED6B7A664C674F318203FB0113B3FBCF
:10559000F0F3013BF3809BB207EE903AF8EE677AA6
:1055A0004B1E67EE877A07EE103AB8EEC77AB088DE
:1055B000C7EE876A4FF4806292FBF1F242432260A9
:1055C00002F580648202052092FBF1F292FBF0F278
:1055D0005548C2EB4402554C7A62F7EE007A76EEFB
:1055E000E77A6262426200223A602260026017EE4D
:1055F000900A0C460AF062FB41EC100B0AF0A2F88C
:1056000051EC100B0AF086FE4A4B214618604FF40D
:10561000C070FFF71DF9B188A020FFF719F9F188D4
:10562000C020FFF715F924E60123B380A7E73B4B21
:105630001A8A46E6B5F80130384C43B34FF6FF728C
:10564000934222D0142B16D0322B14D0642B12D0BC
:10565000C82B10D0B3F5FA7F0DD0B3F57A7F0AD0FE
:10566000B3F5FA6F07D041F28832934203D042F289
:105670001072934209D16384618C4FF47870FFF704
:10568000E7F8608C01F074FDF3E50023F3E7628C2A
:1056900017E6B5F80110214C002934D04FF6FF73FE
:1056A000994208BF0021A38A012B18D10A2938BFCB
:1056B0000A214FF4D0706182FFF7CAF81E4B1A78A6
:1056C0001E4BC2B11A78638A03EB83035B00193B5C
:1056D000C2EB02129B1A1A4A9BB2D362C9E5032B92
:1056E00003D11E2938BF1E21E3E70A2BE1D164292B
:1056F00038BF6421DDE71A78638A9B1A03EB8303C2
:105700005B00193BE7E7628ADBE50E4BD3E900015A
:105710000AF020FE0C4B1860ABE500BFC42A002045
:10572000A80A002000200140002201400021014081
:10573000000080446C2800204B1E0020480A0020F6
:1057400000140040580A00204C1E0020044BDDE7E6
:10575000B5F80110034C00297FF4A4AD626AB0E5EE
:10576000B0290020C42A002070B50B681CBA234B56
:105770001C624C6824BA5C628C6824BA9C62CC6857
:1057800024BADC620C6924BA1C634C6924BA5C63D9
:105790008C6924BA9C63C96909BAD963116809BACA
:1057A0001964516809BA5964916809BA9964D26850
:1057B00012BADA6444F2B0221A601A6842F4004263
:1057C0001A6000F1800419465A689607FCD500F16A
:1057D0001005024652F8046B9E60AA42FAD14D6849
:1057E0006D07FCD5CD6840F8045B8242FAD1A24235
:1057F000EAD10B6823F400430B6070BD0000065033
:105800002DE9F04F964BDFF888821D88954BDFF825
:1058100060924FF48022C3F88020A7B002F08CFB86
:10582000002001F055FA0123002088F8003001F033
:1058300055FC8D4B1A6842F480221A60AE024FF478
:1058400000722F0A74081A83ED09CDF80480DFF87E
:10585000448204F10064043704354AF6AA2AAF42B0
:10586000C0F0E380804B814FDFF804824FF4007278
:105870005A831A6822F480221A60012001F02EFC5B
:10588000C820FEF79FFE00254AF6AA29BD4200F275
:10589000D280013501F062FD0028F7D001F044FD0F
:1058A0000128F3D1724B4AF6AA2206AF1A60FF21F3
:1058B0008022384602F036FC01F056FD01F054FD1E
:1058C000002501F051FD78550135802DF9D101F009
:1058D0004BFD01F049FD062001F014FD01F044FDEF
:1058E000069B009307AB0FCB0DF1080888E80F006B
:1058F000604BDFF8A4B15A6B42F010025A635A6D44
:1059000006F1FF6642F010025A6506F5FE26A14632
:1059100000233C2103F1010AB3FBF1F201FB123336
:1059200033B9BBF800309BB243F00103ABF8003051
:105930004F4B4AF6AA221A6000218022384602F014
:10594000F1FB01F011FD01F00FFD002501F00CFD50
:1059500078550135802DF9D101F006FD01F004FDE7
:10596000454A46493846FFF7FFFE2A46494638462B
:10597000434B9847B1454FEACA156CD2062001F057
:10598000C1FC01F0F1FC042809F180095346C0D1A3
:10599000152001F0B7FC01F0E7FC042802D1062035
:1059A00001F0B0FC334B37485A6B22F010025A63B7
:1059B0005A6D22F010025A651A6B42F480521A6333
:1059C0001A6D42F480521A65A3F500630122043C6B
:1059D0009A602919A14235D1186890FAA0F0254B98
:1059E0001A6B22F480521A631A6D22F480521A65DF
:1059F000019A002313701B4B4FF480221A60C4439A
:105A000002F0B4FA204B187F01F068FB10221F4906
:105A1000404602F0E7FC00BB009BA3420CBF2846B7
:105A20004FF0FF3027B0BDE8F08FF8B2C047013724
:105A3000C9F800A013E7C8F80090432001F062FC09
:105A4000002527E754F8042F92FAA2F21A60C268E0
:105A5000D203FCD4BEE70020E4E76FF00100E1E7E9
:105A6000227AFF1F00E100E0001C0240BF5C15002D
:105A700000300040003802400710010818100108EB
:105A8000E5020020003C0240C42A0020DE2900205C
:105A900050280020910200200018004008B5102274
:105AA00000210A48FFF79CF8202211460848FFF71A
:105AB00097F8102240210748FFF792F81022602142
:105AC0000548BDE80840FFF78BB800BFDE2900207D
:105AD000B8290020800B0020680A002010B5802023
:105AE000FFF73EF8394CA02084ED000AFEF7C6FF10
:105AF000A080C020FEF7C2FFE080E020FEF7BEFFDE
:105B000020814FF48070FEF7B9FF60814FF49070F0
:105B1000FEF7E8FFE0604FF4C070FEF7AFFF2082B1
:105B20004FF4D070FEF7AAFF60824FF49060FEF74A
:105B3000A5FFA0824FF40070FEF7A0FF60834FF432
:105B40001070FEF79BFFA0834FF41870FEF796FFCE
:105B5000E0834FF45870FEF74FFE84F820004FF4B6
:105B60007070FEF749FE84F821004FF47870FEF75C
:105B700085FF60844FF49460FEF7F2FF4FF4986065
:105B800084ED0A0AFEF7ECFF4FF49C6084ED0B0AEB
:105B9000FEF7E6FF4FF4A06084ED0C0AFEF7E0FF8D
:105BA0004FF4DC6084ED0D0AFEF7DAFF4FF4E0609D
:105BB00084ED0E0AFEF7D4FF4FF4E86084ED0F0A7F
:105BC000FEF71AFE84F8440010BD00BFC42A00206E
:105BD000D0B52DED028B0024BC492346625601341A
:105BE000002AB8BF0123102CF8D16BB12246002146
:105BF000B64802F097FAB649B44802F0D1FB224603
:105C00000021B248FEF7C6FE0024B2492346625680
:105C10000134002AB8BF0123202CF8D16BB12246F1
:105C20000021AC4802F07EFAAB49AA4802F0B8FB6A
:105C300022462146A748FEF7ADFE0024A749234689
:105C400062560134002AB8BF0123102CF8D16BB181
:105C500011220021A14802F065FAA1499F4802F0F3
:105C60009FFB224640219D48FEF794FE00229D485E
:105C70001346115601320029B8BF0123122AF8D168
:105C800063B10021974802F04DFA9749954802F018
:105C900087FB102260219348FEF77CFE934C94F919
:105CA0002030002B06DA51214FF4587084F8201070
:105CB000FEF776FD94F94430002B06DA41214FF4CB
:105CC000E86084F84410FEF76BFDD4ED007AFDEE39
:105CD000E77A17EE900A002806DD09F0DDFF0022C2
:105CE000834B0AF0CFFA30B1B1EE0C0A802084ED7C
:105CF000000AFEF715FE238A202B1ED0402B1CD055
:105D0000802B1AD0B3F5807F17D0B3F5007F14D065
:105D1000B3F5806F11D008238021A3804FF4C070A9
:105D20007F232182E380FEF793FDA188A020FEF768
:105D30008FFDE188C020FEF78BFD238A802B00F0C9
:105D4000178200F2DC81202B00F0F081402B00F064
