:020000040020DA
:1000000088F30120050420000104200001042000E1
:100010000104200001042000010420000000000071
:1000200000000000000000000000000001042000AB
:100030000104200000000000010420001924000039
:10004000010420000104200001042000010420001C
:10005000010420000104200001042000010420000C
:1000600001042000010420000104200001042000FC
:1000700001042000010420000104200001042000EC
:1000800001042000010420003D1C000001042000A8
:1000900001042000010420000104200001042000CC
:1000A00001042000010420000104200001042000BC
:1000B00001042000010420000104200001042000AC
:1000C000010420000104200001042000010420009C
:1000D0000104200001042000010420000525000087
:1000E000612500000104200001042000F923000024
:1000F00089250000010420000104200001042000E3
:100100000104200059250000010420000104200002
:10011000010420000104200001042000E523000068
:100120000104200001042000010420005D250000DE
:10013000010420000104200001042000010420002B
:10014000010420000104200001042000010420001B
:10015000010420000104200001042000D924000033
:1001600001042000010420000104200001042000FB
:1001700039250000212500000104200000000000B6
:1001800001042000010420000104200001042000DB
:1001900001042000010420000104200001042000CB
:1001A00001042000010420000104200001042000BB
:1001B00001042000010420000104200001042000AB
:1001C00001042000010420000000000001042000C0
:1001D000010420000104200001042000010420008B
:1001E000010420000104200001042000010420007B
:0801F0000104200001042000BD
:10040000FEE700000A4A0B4B0B498B420AD30B480C
:100410000B494FF000028842B8BF40F8042BFADBCA
:1004200000F69EBD52F8040F43F8040BEDE700BF41
:100430001C04220000000000442E000000000220E6
:10044000B0440720044B5A6A42F400625A625A6A66
:1004500022F400625A627047003802400A498368F9
:1004600010B54A68446822F4FD42234322F07F021B
:100470001343C26813430268134302691343027DA6
:1004800013434B6010BD00BF002C0140044B5A6861
:1004900018B142F480725A60704722F48072FAE711
:1004A000002C0140014B1860704700BF002C014038
:1004B000024B186800F00300704700BF002C014099
:1004C0000368094910B58B60CA684368846822F4E0
:1004D000FF62234322F007021343C26813430269F9
:1004E0001343CB6010BD00BF002C0140014B1869C5
:1004F000C0B27047002C014082B000230193034B2F
:1005000003440193019B186802B07047142C01400A
:100510000368094A10B5536243689362D16A8368DD
:10052000C46821F0F70123430B4301690B43416980
:100530000B43D36210BD00BF002C0140014BD3F828
:1005400080007047002C0140044BDA6A18B142F079
:100550000802DA62704722F00802FAE7002C014034
:10056000044BDA6B11B11043D863704722EA0000E4
:10057000FAE700BF002C0140014B9863704700BFB1
:10058000002C0140034B5B6B034214BF0120002091
:10059000704700BF002C0140FFF7F4BF014B986388
:1005A000704700BF002C014010B5074C2068FF28A1
:1005B00007D0064B064A9B68126806499847FF23F6
:1005C0002360002010BD00BF30000000BC00000010
:1005D0001400022078030220432301480B80704757
:1005E00034000000432301480B807047770000006F
:1005F00038B5044602234022812101F021FA02236A
:10060000402201212046002501F01AFA822103230D
:100610000822204601F014FA074B02225D711A717C
:10062000064B1B6898474023054A0121204601F0EC
:1006300042FA284638BD00BFD8000000BC000000C8
:100640003803022038B52823084D044603FB010176
:10065000074B28461B69B1F88C13984740232A465C
:100660000121204601F027FA002038BD380302207E
:10067000BC00000010B50446812101F005FA0121FB
:10068000204601F001FA8221204601F0FDF9024BDB
:100690005B689847002010BDBC000000F8B50A78E0
:1006A00006460D4612F0600424D0202C29D1CC88B7
:1006B0004B78C4B112060DD51A4A18461A499768E4
:1006C0002246B847EA881849304600F0ECFA002480
:1006D0002046F8BD154A144913602246144B1C608D
:1006E00000F0F9FAF3E70F4A2146184695682246CA
:1006F000A847EDE74B780A2B07D00B2B0AD0062B27
:10070000E6D100F015FD0224E2E70122094900F0DC
:10071000CAFADDE78B7813B9064A1360D7E700F011
:1007200007FDD5E7BC000000780302203000000080
:100730001400022018000220204B70B51A68012A0C
:1007400002F1010102D01960002070BD00221C4C92
:100750001A602378002BF7D11A4D2A68B2F5004FA2
:1007600008BF2B60184B29681B68994202D10023EF
:100770002370E9E78CBFC1F500435B1A134E8AB2C0
:1007800033603368402B0CD9403B40313360012348
:100790002960237040230E490A44812101F0B1F9F8
:1007A000D2E7194418BF9BB229604FF000013160B5
:1007B0000CBF022101212170EDE700BF0C000220D7
:1007C0001000022008000220040002200000022085
:1007D0000000002070B5184D2B782C46012B03D15A
:1007E000164E33685BB92B702378022B16D1002389
:1007F00081211A4601F085F9002323700EE010498B
:10080000402B0C68A2B20BD9403B403433604023EC
:100810000C600C490A44812101F073F9002070BD7D
:100820001C4418BF9BB20C604FF00001316004BF44
:1008300002212970EDE700BF100002200000022015
:1008400008000220000000200020704700207047B0
:1008500021280FD1084B1A680A701A68120A4A70C8
:100860005A888A70DA78CA701A790A715A794A7184
:100870009B798B7100207047D000000007B502AB58
:10088000012103F8010D184600F004F803B05DF8EB
:1008900004FB00002DE9F04104464618124D134FA9
:1008A000A6421DD10020BDE8F0810120FFF528FE01
:1008B0004AF6AA233B602B6847F6FF71D8F8002060
:1008C0009A1AC2F30E028A42EFD014F8011B084AAA
:1008D000D1540133B3F5004F08BF00232B60DFE78D
:1008E000DFF81080E7E700BF04000220003000407E
:1008F00000000020080002200B4B01440B4AF0B519
:100900000B4D00261C68884201D10020F0BD136801
:1009100010F8017BEF540133802B08BF3346A3420C
:100920001360F0D10220F0BD881E05209C410720F5
:1009300022150520094B0A491A68096891420AD014
:1009400008498A5C027001201A680132802A08BFB7
:1009500000221A6070470020704700BF881E0520E3
:100960009C41072022150520034B1868034B1B6888
:10097000C01A18BF012070479C410720881E05201F
:10098000122301480B807047D8000000042301485F
:100990000B807047F40000000A46064908B520B9EC
:1009A000054800F0D3FB034808BD044800F0CEFB27
:1009B000F9E700BF5142072080B12100A1B1210019
:1009C00010B5044C0A460448214600F0BFFB2046FF
:1009D00010BD00BF51420720C2B121000A4606499E
:1009E00008B520B9054800F0B1FB034808BD04482C
:1009F00000F0ACFBF9E700BF51420720D5B1210060
:100A0000181E052010B5044C0A460448214600F083
:100A10009DFB204610BD00BF51420720E2B12100DE
:100A200010B5044C0A460448214600F08FFB2046CE
:100A300010BD00BF51420720EDB121002DE9F0416A
:100A4000069F0446164698460D4600F0A3FB204636
:100A5000C4F8E4852946C4F8E875C4F8EC6500F0EC
:100A6000A1FFD4F8E8351B6898472046BDE8F0415F
:100A700000F0B2BB13B56946044600F037FB9DF8A1
:100A8000001001F01F03012B0FD007D3022B11D050
:100A900001F08001204601F054F803E06946204649
:100AA00000F05EF9002002B010BD6946204600F05B
:100AB0009BFAF7E76946204600F0AEFAF2E710B578
:100AC000044659BB90F81131032B18D1D0F890335C
:100AD000D0F87C23934214D9C1789B1A0129C0F81D
:100AE000903302BFD0F880138918C0F880139A425F
:100AF000D0F8801328BF1A4692B200F0FCF800200C
:100B000010BDD0F8E4351B6923B190F81221032AF7
:100B100000D19847204600F0F6F8F0E7D0F8E43529
:100B20009B69002BEBD090F81221032AE7D198475C
:100B3000E5E7000038B5044600294DD190F81131A1
:100B4000022B1BD1D0F83821D0F824319A4222D977
:100B5000C178D21A0129C0F8382192B202BFD0F868
:100B600028115B18C0F82831D0F8281100F0ABF834
:100B7000002320461A46194600F09DFF94F81631CE
:100B8000012B06D11A4A236912685A60002384F89F
:100B90001631002038BDD0F83C21B2FBF3F503FB41
:100BA00015255DB9934209D8D0F840319A4205D253
:100BB0002A4600F088F8C4F84051D9E7D4F8E43563
:100BC000DB682BB194F81221032A01D12046984703
:100BD000204600F0A7F8D1E7D0F8E4355B69002B98
:100BE000D7D090F81221032AD3D19847D1E700BF7C
:100BF000504307200023402210B50446194600F058
:100C00001FFF402280210023204600F019FF01230E
:100C1000A07884F81231D4F8E8355B689847002052
:100C200010BD10B5D0F8E83504461B69984703237A
:100C3000002084F8123110BD08B590F8123180F808
:100C40001331042380F81231D0F8E835DB68984777
:100C5000002008BD08B5D0F8E435DB6903B198473A
:100C6000002008BD10B5D0F8E43504461B6898474D
:100C7000D4F8E8359B689847002010BD08B5D0F837
:100C8000E4355B689847002008BD08B5D0F8E43526
:100C90001B6A9847002008BD08B5D0F8E4355B6AA8
:100CA0009847002008BD10B504461346C4F83C21FF
:100CB000C4F83821022280F811210A46002100F0F0
:100CC00020FF002010BD08B513460A46002100F0A1
:100CD00018FF002008BD10B504461346C4F894233D
:100CE000C4F89023032280F811210A46002100F065
:100CF000E2FE002010BD08B513460A46002100F0B0
:100D0000DAFE002008BD042310B580F8113100235D
:100D100004461A46194600F0F4FE204600F004FE90
:100D2000002010BD052310B580F8113100230446C2
:100D30001A46194600F0BFFE204600F0F5FD0020DF
:100D400010BD10B50446802100F0FBFE00212046B6
:100D500000F0F7FE2046BDE8104000F0E5BD0000C1
:100D600037B54B7804460D46092B00F29680DFE834
:100D700013F0E40024019400F400940089000A00B8
:100D80009400D600A900CB88ADF806304B881A0A2B
:100D9000013A062A00F28180DFE802F0040C357F78
:100DA0007F556900D0F8EC351B680DF10601A0787D
:100DB000984717E0D0F8E4350DF1060180789B6A7A
:100DC0009847A378012B09D1237A012B06D1D4F8B7
:100DD000E4250DF106011846D26A904702234370BC
:100DE000C4F8F005BDF80620002A66D0EB88002B79
:100DF00063D09A42014628BF1A46ADF80620204625
:100E0000FFF751FF59E0DBB2052B46D8DFE803F0CE
:100E100003070B0F1317D0F8EC355B68C5E7D0F864
:100E2000EC359B68C1E7D0F8EC35DB68BDE7D0F85E
:100E3000EC351B69B9E7D0F8EC355B69B5E7D0F85C
:100E4000EC359B69B1E7807838BBD4F8E4350DF117
:100E500006019B6A98475F49837B0B71C37B4B718B
:100E6000037C08468B710A23ADF80630BAE7807818
:100E700098B9D4F8E4350DF10601DB6A98470723E9
:100E80004370AFE78B8843B9CB8833B990F8123100
:100E90008D78032B05F07F0503D12046FFF751FF26
:100EA0000BE080F81451294600F07FFE2046FFF742
:100EB0002AFF2DB1022384F81231002003B030BD87
:100EC0000123F8E78978444D01292970E5D890F885
:100ED0001231022B0DD0032BDFD1B1B9022380F8E0
:100EE000101180F81231FFF7C9FE2046FFF70BFF03
:100EF000E3E70029F9D00121032380F8101180F8DD
:100F000012312046FFF7AEFEEFE790F810110129ED
:100F1000EBD0FFF7B3FE297884F81011F1E7CA8807
:100F2000012ABAD190F81231022B04D0032BB4D18C
:100F300000F5887163E7294961E790F81231023BB7
:100F4000012BAAD80022264B1A60D0F818210AB12A
:100F500002221A600222224951E74B88012B08D154
:100F6000C4F818312946D4F8E43520469B689847E0
:100F7000BBE7022BA1D18A8812F0FF0F9DD1120A84
:100F800003690121013A5B68042A13D8DFE802F003
:100F900012030C0E1000022262F30613114A1360B2
:100FA000012384F81631A0E70322F5E70422F3E7D2
:100FB0000522F1E761F30613F0E790F81231023BE6
:100FC000012B3FF66AAF4B88012B7FF476AF0023ED
:100FD000C6E700BFEA00000028000220200002202F
:100FE0001C0002205043072038B590F81231044607
:100FF0000D46032B0DD10B79012B0AD8D0F8E4351F
:101000009B689847EB8813B92046FFF77CFE0020C9
:1010100038BDFFF796FEFAE770B50A7804468E8869
:101020000D4602F06002F3B2202A05D1D0F8E43573
:101030009B689847002070BD4A78012A1CD02AD3AB
:10104000032AF7D190F81221022A3FD0032A02D0B6
:10105000FFF777FEEEE74A8822B95E0602D019460E
:1010600000F06FFDD4F8E435294620469B68984788
:101070002046FFF748FEDDE790F81221022A25D02E
:10108000032AE5D14A88002AD4D15906F0D019465E
:1010900000F072FDE6E790F81221022A16D0032A2A
:1010A000D6D116F0800F4FF028010F4A16D003F06A
:1010B0007F0301FB030393F81E316BB1012313601F
:1010C000204602220849FFF7EEFDB3E75A06B1D0E9
:1010D000194600F036FDADE70023F0E701FB0303FE
:1010E00093F87633E9E700BF2400022090F8CC356E
:1010F0000B7090F8CD354B7090F8CF2590F8CE3529
:1011000003EB02234B8090F8D12590F8D03503EB08
:1011100002238B8090F8D32590F8D23503EB02237D
:101120009BB2CB80C0F84031012380F81131704769
:1011300010B50446802100F004FD0021204600F097
:1011400000FD2046BDE8104000F0EEBB30B588B190
:1011500005462B1A15F8014BDBB2002CF9D15B00C8
:101160000138023313800B7003234B70022310F8F5
:10117000015F05B930BD5A1CCD540233D2B2DBB287
:101180008C54F4E77047704770477047704770475A
:10119000704700000F4B1A6842F020421A609A68AC
:1011A00022F040529A609A6822F040429A609A680F
:1011B00042F070429A605A6A42F04C425A6203F519
:1011C00050531A6B42F000521A631A6D42F00052EB
:1011D0001A65704700040240034B302283F84D2308
:1011E0004FF400529A60704700E100E078235843C2
:1011F0000723B0FBF3F0002301339842FCD2704781
:101200004FF47A735843FFF7F1BF10B5C47844B96F
:1012100000EB8200033322469B10D0F8D0009342AB
:1012200001D1002010BD51F8224001320460F6E7E0
:10123000033210B59210D0F8D0300020904202D185
:1012400001EB800010BD1C6841F820400130F5E73B
:1012500001220023012930B582704FF04002C37093
:1012600082803CD10823C1720370042343704FF481
:10127000A073C380022303724FF0A04303F5006202
:1012800003F5106100F11804C3600261427803EBBA
:10129000421202F5106291422FD103F5806204469A
:1012A00003F5A061426103F58862C0F8CC2014F810
:1012B000902B03EB421505F5A065A94224D103EB61
:1012C000023203F5805100F1D00402F580529142C0
:1012D0001ED103F56063C0F80C31002030BD002939
:1012E000CCD10C23C1720370062343704FF4A0636A
:1012F000C38002230372094BC0E701F5007544F86F
:10130000041B2031A563C6E744F8041B2031D4E751
:1013100044F8041B01F58051D9E700BF00000440E8
:1013200038B5037A0546002450F80C2F012B27D13D
:10133000936B64F310439363EA68D36864F3861392
:1013400064F3965364F3514364F3D343D36000F0E2
:1013500001FBEB78012B06D1052363F34404EB6812
:1013600044F020049C60EB78012B07D1EB68052248
:101370009C6862F3440444F020049C60002038BD63
:10138000D36843F04003D36000F0E4FA4FF48033B5
:10139000EA68142064F3514364F3924364F3D34343
:1013A00064F3145343F400139363FFF729FFDAE760
:1013B000C2680020936843F0010393607047C268DD
:1013C0000020936823F0010393607047002307B562
:1013D0000193019B43F020030193019B61F38A1366
:1013E0000193019AC3681A61074BC1680A69013BFE
:1013F000019202D0019A9206F8D40320FFF7F6FE7C
:10140000002003B05DF804FB410D0300002307B585
:101410000193019B43F010030193019AC3681A6181
:10142000074BC1680A69013B019202D0019AD206BA
:10143000F8D40320FFF7DAFE002003B05DF804FBC8
:10144000410D030008B5C2680129D3686FF35D73CD
:101450006FF39E7307D143F00053D3603220FFF740
:10146000CFFE002008BD0029F7D143F08043F4E708
:10147000C3685869C04300F001007047C3685869E9
:101480009B69184070470269136861F30103136098
:101490007047000070B50026D0F80C3104461E607D
:1014A00035460269136866F3CC231360C37A53BBD5
:1014B000037A012B5BD13146FFF7E5FFE2684FF479
:1014C0000073C0F28006536263F30F06E3689E6206
:1014D0004FF4207363F30F05E368C0F27415C3F88B
:1014E00004514FF47D7363F30F05E3686FF31F45F9
:1014F000C3F80851E368C3F80C51E368C3F810510E
:10150000E368C3F8145110212046FFF75FFF20461F
:10151000FFF77CFF226900234FF0FF31FF261361A4
:101520001D4622695361226991612269D36104F1E8
:10153000180261788B4220D3002304F15402FF2665
:101540001D4661788B4228D32269136943F4807366
:101550001361E378012B05D14022184B62F3594304
:1015600022691363204600F02BF8002070BD012192
:10157000FFF789FF03691B68A0E710680133016862
:101580000029ACBF00214FF09041016052F8041BCC
:101590000D6152F8041C8E60CBE7106801330168BE
:1015A0000029ACBF00214FF09041016052F8041BAC
:1015B0000D6152F8041C8E60C3E700BF03010100F7
:1015C00010B50023C2684FF0FF3493616FF0804282
:1015D000C1684A61C1684C60C1684A610949C26812
:1015E0009161C2789A42C2684FF0000008BF102390
:1015F000916943F4701343F4605343F008030B43C1
:10160000936110BD000800800369034A9B68C3F31F
:101610004103D05C704700BFFBB1210000B50369F6
:1016200081699A680B68C2F34102032A0FD8DFE888
:1016300002F00E0E020E032262F30A030B6002692F
:101640000020536843F4807353605DF804FB6FF32C
:101650000A03F3E730B54C7800220B78012C1DD13A
:1016600000EB830504FA03F3AD6963F30F022B6803
:101670001C040DD48C6864F30A03CC78C98864F325
:10168000934361F3995343F0805343F400432B6039
:1016900003690020D9690A43DA6130BD00EB830495
:1016A000656D012404FA03F363F31F42DFE730B5ED
:1016B0004A7800250B78012A2C4610D100EB8301D3
:1016C00002FA03F3896963F30F046FF3CF350D60FA
:1016D00002690020D36923EA0403D36130BD00EB23
:1016E0008302516D012202FA03F363F31F44ECE716
:1016F00070B54E780D78012E4B6949D100EB850508
:10170000AD692A682C6963F312043BBB66F3DC44C1
:101710002C61C3780C78012B2DD100EB84030C696C
:101720009B695C61CB78012B07D103699B68DB0562
:1017300054BF42F0005242F080520B7842F0044213
:1017400000EB83039B691A60CB78012B04D18B8A51
:101750000A78C968FFF759FD002070BD8E683344D0
:10176000013BB3FBF6F363F3DC44CB78012B08BFFA
:1017700063F35E74CCE7CB78012BD3D04B69002B9D
:10178000D0D0056901236E6BA34033436B63C9E777
:1017900014358E6800EB850254682268246903BB07
:1017A00066F31204012363F3DC4400EB85056B68E8
:1017B0001C61C378012B05D10B780C6900EB830306
:1017C0005B6D5C61CB78012B03D14B79C3B142F0E7
:1017D00000520B7842F0044200EB8300436D1A6024
:1017E000BAE73344013BB3FBF6F363F3DC44C3F3E2
:1017F0000903734363F31204C3F312034B61D4E789
:1018000042F08052E5E770B54B784D69012B28D145
:1018100084692268236915B965F3060305E08E68BB
:10182000B542F9D966F306034E6143F40023236100
:10183000C378012B05D10B780D6900EB83039B69FD
:101840005D6142F004422260C37843B94B6933B111
:10185000026901230978506B8B40034353630020D6
:1018600070BD0C788E68143400EB84035B681A68D2
:101870001B69C5B966F3060300EB840443F4002337
:1018800064682361C378012B05D10B780C6900EBE8
:1018900083035B6D5C610B7842F0044200EB8300D4
:1018A000436D1A60DBE74E61E4E74B78012B0B7860
:1018B00000EB83000AD182691368002B01DA43F040
:1018C000804343F40013002013607047426D136897
:1018D000F7E74B78012B0B78C97800EB8300A1F177
:1018E00002010CBF8269426D01294FF000001368AC
:1018F0006FF3555398BF43F08053136070470369EB
:101900009869DB691840000C704700EB81014B6D52
:101910009A68036958691040704703699869DB69E0
:10192000184080B2704700001822094B62F306038A
:10193000426D1361C378012B08D1436D00F2CC5284
:101940005A61436D1A684FF080221A60704700BFD9
:101950000000086037B500230546114C01930320B1
:10196000FFF744FC2A68013C1369019314D0019BE2
:10197000002BF4DA019B43F001030193019B1361F7
:10198000074B29680A69013B019202D0019AD207EC
:10199000F8D40320FFF72AFC002003B030BD00BFBD
:1019A000410D030070B50446FFF752FC00230121EE
:1019B000657804F58E721846402684F8121184F872
:1019C0001431AB4202F128021AD3002204F55D73F0
:1019D00040201146AA4203F1280321D32046FFF7F5
:1019E000EEFC2046FFF79CFC00212046FFF72AFD75
:1019F0002046FFF74FFD2046BDE87040FFF7D8BCFA
:101A000002F8283C22F8223C013302F8271C02F895
:101A1000250C42F8206C42F81C0C42F8140CD0E75C
:101A200003F8282C23F8222C013203F8271C03F892
:101A3000251C43F8200C43F81C1C43F8141CC9E770
:101A400070B54EB201F07F042825002EB8BF05FB0B
:101A50000401E4B2A8BF05FB01014FEAD675B4BF8B
:101A600001F58E7101F55D71002EB8BFCC80022B9F
:101A7000CB7008BF00230C704D708A6008BF0B71DB
:101A8000FFF7E8FD002070BD4BB22822002B4FEA83
:101A9000D37310B501F07F04ABBF02FB010102FB61
:101AA000040101F55D7101F58E710C704B70FFF74B
:101AB000FEFD002010BD70B501F07F04282606FB56
:101AC000040506FB0401C5F88833002385F8744338
:101AD00001F55D71C5F88023C5F88C3385F8753341
:101AE000C37806FB0404012B08BFC5F8842394F8CF
:101AF00074331BB9FFF787FE002070BDFFF7F8FDB8
:101B0000FAE770B501F07F052824012604FB0501E2
:101B100004FB050401F58E71C4F82821C4F82C21BA
:101B2000002284F81D6184F81C51C4F83421C4F8E3
:101B300030311DB9FFF767FE002070BDFFF7D8FDFB
:101B4000FAE74BB22822002B4FEAD37310B501F00D
:101B50007F04AABF02FB010102FB040101F55D71D4
:101B60004FF00102B8BF01F58E718A700C704B7096
:101B7000FFF79BFE002010BD38B54BB201F07F058A
:101B800028220024002B4FEAD373B5BF02FB0501C6
:101B900002FB010101F58E7101F55D718C700D7014
:101BA0004B70FFF796FE204638BD0269002361F3B3
:101BB0000A1311680B431360704700002DE9F04FC2
:101BC00085B00446FFF754FC18B9002005B0BDE805
:101BD000F08F2046FFF752FC83460028F5D0C0F373
:101BE000074919F008000DD0204604F15405FFF70D
:101BF00086FE00278046DFF888A2B8F1000F40F08B
:101C0000FB80012019F0040F0DD020462546FFF778
:101C100084FE04F1180781464FF00008B9F1000F67
:101C200040F0328101205FFA8BF5AE0702D5E36800
:101C300002225A61BBF1000F18DAA37A3BB1D4F843
:101C40000C2113686FF341036FF3000313602269E3
:101C50002046536823F001035360894B1B689B693E
:101C60009847E3684FF0004201205A61CBF3072602
:101C700031072FD5002320468DF80F3094F812310C
:101C80008DF80F307E4B1B685B6998472369E268CB
:101C90004FF400619B685161A27AD2B1DA0718D57E
:101CA00094F81531012B14D19DF80F30032B10D16E
:101CB000D4F80C21136843F001031360D4F80C210D
:101CC000136843F0030313606E4A136943F006037D
:101CD000136101202B0708D5694B20461B68DB6880
:101CE0009847E368082201205A61EF0616D5E2689A
:101CF000936923F010039361E3681D6AC5F34343BE
:101D000005F00F08022B00F05281062B00F06A81CB
:101D1000E2680120936943F010039361F50633D51F
:101D20002269002720465368394623F00103536097
:101D3000FFF74CFB04F118023B46FF216078834219
:101D4000C0F05C81012523694FF0FF32204665F326
:101D50000F079A6165F31F472369DF610B2322692F
:101D6000536122691361226913686FF30A131360C8
:101D7000FFF7DAFDE3684FF4805220465A61404B8A
:101D80001B681B6998472846B10619D52046FFF7FE
:101D900045FCE3682046DD68FFF736FC032840F089
:101DA00034810023A3704FF40073A380092363F3ED
:101DB0008D25E3684FF400520120DD60E3685A612D
:101DC000CBF30745EA0609D52D4B20461B68DB6996
:101DD0009847E3684FF4801201205A61AB067FF503
:101DE000F5AE274B20461B681B6A9847E3684FF403
:101DF000001201205A61E9E618F0010F3BD0FBB256
:101E0000204619460193FFF780FDC307064623D5F8
:101E100001262A68019B9660E278B2420BD12A68BB
:101E20001069282202FB0742C0F31200D2F87C138B
:101E3000091AC2F88C13DAF80020194620461268F5
:101E40009047E378012B07D137B994F81131052B6E
:101E500002D12046FFF768FDB00702D502262B68A5
:101E60009E60310707D5DAF8003020469B68984716
:101E70002B6808229A6001374FEA58080435BCE6FF
:101E80003801000000ED00E019F0010F5DD023697A
:101E90005FFA88FA196904EB8A025E6B926926FA86
:101EA0000AF69268F601F6B20E431640F2071CD508
:101EB00001215A6B0126204601FA08F122EA0102AB
:101EC00051465A633B689E60534B1B685B6898475A
:101ED000E378B34209D1B8F1000F06D194F811317B
:101EE000042B02D12046FFF71FFD330702D5082639
:101EF0003B689E60F00602D510263B689E60710626
:101F000002D540263B689E60B20702D502263B6898
:101F10009E60330619D5D5F83421D5F830319B1A97
:101F2000D5F82421934228BF134603339B0801931D
:101F30003B689B699BB2019A934206D9D5F834312C
:101F4000D5F830619E4200D936B908F101084FEA50
:101F500059092835043761E6F61AD5F82431524676
:101F6000D5F828119E42204628BF1E46F31C9B0828
:101F70000193B3B2FFF749F9D5F82831D5F83021EC
:101F80003344C5F82831D5F834311E44C5F83461DE
:101F900096423B689B69CDD12069012695F81C11BA
:101FA000426B06FA01F122EA01024263C2E747F6F8
:101FB000F0732B423FF4ACAE2827C5F30A15204638
:101FC00007FB08472A46D7F88013FFF731F9D7F8FF
:101FD00080332B44C7F88033D7F88C331D44C7F8BF
:101FE0008C5395E62827082204F2CC512046FFF7AF
:101FF0001FF907FB0847C5F30A15EDE752F8040B74
:1020000001338160906B816098E60123A3704023C7
:10201000A3800523CBE600BF380100004288437847
:10202000007843EA022340EA032070470B0A01705C
:1020300043700B0C090E8370C1707047024400F8A6
:10204000011B9042FBD17047F0B5154B00251C4693
:102050002A461E68A6B10768BE4212D15F6886682C
:10206000B7420ED19F684669B7420AD1A9B904EBBD
:1020700002129389B3F5807F14BF00201020F0BDB9
:10208000012501321033092AE3D10DB10020F0BD42
:1020900002290CBF00201220F0BD1020F0BD00BFAF
:1020A00034000220F0B51C4C002307682246256846
:1020B000BD4207D166688568AE4203D1A66845690E
:1020C000AE421ED001331034092BF0D100231D0184
:1020D00056598EB954195751856865604069A68173
:1020E000A060A9B902EB03118989013189B202EB21
:1020F0000312581C9181F0BD0133092BE7D1002058
:10210000F0BD0029EED002EB031189890029F6D138
:102110004FF48071EBE700BF34000220013808283B
:102120000ED80301084AD118898921F4807080B241
:1021300008B1481E80B2D118888118B9D0507047B4
:10214000022070470020704734000220C3780BB192
:1021500002F01ABB1846704770B5436B06460D4631
:102160008B4212D0FFF7F2FF044660B92A460123E2
:1021700006F1380170780EF09DFA00281CBF4FF070
:10218000FF3501247563204670BD0024FBE7F8B5D8
:102190000446FFF7DBFF0546002842D12378032BD6
:1021A00037D12779012F34D104F1380601464FF495
:1021B00000723046FFF742FF55234122722184F816
:1021C0003632AA2384F83B2004F5087084F83732AD
:1021D000522384F81E2284F8383084F83930612381
:1021E00084F81C1284F83A3084F81F3284F81D12E7
:1021F0006169FFF71BFF216904F50970FFF716FFFE
:10220000626A3B4631460132607862630EF06DFAD5
:1022100025710022607811460EF02EFA003018BFAA
:102220000120F8BDC3690239023B99423DBF438991
:10223000006B01FB03000020704701292DE9F047E6
:1022400005460C46174677D9C369994274D203787C
:10225000022B40D0032B53D0012B6DD101EB510841
:10226000816A01EB5821FFF777FF064640BB14F067
:10227000010405F1380908F1010AC8F3080808BF8C
:10228000FBB228461FBF19F8083003F00F023B01CC
:1022900003F0F00318BF134309F808300123A96ABB
:1022A000EB7001EB5A21FFF757FF064640B9CAF31E
:1022B000080A44B1C7F30717012309F80A70EB7045
:1022C0003046BDE8F08719F80A30C7F3032723F03A
:1022D0000F031F43F0E7816A01EB1421FFF73CFF76
:1022E00006460028ECD1640005F1380304F4FF74BD
:1022F0001F551A19C7F3072701235770EB70DFE743
:10230000816A01EBD411FFF727FF06460028D7D1D9
:10231000A40005F1380327F0704704F4FE741C4450
:102320002046FFF77BFE00F0704120463943FFF75F
:102330007DFE0123EB70C3E70226C1E7F8B50D4629
:1023400007461146012D01D80220F8BD0468E36953
:102350009D42F9D22AB14FF0FF322046FFF76DFFC0
:1023600008BB2946386802F032FA064608B9002050
:10237000F8BD0128E8D0431C14D00022294620468D
:10238000FFF75BFF78B9E2696369911E8B4205D262
:1023900001336361237943F001032371964235468B
:1023A000DFD3E4E70120F8BD2DE9F0418046056860
:1023B0000F4671B92E69F6B1EB699E4228BF01261E
:1023C00034460134EB699C4218D3012E15D8002401
:1023D00009E0284602F0FBF90128044637D9431CDE
:1023E00004D14FF0FF342046BDE8F081EB699842FC
:1023F000F9D33E46E4E70126E2E702242146D8F875
:10240000000002F0E4F930B1012820D00130E8D01A
:10241000B442D6D1DBE74FF0FF3221462846FFF722
:102420000CFF90B957B9EA696B69023A2C61934283
:102430000FD32B7943F001032B71D4E722463946A1
:102440002846FFF7FAFE0028EDD00128C9D0012464
:10245000C9E7013B6B61ECE7B1F5001FF8B5064633
:102460000D4601D30220F8BDCA06FBD10468716194
:102470008268C2B92378022B01D9E36AA3B9238900
:10248000B3EB551FEED9E36AF361F369B261002B38
:10249000E8D003EB55233834C5F308050020F36179
:1024A0002C443462F8BD134667891A467F02BD4248
:1024B000114604D22046FFF7B5FEF061E5E730682B
:1024C00002F085F9431C024606D00128CAD9E36907
:1024D0009842C7D2ED1BEAE70120F8BD2DE9F0478D
:1024E000C36905460F46002B6FD0426902F12008F0
:1024F000B8F5001F69D2C8F308090468B9F1000FE4
:102500004FD101338169C36141B92389B3EB581FAE
:1025100047D800230420EB61BDE8F0876389013BC5
:1025200013EA58233DD1204602F051F9012806460E
:1025300002D80220BDE8F087421C02D10120BDE88C
:10254000F087E369984226D3002FE2D0A969284694
:10255000FFF72AFF064600283AD00128E9D0431C9D
:10256000ECD02046FFF7F2FD07460028E6D10146F1
:102570004FF4007204F138004FF0010AFFF75EFDDE
:1025800031462046FFF74EFE606363899F4210D3B9
:10259000636BDF1B6763AE6131462046FFF742FE87
:1025A000E8613834C5F8148000204C442C62BDE842
:1025B000F08784F803A0204602F0E6F80028BDD199
:1025C000636B013701336363DFE70420BDE8F08705
:1025D0000720BDE8F087024600F10B010020C3018F
:1025E00043EA500312F8010B50FA83F38A42D8B23F
:1025F000F5D170472DE9F04F002185B00546D0F8A0
:1026000000A0FFF729FF8046002840F09F804FF090
:10261000FF094FF0FF334E462B63E9695046FFF741
:102620009BFD8046002840F091802C6A2778002F7F
:1026300000F09380E27AE52F02F03F03AB7103D004
:1026400012070DD50F2B0DD04FF0FF33FF262B6354
:1026500000212846FFF742FF80460028DDD075E0C4
:102660000F2B57D195F82F305806F1D4790647D55E
:102670006A6907F0BF07637B2A6394F80D90994558
:1026800068D1E37EA67E46EA032636B2002E3FD10D
:1026900094F800800121DAF80CB008F03F0808F146
:1026A000FF334FF00D0808FB03F82D4BF25CA31825
:1026B0005878A35C43EA002331B3B8F1FE0F27D862
:1026C0001846039302F08EF908F1010202903BF8DC
:1026D0001800019202F086F90299814218D1039BF9
:1026E000019A1946904601360D2EDED123785A06FE
:1026F00003D511B13BF8183053B9013FFEB2A7E73B
:10270000BE4205D14B46B8E74FF6FF729342EAD07E
:10271000FF269DE726B92046FFF75DFF814515D0CE
:1027200095F82F30DB078FD404F10B0105F124025B
:1027300014F8013B12F8010B8C42A3EB000302D00A
:10274000002BF5D080E7002B7FF47EAF404605B02C
:10275000BDE8F08F9946FF267AE74FF00408F5E7C9
:10276000C9B221002DE9F04F90F82F4089B00546FD
:1027700014F0A00440F082800668F26832F8143049
:10278000002B54D105F124070C2205A8394601F08D
:10279000D7FF9DF81F30DB0779D540234FF00109A3
:1027A000DFF8248285F82F300B2205A93846D6F8A9
:1027B0000CA001F0C5FFB9F1050F4CD84B4607221C
:1027C00003F00F00013A00F13001392988BF00F110
:1027D000370103A81B0910444170F1D108A97E20DC
:1027E000114401F8140C9A423BD0F95C202936D1EF
:1027F0003B44072A97BF08A920218918013298BFB6
:1028000011F8141C03F8011BD91B0729F1D928461C
:10281000FFF7F0FE8246A0BB09F10109B9F1640F90
:10282000C2D14FF0070A504609B0BDE8F08F01341D
:10283000A4E7102002F0010E52080EEB430313F43C
:10284000803F18BF83EA08030138F3D131F8022F23
:10285000002AEED1B3E7AAF102014B46F6E70133B5
:10286000C1E71346C4E7804601212846FFF736FE3C
:10287000824608B3BAF1040FD3D0D4E74FF0060A6A
:10288000D1E70428CFD19DF81F3085F82F309DF86F
:102890001F3000212846D5F800909B0745BF0C3417
:1028A0000D230124B4FBF3F448BF0134FFF7D4FD3A
:1028B00082460028DED18046E9694846FFF74CFC95
:1028C00082460028D6D12B6A1B78E52B01D0002B3D
:1028D000C9D108F101084445C6D1013C56D0696907
:1028E0002846A1EB4411FFF7B7FD824600289AD194
:1028F00038464FF6FF79FFF76EFE8046E9693046AD
:10290000FFF72AFC824600288DD12B6A0F22E1B204
:10291000D6F80CC04FF00D0EDA724A1E83F80D8007
:1029200018730EFB02F286469876D87601924845D7
:102930001FBF019A3CF8120001320192214A1EF891
:1029400002A00EF1010E03F80A0003EB0A0B4FEA96
:10295000102A002808BF4846BEF10D0F8BF801A0D1
:10296000E5D1484503D0019A3CF812200AB941F05C
:1029700040011970012300212846F370FFF7AEFDD6
:10298000824600287FF44FAF013CB7D1E969304659
:10299000FFF7E2FB824600287FF445AF2022514634
:1029A000286AFFF74BFB0B223946286A01F0C8FE64
:1029B00095F82F302A6A03F0180313730123F3707C
:1029C00031E700BFC9B22100211001002DE9F0411B
:1029D000016B044605684B1C466918D1E5274FF08A
:1029E0000108E1692846FFF7B7FB60B9236A1F7049
:1029F00085F8038063699E420DD901462046FFF7A2
:102A00006DFD0028EDD0042808BF022003E0FFF789
:102A100023FD0028E2D0BDE8F0812DE9F041002639
:102A2000D0F8008005460C468E75C369002B56D041
:102A3000036B01330BD001F11607D8F80C20334695
:102A400032F8160000284CD1234400229A75002346
:102A5000A17D2E261A462F6A501CBA5C202A21D04E
:102A6000052A08BFE522092804D1E71801B9BE7577
:102A700001337E7204EB030E8EF8092089B9A2F1AE
:102A80004107192F0BD82F6A082897F80CC08CBF64
:102A9000102708271CEA070F1CBF2032D2B28EF87D
:102AA000162001330B280246D5D131B9E2189175B1
:102AB0002A6A127B002A08BF0023002223445A728C
:102AC0002B6ADB7A2372286A1C30FFF7A7FA206092
:102AD000286A1630FFF7A2FAE080000CA080BDE85B
:102AE000F081002101F060FF30B10136B6F5807F42
:102AF00002D007F8010BA0E70023A5E72DE9F74F67
:102B00000B7806468846D0F800B02F2B01D05C2BFE
:102B10000AD142461378904601322F2BFAD05C2B13
:102B2000F8D00023B36002E0DBF81830836098F837
:102B300000301F2B53D880230021304686F82F30D9
:102B400003B0BDE8F04FFFF787BC5C2856D0B4F562
:102B5000807F0BD0012101F027FF38B17F2807D8F3
:102B6000944A12F8013F1BB19842FAD10620DFE0E7
:102B700027F8020F25463AE0022D54D1B9F8023069
:102B80002E2B50D14BE0002306F1240229F81530FA
:102B90009D4294BF20212E2101330B2B02F8011BF3
:102BA000F6D144F0200486F82F403046FFF722FD8E
:102BB00096F82F30002840F0AD805A0700F1B88019
:102BC000B379DB0640F1BB8073690BF138019BF8E8
:102BD0000000C3F30803194401F0BBFDB060336883
:102BE00008F1FF3A0025D3F80C90A9F102071AF872
:102BF000010F6C1C1F280BD92F28A6D108EB04034A
:102C0000A3EB080413F8012B2F2AF9D05C2AF7D084
:102C10001F28A0448CBF00240424012DACD1B9F896
:102C200000302E2BAFD009EB45037DBB002709EB0D
:102C3000450329F81570002D98D020210B2206F1AC
:102C40002400FFF7FBF9394639F81120202A25D056
:102C50002E2A23D009B144F0030433F8022D2E2A82
:102C600001D0013DF9D14FF0000A0823574639F849
:102C700011004A1C00286BD0202803D02E280FD129
:102C800095425ED044F003041146F0E733F8022D7C
:102C9000202A01D02E2AC9D1013DC6E70131D3E750
:102CA0009A4550D295420ED10B2B05D14DE095425D
:102CB00002D044F003044BD3BF002A460B234FF04D
:102CC000080AFFB2E0E77F280FD900218DE80C0049
:102CD00001F06AFE9DE80C0018B13749084410F86D
:102CE000800C80B244F0020438B1DFF8D0E01EF866
:102CF000011F002950D08142F9D144F003045F2024
:102D000006EB0A010AF1010A81F82400BCE747F04A
:102D10000207F5E704280BD113F0200F03F004039A
:102D200009D0002B3FF45BAF8023002086F82F30C2
:102D300003B0BDE8F08F002B08BF0520F8E70520A1
:102D4000F6E79A45B0D30B2BB1D144F003040B2323
:102D500096F82420E52A04BF052286F82420082BB3
:102D600004BFBF00FFB207F00C030C2B03D007F029
:102D70000302032A01D144F00204A10709D407F099
:102D80000307012F08BF44F01004042B08BF44F0D0
:102D9000080486F82F4008E7A0F141011929B6D9A7
:102DA000A0F1610119299EBF203847F0010780B2C8
:102DB000A6E700BFFEB1210049B2210007B2210001
:102DC000F0B50468054614B323461A4613F8011BF0
:102DD0001F2929D93A29F8D12378A3F130000928ED
:102DE00018D901320023DFF854E05EF82370204642
:102DF00010F8011B17F8016BA1F1610CBCF1190F60
:102E00009CBF2039C9B296B1B142F1D053B14FF055
:102E1000FF30F0BD631C9A42E3D10128F7D801329C
:102E20002A60F0BD0123E0E7034B1878F0BD824231
:102E3000ECD118462A60F0BD29000220F4B221002E
:102E4000002310B5C3704FF0FF3304464363FFF710
:102E500083F930BB94F8372294F8363243EA0223E0
:102E60004AF6552293421ED194F83830E92B05D00A
:102E7000A36B104A03F0FF13934216D104F16E00C6
:102E8000FFF7CCF80C4B20F07F4098420FD004F1B4
:102E90008A00FFF7C3F8094B984214BF02200020B4
:102EA00010BD042010BD032010BD022010BD002065
:102EB00010BD00BFEB009000464154004641543322
:102EC00000232DE9F0430B6085B00F461546FFF750
:102ED00077FF061EC0F23F81A24B53F82640002C1C
:102EE00000F03B813C6005F0FE05237873B160780B
:102EF0000DF0BEFBC10709D4002D00F0068110F0D3
:102F0000040000D00A2005B0BDE8F0830023F0B231
:102F1000237060700DF092FBC20700F120810DB1AB
:102F20004307EFD400212046FFF78AFF022840F034
:102F3000F78004F5FF75002115F8040C10B1284640
:102F4000FFF76CF84DF82100013110350429F3D159
:102F500000255DF82560002E00F0D980314620461E
:102F6000FFF76EFF012800F2D38094F8442094F814
:102F7000433043EA0223B3F5007F40F0D58094F854
:102F80004F3094F84E5055EA032504D104F15C000B
:102F9000FFF744F8054694F84890256209F1FF339D
:102FA00084F80290012B00F2BF8094F84570BBB208
:102FB0006381002B00F0B8807B1E3B4240F0B48060
:102FC00094F84A3094F8498048EA032818F00F0F23
:102FD000A4F8088040F0A88094F84C1094F84B00B6
:102FE00050EA012003D104F15800FFF717F894F8D4
:102FF000473094F8462052EA032200F0958005FB02
:1030000009F302EB181E9E447045C0F08D80A0EBC2
:103010000E01B1FBF7F1002900F086804FF6F57044
:10302000814200F2858040F6F577B9428CBF0227D5
:1030300001270231324406EB0E00032FE161666284
:10304000A262206376D194F8632094F8623053EA48
:10305000022369D1B8F1000F66D104F16400FEF7D4
:10306000DDFFE062890001F2FF11B5EB512F5BD368
:103070004FF0FF33032F636123614FF0800323710F
:103080002FD194F8692094F8683043EA0223012B89
:1030900027D1711C2046FFF75FF810BB94F8372248
:1030A00094F83632207143EA02234AF655229342BD
:1030B00017D104F13800FEF7B1FF2B4B984210D125
:1030C00004F50770FEF7AAFF284B984209D104F5D2
:1030D0000870FEF7A3FF606104F50970FEF79EFF1C
:1030E0002061234A2770138801339BB21380E38049
:1030F000204B214AE36000231946A361985884427B
:1031000008BF99501033902BF8D10020FBE6032024
:103110000135042D7FF41DAF042805D10120F2E60E
:103120000428FBD0012801D90D20ECE600261CE77D
:1031300003277EE7B8F1000FF6D0022F4FEA4100D7
:1031400013441CBF401801F00101E3620CBF0146AB
:1031500001EB500187E70B20D5E60C20D3E60320D6
:10316000D1E600BF2C0002205252614172724161CF
:10317000C4000220C60002203400022038B50D46EB
:10318000044618B9002309202B6038BD0368002BC2
:10319000F8D01A78002AF5D0D98882889142F1D1E6
:1031A00058780DF065FA10F00100EBD123682B6020
:1031B00038BD0000F0B585B01646019004A8009116
:1031C00040F8041DFFF7FCFD051E20DB124951F8F5
:1031D00025405CB1002311481A461F58BC4208BF65
:1031E0001A501033902BF8D100232370019B0BB1A0
:1031F00000221A70019841F8250030B1012E08D143
:10320000002201A96846FFF75BFE05B0F0BD0B2068
:10321000FBE70020F9E700BF2C0002203400022069
:103220002DE9F04790B0904604460191002800F047
:10323000D28002F03F0502A901A82A46FFF740FE0E
:10324000074660BB10AE029B019946F8343D3046FC
:10325000FFF754FC58B99DF93B30002B16DB15F0F5
:103260003E0F304614BF01210021FEF7EDFE18F09D
:103270001C0F77D0B8B104280ED1002370491A0171
:1032800052582AB93046FFF76DFA05E00620EEE7FE
:103290000133092BF3D1122045F0080560B100235A
:1032A0000746236091E09DF8123013F0110F64D1AE
:1032B00018F0040F40F0BD8028073DD50BF0C0FB8F
:1032C000024601460B980E30FEF7B0FE0B981146F1
:1032D0001630FEF7ABFE0B9B2022DDF80890DA7269
:1032E000DDF82CA099F80000514601F032FA0022D6
:1032F00051468046484601F03BFA0B9B00220121D3
:103300001A775A779A77DA77029BD970B8F1000F5B
:1033100012D0029B41463046D3F83490FFF70EF8A6
:103320000028BCD149460298FEF716FF08F1FF338A
:10333000029A13610028B2D12807029B30465B6BCA
:1033400048BF45F04005636215F0FE0F0B9B14BFAC
:1033500001210021A362FEF7A5FE206100283CD1D7
:1033600002209CE700289AD19DF81230DA0662D438
:1033700018F0020FE0D0DB07DED507208FE72068CA
:1033800001F025FA0128014623D9421C5042504140
:10339000A5EB0805002848D0E16100287FF47FAF45
:1033A000C5F308038BB1DDF808804046FEF73AFF0D
:1033B0000028D5D000EB552201233146226298F82F
:1033C00001000DF077F9002837D1384610B0BDE87C
:1033D000F0870220DCE70927F7E7029EDDF82C8062
:1033E0003078414601F0B5F9A06008F11C00FEF705
:1033F00015FE0021E0604FF400722660F38804F1AE
:103400002C062575A380304661752162A161FEF707
:1034100015FEAB06D9D5E568002DD6D0029BA56177
:10342000B3F80A80A1684FEA4828A845A7D300202E
:10343000B2E7082033E7042031E701202FE700BF7F
:10344000340002202DE9F04F9B4685B000238946C9
:1034500003A90446CBF800301546FFF78FFE064659
:10346000F8B9667DEEB9237DD90740F19080E36815
:1034700004F12C0AA769DF1BAF4228BF2F4687B192
:10348000A269C2F30803002B73D1039B5B89013B44
:1034900013EA522316D142B9A06801280CD802269B
:1034A0006675304605B0BDE8F08FE169206800938D
:1034B00001F08DF9009BF0E7421C02D101266675F0
:1034C000EFE7E0610193039BE16918460093FEF783
:1034D000A9FE0028E3D0019B7D0A03EB00082AD057
:1034E000009A59190098528940789142494688BFFC
:1034F000D51A42462B460DF0DDF80028DED194F9AE
:103500001430002B0BDA206AA0EB0800854206D9A4
:103510004FF40072514609EB402001F011F96D02A1
:10352000A369A9447F1B2B44A361DBF800302B4423
:10353000CBF80030A3E7226A904518D094F91430F4
:10354000002B0BDA00980123514640780DF0CDF89E
:103550000028B3D1237D03F07F0323750398012353
:103560004246514640780DF0A5F80028A6D1C4F88F
:103570002080A1694846C1F30801C1F50075514496
:10358000BD4228BF3D462A4601F0DAF8C8E70726C3
:1035900087E72DE9F04F9B4685B00023894603A9B4
:1035A0000446CBF800301746FFF7E8FD064628BB77
:1035B000667D1EBB237D9A0740F1AB80A36904F1B1
:1035C0002C0AFB4228BFDF43A7B1A369C3F308025B
:1035D000002A40F08C80039A5289013A12EA532261
:1035E000019222D173B9A06888B901462046FEF73E
:1035F000DBFE60B9237D43F040032375304605B000
:10360000BDE8F08FE1692046FEF7CEFEF1E7012824
:1036100002D102266675F1E7431C02D101266675C8
:10362000ECE7A368E06103B9A06094F91430002BC3
:103630000CDA03980123226A514640780DF055F8C0
:103640000028EBD1237D03F07F032375039BE16901
:1036500018460093FEF7E6FD0028DAD0019B7D0AAC
:1036600003EB000831D0009B4946019A5B892A444C
:1036700000989A42407884BF019A9D1A42462B4690
:103680000DF033F80028C9D1216AA1EB08018D4261
:103690000AD94FF4007209EB4121504601F050F86D
:1036A000237D03F07F0323756D02A369A944E268BB
:1036B0007F1B2B44A3619A422CBFE260E360DBF8DE
:1036C00000302B44CBF800307EE7236A98450CD0BD
:1036D000A269E3689A4208D2009801234246514603
:1036E00040780CF0E7FF002898D1C4F82080A0694A
:1036F0004946C0F30800C0F500755044BD4228BFDC
:103700003D462A4601F01CF8237D63F07F032375B4
:10371000CBE7072672E7F7B501A90446FFF72EFDB0
:10372000054600283BD1237D5A0638D51B060CD50B
:1037300001980123226A04F12C0140780CF0D5FF96
:1037400080BB237D03F07F0323750BF079F9616A59
:1037500007460198FEF700FD054600BBA66AF37A0E
:10376000314643F02003F372A268206801F000F8AC
:10377000E16806F11C00FEF759FC394606F1160017
:10378000FEF754FC019B0122B574F574DA700198C0
:10379000FEF7FDFC237D054623F0400323752846F4
:1037A00003B0F0BD0125FAE713B50446FFF7B3FFF8
:1037B00048B901A92046FFF7E1FC20B92069FEF7CE
:1037C000ADFC00B9206002B010BD30B591B0002250
:1037D000019002A901A8FFF773FB044678B910A86D
:1037E000029B019940F8343DFFF788F90446A0B9DF
:1037F0009DF93B30002B05DA059A029B9A61204621
:1038000011B030BD9DF81230DB060AD5029D0B9930
:10381000287800F09EFFA861F1E7042808BF05247E
:10382000EDE70524EBE70000F0B50022D7B00E4627
:10383000019002A9027001A8FFF742FBD0B9029BD8
:10384000354603939B690593059FAFB93C46019BA1
:103850006CB9384AB542127802F130021A704FF052
:103860003A025A705CD12F22033303F8012C002254
:1038700020461A7057B0F0BD202103A8FEF7ECFDDA
:1038800004460028E3D10A990298FEF765FC044635
:103890000028DCD1029B0B99187800F05AFF2146D2
:1038A000059003A8FEF7D8FD04460028CFD103A851
:1038B00000F0E8FF044618BB029B0B99187800F053
:1038C00048FF874215D110A903A8FFF7A6F810AB4F
:1038D00023449B7DC3B9E31C9D421FD3291B2B4668
:1038E000601B8B4212D1E443019B2F2225445A5581
:1038F000AAE7214603A8FEF7F1FD04460028D6D02A
:10390000042C08BF0224A2E70134E0E7013B10AF1A
:10391000C2183A44977D019AD754E2E7112496E7FA
:103920000233019A525D0135AE4203F8012BF8D8FB
:103930009DE700BF290002202DE9F7430D4601A9AC
:103940000446FFF71BFC0646002870D1667D002E5A
:103950006DD1E368AB4204D2227D12F0020F08BFA2
:103960001D460022A369A261002D2FD12F4609E038
:103970000027E368A5699D4281BF237DE56043F090
:1039800040032375C5F30805002D50D0226ABA42C2
:103990004DD094F9143004F12C05002B0BDA01986A
:1039A0000123294640780CF0A0FE002845D1237D54
:1039B00003F07F032375019801233A462946407896
:1039C0000CF078FE002838D1276230E0019A578940
:1039D0007F0213B3013B6A1EB3FBF7F1B2FBF7F2B0
:1039E0008A421AD37A42E1691340ED1AA361002991
:1039F000BED0DFF890804AF6AA29BD4223D8A36939
:103A00002B44A361C5F30803002BB1D00198FEF746
:103A100009FC50B100EB5527ABE7A16889B92046F6
:103A2000FEF7C2FC0128014605D102266675304624
:103A300003B0BDE8F083013002D101266675F6E7D8
:103A4000A160E161D3E7A369ED1B3B44A361C8F822
:103A50000090237D9A0706D52046FEF7A5FC014677
:103A600028B90546CBE7206800F0B1FE01464B1CA3
:103A7000E3D00129D9D9019BDB699942D5D2E16113
:103A8000BBE700BF0030004030B585B0054601916E
:103A900000283BD0002203A901A8FFF711FA044631
:103AA00000BB039B284601992B60FFF727F80446CB
:103AB000A8B995F92F30002B08DBAB79DB0621D5AF
:103AC000039B296A187800F044FEA860039B00213C
:103AD0002846DB88AB80FEF7BFFC044628B1042CE7
:103AE00008BF052400232B6007E0AB6843B12146E3
:103AF0002846FEF7D7FA286130B1204605B030BD20
:103B00002C61FAE70524EDE71224EBE70924F4E73A
:103B100037B501A90546FFF731FB044618B92869F6
:103B200020B900232B60204603B030BDFEF7F6FA23
:103B30000028F6D00446F6E773B50D4601A9044601
:103B4000FFF71CFB20B92DB901462046FEF784FC87
:103B500002B070BD204600F095FE10F0FB06F7D1D4
:103B600029462046FEF759FF31462046FEF7B6FCAF
:103B7000042808BF0020EBE730B591B00D460022C5
:103B8000019003A901A8FFF79BF9044670B90199B8
:103B900003A8FEF7B3FF044640B99DF93B30002B64
:103BA00007DB1DB1294603A8FEF737FF204611B0F9
:103BB00030BD0624FAE72DE9F04385B08946164664
:103BC0000022019003A901A8FFF77AF9054650B930
:103BD000039C3460D4F81C806369A8F1020293420C
:103BE00005D8C9F80030284605B0BDE8F083237831
:103BF000012B19D1022706463946204600F0E7FD81
:103C0000431C3BD001283BD000B90136039B013750
:103C1000DB699F42F0D3039BC9F800601A795E61AB
:103C200042F001021A71DEE7A16A07460446064621
:103C30004FB903984F1CFEF78FFA18BB039C394607
:103C40004FF400773834039B1B78022B0BD162783A
:103C5000023F2378023453EA022308BF0136B8F149
:103C60000108E5D1D7E72046043FFEF7D7F930F049
:103C7000704304F1040408BF0136F0E70125CAE7E8
:103C80000225C8E70546C6E773B501A90446FFF754
:103C900075FA054638BB657D2DBB237D990738D560
:103CA000A369E2689A421ED903BB2A46A16820464E
:103CB000FEF744FB0646A560A369E360237D43F05D
:103CC0004003237546BB1B060DD501980123226ACC
:103CD00004F12C0140780CF008FDE0B9237D354655
:103CE00003F07F032375284602B070BDE1692068A8
:103CF00000F06DFD421C014609D001280FD10226BB
:103D0000DAE7E2692046FEF719FB0646D4E701260A
:103D1000D2E70725E7E7012666753546E3E7019B0D
:103D2000DB699842EDD32E46C6E7F0B59FB002227C
:103D3000019003A901A8FFF7C3F8039B044604936D
:103D4000B0B9019904A8FEF7D9FE044680B99DF8E0
:103D50003F50A80618D4022104A8FEF775F90446BE
:103D600030B9290610D49DF81670FA070ED507242D
:103D700020461FB0F0BD0246294604A8FEF7DEFA31
:103D800004460028F4D125E00624F1E7039E0C99AF
:103D9000307800F0DEFCFB06054613D5B3699D4282
:103DA000E5D0214611A811961395FEF755FB044660
:103DB0000028DDD111A800F065FD04460028D6D00A
:103DC0000428D5D104A8FEF701FE04460028CFD16F
:103DD000002DD0D10398FEF7DAF90446C8E72DE9A3
:103DE000F04790B00222019002A901A8FFF768F8FD
:103DF000029B04460393002840F09C80019903A88D
:103E0000FEF77CFE0446002800F09880042840F06D
:103E100091809DF83B1011F0200140F0918003A8A3
:103E2000FEF7C2FA029A054653895B020693002800
:103E300058D0012D54D06B1C40F0848001240AF02E
:103E4000FFFD8046002C45D1029E29464FF02E0AE8
:103E500006F138073046FEF7E5F921464FF40072C7
:103E60008146384606F15804FEF7E8F80B22202177
:103E70003846FEF7E3F81023414606F14E0086F877
:103E8000433086F838A0FEF7D1F82A463946029822
:103E900000F06EFC20222046394600F051FC0298CA
:103EA00086F859A00378059A032B03D1C36A9A4276
:103EB00008BF002221464FF0010A00F059FC029B86
:103EC0005E89B144A9EB060276B903A8FEF74AFC65
:103ED0000446D8B10022294603A8FEF72FFA29E0AC
:103EE0000224ACE70724AAE7029B83F803A05A63E5
:103EF0000298FEF72BF904460028EBD101464FF457
:103F000000723846013EFEF799F8DBE70B9C41460C
:103F100004F11600FEF78AF821462A46029800F0BE
:103F200027FC10230122E372029BDA700298FEF74D
:103F30002EF90446204610B0BDE8F0870824F9E7C2
:103F40000624F7E71046FEF701F9044677E7F0B5D7
:103F5000A5B0019024A840F8901DFEF731FF022281
:103F600003A901A8FEF7ACFF00286ED124AC039B87
:103F7000019944F8683D2046FEF7C0FD002864D151
:103F80009DF8573013F0A00F61D102212046FEF7B3
:103F90005BF8002859D11299152204A80B3100F0C2
:103FA000CFFB214617A8342200F0CAFB009917A8BE
:103FB000FEF7A4FD48B90C9B199A9A4203D10F9BB6
:103FC0001C9A9A4203D008203FE004283DD117A84C
:103FD000FEF7C8FB002838D11F9D13220DF11201F6
:103FE000012705F10D0000F0ABFB9DF8103043F008
:103FF0002003EB72039BDF70EB7ADB061ED5199B67
:104000000C9A9A421AD0039E2946307800F0A1FB00
:1040100001463046FEF706F90146D0B13046FEF7BC
:104020009BF890B9039890F859302E2B06D1199A25
:1040300000F1580100F09CFB039BDF702046FEF767
:10404000C5FC10B90398FEF7A2F825B0F0BD062014
:10405000FBE70220F9E730B591B00D461446022285
:10406000019002A901A8FEF72BFF029B039350B910
:10407000019903A8FEF742FD28B99DF83B3013F0E3
:10408000A00F02D0062011B030BD0B9AD37A5D404C
:104090002C4004F027045C40029BD4720122DA70A9
:1040A0000298FEF774F8EEE72DE9F04F85B08A46E6
:1040B0000646934603A9FFF761F8054628B9757DC2
:1040C0001DB9BAF1000F04D10725284605B0BDE897
:1040D000F08FF368002BF7D1337D9A07F4D5039A5C
:1040E000538917695B025C1EBAFBF3F304EA0A0406
:1040F000002C0CBF1C465C1C012F28D9D3699F42A1
:1041000028BF0227B946B84600234AF6AA220193DF
:1041100041462C4B08F101081A603068009200F00B
:1041200056FB0399C969884528BF4FF0020801284A
:1041300042D0431C42D0009A58B9019B01339C42A3
:1041400009D1BBF1000F34D04F46A04615E002273D
:10415000D8E7C1460023B845D9D1B5E7B8F1010F7A
:104160000398394614BF7A1C4FF0FF32FEF765F80A
:1041700030BB384608F1FF380137B8F1000FEDD1F8
:10418000039B1861BBF1000F9FD0327DC6F80890E9
:1041900042F04002C6F80CA03275D9695A6902395A
:1041A0008A4292D2141B1A7942F001025C611A71A0
:1041B0008BE709F1FF30E3E7022586E7012584E775
:1041C000054682E7003000402DE9F04F8DB00D46E6
:1041D00016461C460CAF47F80C0D3846FEF7F0FDAE
:1041E0000028C0F29B82BA4B53F820300BB100225A
:1041F0001A70C3B2184600930CF020FAC30700F1FE
:104200008F82470700F18E820AAA032100980CF0E2
:1042100033FA30B90A9A531EB3F5004F01D21A424D
:1042200001D001230A9346B1A6F50072A94B9A4228
:1042300003D913200DB0BDE8F08F731E3342F8D1BF
:10424000169B23F4FF7323F0010303930BB90E2095
:10425000F0E70BAA012100980CF00EFA002840F0BC
:10426000348115F0080302930CBF4FF03F0B4FF061
:10427000000B0B9B9B45EAD8A3EB0B037F2B0B9307
:10428000E5D9720A802AD4D815F00201049105D02C
:1042900005F00701022959D0E80757D5E907C8D525
:1042A0000227190B40F6F57C4FF6F57E0691590C66
:1042B00005910A99481E494208900791032F4BD156
:1042C000002A47D18448012630F8021F11B1059D0C
:1042D0008D423DD2B3FBF6F18D00A1F57F417F48C1
:1042E000F63905F2072581424FEA5525AFD800215E
:1042F0004FF0200A019101990AEB0B08032F05EBFF
:104300000100089900EB08090798494401EA0001F7
:10431000A1EB090106BF8A4488446D18CBEB061156
:1043200009EB0100834292D3A3EB0A090199032F01
:10433000A9EB0509A9EB0109B9FBF6F931D1F14562
:104340004FD8002A83D1760881D038E00327A8E728
:104350007600B9E71646BDE70ABB6148012630F88A
:10436000021F11B1069D8D4217D2B3FBF6F56545CC
:104370004FF020014FF0010A93BF05EB45050235D0
:104380000227012794BF01356D0001919CBF6D0884
:10439000033505F2FF156D0AADE77600DFE7164637
:1043A000E3E7022F17D1F1450BD9002A40F0BC8179
:1043B0007600402E03D9049949B1164603273246A8
:1043C0007CE7E1450DD8002A7FF441AF7600802ECE
:1043D0003FF63DAFF3E740F6F57399453FF637AF4B
:1043E00001274FF4007200212046FDF727FE0B2223
:1043F0003C49204600F0A4F900230222032F0B9928
:10440000E37222734FF0010284F80EA0CAF3072A68
:10441000637418BF0223B1F5803F667384F80FA060
:104420002274A37462D2E174C1F307212175F823C9
:104430004FF0000A594604F11C0063753F2384F8CD
:1044400019A02376FF2384F81BA0A376FDF7EEFDC9
:10445000032F50D10AF0F4FA014604F14300FDF7AE
:10446000E5FD294604F12400FDF7E0FD022384F870
:104470002DA0132284F82C30012384F82EA004F1FF
:10448000470084F83030062384F82FA084F83230B7
:10449000802384F831A084F84030292384F833A0A5
:1044A00084F84230104900F04BF94FF055035A465A
:1044B0002146009884F8FE316FF0550384F8FF31EF
:1044C00001230CF012F9824668B30120B2E600BF66
:1044D0002C00022000FEFF00E2B22100FFFFFE0FD1
:1044E000D4B221000FB221001BB2210004F1200040
:1044F000FDF79CFD9BE70AF0A3FA014604F12700B3
:10450000FDF794FDC5F30723A5751322E3758023FA
:10451000884904F12B0084F82430292384F82630BC
:1045200000F00EF9C1E7032F41D101230BF1060280
:10453000214600980CF0D9F84FF4007251462046FD
:10454000FDF77CFD522341227221237004F5F470A3
:1045500063706123E270A37084F8E41184F8E511BC
:1045600009F1FF3184F8E62184F8E731FDF75EFDBB
:1045700002230BF10702214684F8EC314FF055037A
:1045800084F8EDA184F8FE316FF0550384F8EEA1B4
:1045900084F8FF31012384F8EFA100980CF0A5F80E
:1045A0000123214600980BEB03020CF09EF8039ABE
:1045B00000212046FDF742FD4AF6AA225E4B032F5A
:1045C0001A6062D1F8232370FF236370A370E37035
:1045D00023716371A371E37123726372A3720F235A
:1045E000E372169B4FEA532A5545A9462146424697
:1045F00028BFD14600984B460CF077F801460028BA
:104600007FF463AF4FF400722046FDF717FDC844F6
:104610006422A5EB0905B8FBF2F302FB138333B95F
:104620004AF6AA23444A2E201360FCF5B3FB002D62
:10463000DAD1019B032F08BF33460193019B424609
:1046400021460098534528BF53461D460CF04DF8AF
:1046500000287FF43AAF019BA8445B1B0193EDD186
:10466000032F1BD00B9BB3F5803F19D2022F14BF31
:1046700001230423029AAAB10022009811460BF0EC
:10468000FBFF003018BF0120D4E5012F2B49204645
:1046900018BF6FF00701FDF7C9FCA2E70C23E9E79B
:1046A0000623E7E74FF40072029920460125FDF743
:1046B000C5FC552284F8C23143F6C16384F8FE215B
:1046C000AA22594604F5E37084F8FF219DF80820DA
:1046D00084F8BF5184F8BE2184F8C1210B9A84F874
:1046E000C0515A44B2FBF3F2FE2384F8C52184F88A
:1046F000C331930843F03F0384F8C431FDF796FCBF
:104700000B9904F5E570FDF791FC2B46029A2146C2
:1047100000980BF0EAFF0028AED0D6E60B2089E522
:10472000032087E50A2085E5049900297FF445AE3A
:104730008DE500BF2FB2210000300040F8FFFF00E0
:1047400001380A4411F8013B914200F8013FF9D1C8
:1047500070470328CA7E8B7E08BF487D43EA022348
:1047600002BF0A7D42EA002243EA0243184670472C
:10477000C2F307238A76CB760378032B01BF120C92
:104780000A75120A4A757047F8B500F13807456B8B
:10479000044601232A46394640780BF0A6FFA0B90B
:1047A000A36A226AEB1AE070934201D30020F8BD9D
:1047B000A678012EFAD9236A39466078013E1D4455
:1047C00001232A460BF091FFF3E70120F8BD0129F0
:1047D000F8B505460C4652D9C36999424FD20378C1
:1047E000022B29D0032B38D0012B48D101EB5106E5
:1047F000816A01EB5621FDF7AFFC10B14FF0FF309D
:10480000F8BD771CC6F30806A96A28462E4401EBBA
:10481000572196F83860FDF79FFC0028EED1C7F3CA
:104820000807E3073D4495F8380046EA00204CBFEE
:104830000009C0F30B00F8BD816A01EB1421FDF7FC
:104840008BFC0028DAD16400383504F4FF742B198E
:10485000285D5B7840EA0320F8BD816A01EBD41142
:10486000FDF77AFC0028C9D1A40005F1380004F452
:10487000FE742044FDF7D2FB20F07040F8BD01200B
:10488000F8BD00002DE9F84FFF25814606684FF07E
:10489000040A2C46434F4FF6FF78D9F81C1019B97B
:1048A000BAF1000F71D064E03046FDF755FC824646
:1048B00000285ED1D9F820000378002B6FD0C27A8F
:1048C000E52B02F03F0289F806204AD02E2B48D073
:1048D00022F02001082944D00F2A51D15A063ED592
:1048E00003F0BF04D9F81430457BC9F83030437B5E
:1048F000AB4236D1C27E837E43EA02231BB283BB26
:1049000002784FF00D0EF1684FF0010C02F03F02FB
:10491000013A0EFB02FE13F807A000EB0A0292F820
:1049200001B010F80A2042EA0B22BCF1000F24D09B
:10493000BEF1FE0F15D821F81E2094460EF1010E8F
:1049400001330D2BE7D103785B0605D5BEF1FE0FD1
:1049500007D8002321F81E30013CE4B202E0A34254
:10496000C5D0FF2400214846FDF7B8FD8246002847
:1049700093D00023C9F81C3009E04245E0D0F0E7AD
:1049800044B9FDF728FEA84204D14FF0000A504672
:10499000BDE8F88F4FF0FF33C9F83030F7E74FF03C
:1049A000040AE6E7C9B221007F2810B516D931B153
:1049B000FF2812D80A4B803833F8100010BD084A7F
:1049C00032F811408BB2844203D001318029F7D1F3
:1049D0000B4603F18000C0B210BD002010BD00BF27
:1049E000FCB221001E4A1F4BB0F5805F28BF134662
:1049F00070B5191D31F8043C0A4683B398422ED392
:104A000031F8024C250AE4B2E618B04221DA082D4A
:104A100025D8DFE805F005090F11131517191B003C
:104A2000C01A31F8100070BDC31A03F00103C01A98
:104A300080B270BD1038FBE72038F9E73038F7E76F
:104A40001A38F5E70830F3E75038F1E7A0F5E350FE
:104A5000EEE70431002DCDD102EB4403C9E770BD70
:104A6000EEB52100FCB32100BFF34F8F0549064B83
:104A7000CA6802F4E0621343CB60BFF34F8F00BFFC
:104A8000FDE700BF00ED00E00400FA0538B54FF483
:104A90008052002131480CF0A2FE0D2230493148ED
:104AA0000DF031F8304B38B9012530492B481D70D5
:104AB0000DF007F8284638BD1B7853BB00F05EFFA9
:104AC00050BB01F07DFC38BB04F0C2FB054618BBAF
:104AD000274CE368990326D4E3685A0102D502F013
:104AE00043FDC8B9E3685B0302D502F00BFA98B93D
:104AF000E368180302D502F08FFC68B9E368D903B4
:104B000016D4E3689A0123D41A4914480CF0D9FF4B
:104B1000D0E700F031F808B10125CBE700F06CFBDD
:104B20000028CBD0F8E702F0BFF90028D4D0F3E793
:104B3000DB0208D402F048FF0028EDD103F0F8FEB4
:104B40000028DED0E8E704F0DDFC0028F2D0E3E73F
:104B500003F06EFE0028D7D0DEE700BF181F052047
:104B6000AAB62100301E05205B340520B8B621000E
:104B700054430720DFB62100F0B50B228BB09B49D0
:104B80009B480CF0C0FFB8B902ADFF23435501307C
:104B90002028FBD100242146203420222846A4B21C
:104BA00006F0D2FFB4F5005FF5D1924992480CF0BF
:104BB00088FF01200BB0F0BD102290498C480CF00A
:104BC000A2FFA0B902ACFF23035501302028FBD17E
:104BD0002523019301993629E7D84901202220464F
:104BE00089B206F0B1FF019B01330193F2E7052280
:104BF00083497F480CF087FF044690B9814A824977
:104C00007B480CF0ADFE002804DD102221467D48D3
:104C100006F09AFF7B4A7D4977480CF07DFE012023
:104C2000C8E707227A4972480CF06DFF90B9794ABB
:104C300079496F480CF094FE002804DD2022754865
:104C4000114606F081FF734A70496B480CF064FE10
:104C50000120AFE70622714965480CF054FF90B976
:104C60006F4A694962480CF07BFE002804DD10227F
:104C700040216B4806F068FF694A64495E480CF0C1
:104C80004BFE012096E70422664959480CF03BFF91
:104C900020BB02AA644956480CF062FE0028634C0F
:104CA00013DD40F6C413BDF80820E1684FF490709E
:104CB0009A424FEA114188BFADF808300904BDF8A7
:104CC00008301943E16006F02DFEE2685849C2F34E
:104CD0000B0249480CF020FE01206BE707225549E2
:104CE00043480CF010FF0546C0B901AA524940489C
:104CF0000CF036FE00284D4C09DD019B4FF48C6012
:104D0000642B88BF01950199A16506F00BFEA26D89
:104D1000474939480CF000FE01204BE7052247497E
:104D200033480CF0F0FE002835D102AA444930483F
:104D30000CF016FE002824DD424B1B78012B05D118
:104D400041492D480CF0BDFE012033E79DF80830A5
:104D5000364C8BB1E36843F48003E360E1684FF4C1
:104D6000907006F0DFFDE2683849C2F380522248B5
:104D70000CF0D2FD01201DE7E36823F48003E3601B
:104D8000ECE72A4B3249DA681B48C2F380520CF038
:104D9000C3FD01200EE705222E4915480CF0B3FE95
:104DA000224C00285AD102AA254911480CF0D8FDFE
:104DB00000280DDD9DF808309BB1E36823F00073F7
:104DC00043F48033E360E1684FF4907006F0AAFD8D
:104DD000E289214902F0010207480CF09DFD012003
:104DE000E8E6E36823F48033E360ECE7F1B6210002
:104DF000301E0520FDB62100181F052004B7210034
:104E000015B72100014207201BB7210031B721004F
:104E100036B72100744106203EB7210054B7210067
:104E2000181E05205BB7210060B7210054430720FE
:104E300075B721007AB7210082B7210096B721000B
:104E40009CB7210021150520B2B72100FCB7210035
:104E500013B8210018B821001EB821000A22A04969
:104E6000A0480CF050FE10BB02AA9F499D480CF0D0
:104E700077FD00280DDD9DF808309BB1E36823F431
:104E8000803343F00073E360E1684FF4907006F004
:104E900049FDE2689549C2F3406295480CF03CFD3B
:104EA000012087E6E36823F00073E360ECE7E36842
:104EB000DB0326D506228F498A480CF024FE00BB6E
:104EC00002AA894987480CF04BFD00280BDD9DF8AC
:104ED00008308BB1E36843F48013E360E1684FF47A
:104EE000907006F01FFDE2688349C2F300528048CB
:104EF0000CF012FD01205DE6E36823F48013E3600B
:104F0000ECE709227D4977480CF0FDFD38BB02AA89
:104F1000754974480CF024FD002812DD9DF8083016
:104F2000C3B1E36843F40033E3604FF49070E16889
:104F300006F0F8FCE06810F4003018BF01200AF019
:104F4000D3FDE2686E49C2F3404269480CF0E4FCCC
:104F500001202FE6E36823F40033E360E5E70C2249
:104F6000684960480CF0CFFD002846D102AA5E498E
:104F70005C480CF0F5FC002820DD9DF8083003F0BB
:104F8000FD02012A01D00A2B00D1A383A18B4FF48B
:104F9000906006F04FFC5C4B1A78A38BDAB1032BC0
:104FA0005A4A12D00A2B13D0012B01D103231370BC
:104FB0001378574A03EB43039B001360A28B5549B8
:104FC0004B480CF0A9FC0120F4E50A231370EFE72D
:104FD00021231370ECE7032B07D00A2B09D0012BF8
:104FE000ECD10222494B1A70E8E70622474B1A70AF
:104FF000E4E71422454B1A70E0E707224649394896
:105000000CF081FD00BB02AA374936480CF0A8FC21
:1050100000280BDD9DF808308BB1E36843F40023D2
:10502000E360E1684FF4907006F07CFCE2683B4975
:10503000C2F3C0422E480CF06FFC0120BAE5E368D1
:1050400023F40023E360ECE70522354925480CF002
:105050005AFD00BB02AA244922480CF081FC00281A
:105060000BDD9DF808308BB1E36843F08063E360AB
:10507000E1684FF4907006F055FCE2682949C2F3EC
:1050800080621B480CF048FC012093E5E36823F0A4
:105090008063E360ECE70522234912480CF033FDFE
:1050A000002840F09C8002AA0F490E480CF058FCE2
:1050B00000280CDD9DF8080000283DD0E36843F48B
:1050C0008023E360E1684FF4907006F02BFCE26807
:1050D0001649C2F3804206480CF01EFC012069E527
:1050E0002BB82100301E05209CB7210036B82100C6
:1050F000181F052048B821004FB821005DB82100D5
:1051000067B8210078B821005D340520B01505206E
:105110000C1E052085B8210099B82100A1B82100F6
:10512000B0B82100B6B82100C3B82100C9B8210029
:105130000000804400C07F44E3884FF48065228BE8
:1051400001331FED057A5FED056A9B02A188254FAB
:1051500089022583B3FBF2F3013BE3809BB207EEA8
:10516000903AF8EE677AB1FBF2F167EE877AA180A8
:105170001D4A89B287EEA67A116005224E19F7EE14
:10518000007A91FBF2F21949C2EB4602184E7A629C
:1051900072624A6277EE677A38603060086017EEB4
:1051A000900A15F0BBF941EC100B13F049FF51ECDC
:1051B000100B15F0DFFC0F4B294618604FF4C07040
:1051C00006F038FBA188A02006F034FBE188C0205F
:1051D00006F030FBE36823F48023E36072E70020ED
:1051E000E8E400BF00200140A81D05200022014086
:1051F000002101401C410520F0B5B6490522B64802
:105200002DED028BA5B00CF07EFC014600283DD1AF
:10521000802204A80CF0E3FA04AAB049AE480CF0CE
:105220009FFB0028AE4C20DD04A80CF07FFA51EC67
:10523000100B15F0BFFCDFEDAB7A00EE100AB4EEF8
:10524000E70AF1EE10FA1EDCDFEDA77AB4EE670A8A
:10525000DFEDA67AF1EE10FA48BFB0EE670A4FF420
:10526000946084ED170A06F0E5FBE06D15F056F941
:1052700002460B469E489F490CF04EFB012025B08C
:10528000BDEC028BF0BD9FED990AE8E79A49052233
:1052900091480CF038FC014600283AD1802204A83D
:1052A0000CF09DFA04AA8D498B480CF059FB00289C
:1052B0008B4C20DD04A80CF039FA51EC100B15F0E2
:1052C00079FCDFED887A00EE100AB4EEE70AF1EE21
:1052D00010FA1BDCDFED847AB4EE670ADFED837A27
:1052E000F1EE10FA48BFB0EE670A4FF4986084ED13
:1052F000180A06F09FFB206E15F010F902460B46C7
:105300007B487E490CF008FB0120B8E79FED770A47
:10531000EBE77B49052270480CF0F5FB01460028BD
:105320003AD1802204A80CF05AFA04AA6B496A48C0
:105330000CF016FB00286A4C20DD04A80CF0F6F9EE
:1053400051EC100B15F036FCDFED667A00EE100A1A
:10535000B4EEE70AF1EE10FA1BDCDFED637AB4EE8F
:10536000670AF7EE007AF1EE10FA48BFB0EE670A6E
:105370004FF49C6084ED190A06F05CFB606E15F03A
:10538000CDF802460B465A485E490CF0C5FA01209A
:1053900075E7B7EE000AEBE75B4905224E480CF0D3
:1053A000B2FB0146002838D1802204A80CF017FA7D
:1053B00004AA4A4948480CF0D3FA0028484C1EDD9C
:1053C00004A80CF0B3F951EC100B15F0F3FBDFED72
:1053D0004F7A00EE100AB4EEE70AF1EE10FA19DC8B
:1053E000B5EE400AF7EE007AF1EE10FA48BFB0EEE3
:1053F000670A4FF4A06084ED1A0A06F01BFBA06E4A
:1054000015F08CF802460B46394841490CF084FAF5
:10541000012034E7B7EE000AEBE70E223D492E48A3
:105420000CF071FBF0B92E4C4FF4B86094ED170AF4
:1054300006F000FB94ED180A4FF4BC6006F0FAFA8F
:1054400094ED190A4FF4C06006F0F4FA94ED1A0ACC
:105450004FF4C46006F0EEFA2F4925480CF031FBFA
:1054600001200CE70F222D491B480CF04CFB0028B3
:1054700056D11B4C4FF4B86006F01CFB4FF4BC60D7
:1054800084ED170A06F016FB4FF4C06084ED180A8D
:1054900006F010FB4FF4C46084ED190A06F00AFB15
:1054A0004FF4946084ED1A0A94ED170A06F0C2FADC
:1054B00094ED180A4FF4986006F0BCFA94ED190ABE
:1054C0004FF49C6006F0B6FA94ED1A0A4FF4A0600F
:1054D000C0E700BFD6B82100301E0520DCB821008F
:1054E0005443072000007A4400007AC40000000002
:1054F000181F0520F0B82100FDB8210003B92100D4
:1055000010B9210016B9210023B921000000CC41B7
:1055100029B9210036B9210045B9210051B921002E
:105520000422AB49AB480CF0EEFA002858D124AA6B
:105530000323A94942F8803DA6480CF011FA00283F
:1055400037DD049BA54C012BC4BF01230493049BAE
:10555000C3B34FF4B86006F0ADFA4FF4BC6084ED0D
:10556000170A06F0A7FA4FF4C06084ED180A06F097
:10557000A1FA4FF4C46084ED190A06F09BFA84ED99
:105580001A0A94ED170A4FF4946006F053FA94ED5A
:10559000180A4FF4986006F04DFA94ED190A4FF48A
:1055A0009C6006F047FA94ED1A0A4FF4A06006F0EA
:1055B00041FA049A012A0DDD89498A480CF081FAE2
:1055C00001205CE60023E36523664FF07E536366AB
:1055D000A366D6E7844983480CF09EF901204EE685
:1055E000082282497B480CF08EFA0446002840F0DD
:1055F0009D800146802204A80CF0F1F84FF48052FF
:10560000214678480CF0EBF84FF4946006F052FA1B
:1056100010EE104A4FF4B86006F04CFA20468DEDBB
:10562000030A14F07BFF9DED030A04460D4610EEBD
:10563000100A14F073FF22462B46CDE900016C4995
:1056400004A80CF069F904A966480CF02BFA4FF491
:10565000986006F02FFA10EE104A4FF4BC6006F086
:1056600029FA20468DED030A14F058FF9DED030A38
:1056700004460D4610EE100A14F050FF22462B4649
:10568000CDE900015B4904A80CF046F904A955488E
:105690000CF008FA4FF49C6006F00CFA10EE104A79
:1056A0004FF4C06006F006FA20468DED030A14F0B0
:1056B00035FF9DED030A04460D4610EE100A14F066
:1056C0002DFF22462B46CDE900014B4904A80CF0E2
:1056D00023F904A943480CF0E5F94FF4A06006F063
:1056E000E9F910EE104A4FF4C46006F0E3F92046E1
:1056F0008DED030A14F012FF9DED030A04460D46DA
:1057000010EE100A14F00AFF22462B46CDE90001E4
:105710003A4904A80CF000F904A932480CF0C2F987
:10572000374930480CF0BEF90120A8E5354905227B
:1057300028480CF0E8F9014600286BD1802204A823
:105740000CF04DF804AA304922480CF009F9002861
:10575000224C2ADD04A80BF0E9FF51EC100B15F0E8
:1057600029FA08EE100A14F0D9FE4FF03332274B15
:1057700006460F4615F0B6F910BB3046394612A35F
:10578000D3E9002315F090F9F7EE007A002818BF4E
:10579000B0EE678A4FF4E860B0EE480A84ED1E8AE6
:1057A00006F048F920890AF0D3F8A06F14F0B6FE8D
:1057B00002460B460B4816490CF0AEF801205EE598
:1057C000B7EE008AE6E700BF9A9999999999E93F5F
:1057D00061B92100301E052082B721005443072003
:1057E00066B92100181F052013B821006CB92100EB
:1057F00075B9210093B92100B1B92100CFB92100B9
:10580000EDB92100F0B92100DCB821003333F33FBA
:10581000F6B921000722504950480CF074F90028CD
:1058200045D18022002104A84D4C0BF0D8FF04AADA
:105830004C494A480CF094F800282ADD04A80BF0E3
:1058400075FF51EC100B15F0B5F908EE100A14F0C5
:1058500065FE4FF03332444B06460F4615F042F9D1
:1058600010BB304639463AA3D3E9002315F01CF9A2
:10587000F7EE007A002818BFB0EE678A4FF4EC60AC
:10588000B0EE480A84ED1F8A06F0D4F820890AF0A9
:105890005FF8E06F14F042FE02460B46334834498D
:1058A0000CF03AF80120EAE4B7EE008AE6E7314965
:1058B00005222A480CF027F90146002845D180220C
:1058C00004A80BF08CFF04AA264924480CF048F8E1
:1058D0000028234C2ADD04A80BF028FF51EC100B04
:1058E00015F068F908EE100A14F018FE4FF0333284
:1058F0001D4B06460F4615F0F5F818BB30463946E5
:1059000013A3D3E9002315F0CFF8F7EE007A0028AF
:1059100018BFB0EE678A4FF4F060B0EE480A84ED2D
:10592000208A06F087F820890AF012F8D4F880005F
:1059300014F0F4FD02460B460C480F490BF0ECFF47
:1059400001209CE4B7EE008AE5E7002097E400BF61
:105950009A9999999999E93F0DBA2100301E05202D
:1059600054430720DCB821003333F33F181F0520D0
:1059700015BA21002EBA210034BA21002DE9F041D8
:105980000E22AAB0A249A3480CF0BDF830B1022201
:10599000A149A0480CF0B7F8002859D19F4B1B78BB
:1059A00043B101249E499F480CF08BF820462AB051
:1059B000BDE8F0819C480BF0A7FF6420FAF5A0FD3C
:1059C00006F094F9431C0546012B05D8974901249C
:1059D00094480CF076F8E9E7811C05D1944901243C
:1059E00090480CF06EF8E1E7002803DD014691488D
:1059F0000BF0FEFE6420DFF8C48201248E4E802767
:105A0000FAF57EFD8D480BF07FFF88F800400A20F4
:105A1000C6F88870FAF574FDFBF509FAFBF53AFA59
:105A200059280DD186480BF06FFF6420FAF568FD08
:105A3000844B28469847002388F80030B760B5E7C4
:105A40000023814888F80030B7600BF05DFFADE7B8
:105A50000C227E496F480CF056F8E8B90AAA7C4936
:105A60006C480BF07DFF00287A4C0DDD0BF08CFEAE
:105A70009DF82810084443785A0705D04FF4587011
:105A800084F83E1005F06CFE94F83E200124724923
:105A900064480BF041FF89E7062270495D480CF02D
:105AA00032F830B96E4A01246E495E480BF034FF7B
:105AB0007CE705226C4957480CF025F850B96B4A31
:105AC00001246B491369574843F4005313610BF0E9
:105AD000F8FF6BE7052267494E480CF014F888B9C7
:105AE000624C0120236943F400532361FAF5DCFC86
:105AF0002369614943F400534A48236101240BF0B0
:105B0000E0FF53E705225D4942480BF0FCFFC0B9B6
:105B1000564C0120236943F400532361FAF5C4FC79
:105B20002369012043F400532361FAF5BDFC236986
:105B3000534943F400533B48236101240BF0C1FF58
:105B400034E704224F4933480BF0DDFF28B94E49B2
:105B5000012434480BF0B5FF28E74C4906222D48B4
:105B60000BF0D1FF0146E0B980220AA80BF037FE06
:105B70000AAA474927480BF0F3FE0028454C05DDEB
:105B800000210AA80CF044FE84ED000A20680124DC
:105B900014F0C4FC02460B4622483F490BF0BCFE01
:105BA00004E706223D491B480BF0ADFFA0B909AA46
:105BB0003B4918480BF0D4FE00283A4B06DD099A01
:105BC000002ABCBF00220992099A1A701A78364935
:105BD00014480BF0A1FE91E0072234490D480BF068
:105BE00092FF00286CD109AA31490A480BF0B8FE8F
:105BF0000028304B03DD099A42B101221A701A784D
:105C000001242D4907480BF087FECFE61A70F6E70E
:105C10004FBA2100301E05205EBA2100361D052036
:105C200061BA2100181F05209ABA2100BDBA2100CF
:105C3000D0BA2100E6BA210000E100E007BB210054
:105C400079BB2100D5080000E4BB2100F5BB210091
:105C500002BC21005443072016BC210054B7210088
:105C6000181E052031B721001BBC2100003C01405B
:105C700021BC210032BC210038BC21004ABC2100DB
:105C800050BC210064BC210069BC210078BC21000B
:105C9000DCB821002C1E05207FBC21008CBC21001B
:105CA00093BC2100851E052013B82100A7BC21004C
:105CB00082B721008C1E0520AFBC2100993C052035
:105CC0000822944994480BF01EFF044600BB802232
:105CD00001460AA80BF083FD90490AA80BF0F1FEDB
