:020000040800F2
:1000000000000320E9110008311200083112000835
:1000100031120008311200083112000800000000FF
:100020000000000000000000000000003112000885
:1000300031120008000000003112000891EC0008A5
:10004000311200083112000831120008C9EB000813
:1000500031120008311200088DE900083112000841
:100060003112000831120008311200083112000864
:100070003112000831120008311200083112000854
:100080003112000831120008311200083112000844
:100090003112000831120008311200083112000834
:1000A0003112000831120008311200083112000824
:1000B000311200083112000831120008619C00085A
:1000C0003112000831120008311200083112000804
:1000D0003112000841EC00085DEC00083112000804
:1000E00031120008311200083112000831120008E4
:1000F000311200083112000831120008000000001F
:1001000031120008BDEC000831120008311200085D
:1001100031120008311200083112000831120008B3
:10012000311200083112000831120008C1EC000839
:100130003112000831120008311200083112000893
:100140003112000895EB00083112000895EC000808
:100150003112000831120008311200083112000873
:100160003112000831120008311200083112000863
:10017000311200083112000800000000311200089E
:100180003112000831120008311200083112000843
:1001900031120008311200080000000000000000C9
:1001A00000000000000000003112000831120008B9
:0C01B00031120008311200083112000862
:1001C000034613F8012B002AFBD1181A0138704797
:1001D00001F0FF01102A2BDB10F0070F08D010F8F8
:1001E000013B013A8B422DD010F0070F42B3F6D1FC
:1001F000F0B441EA012141EA014122F007047FF015
:1002000000070023F0E80256083C85EA010586EA6B
:10021000010685FA47F5A3FA87F586FA47F6A5FAA7
:1002200087F68EB9EED1F0BC01F0FF0102F00702B3
:1002300032B110F8013B013A83EA010313B1F8D15E
:100240000020704701387047002D06BF354603383F
:10025000073815F0010F07D1013015F4807F02BF78
:10026000013015F4C03F0130F0BC0138704700BFC9
:1002700081F0004102E000BF83F0004330B54FEA57
:1002800041044FEA430594EA050F08BF90EA020FC4
:100290001FBF54EA000C55EA020C7FEA645C7FEA57
:1002A000655C00F0E2804FEA5454D4EB5555B8BF7A
:1002B0006D420CDD2C4480EA020281EA030382EAEB
:1002C000000083EA010180EA020281EA0303362D7D
:1002D00088BF30BD11F0004F4FEA01314FF4801C50
:1002E0004CEA113102D0404261EB410113F0004F62
:1002F0004FEA03334CEA133302D0524263EB430319
:1003000094EA050F00F0A780A4F10104D5F1200EB6
:100310000DDB02FA0EFC22FA05F2801841F1000111
:1003200003FA0EF2801843FA05F359410EE0A5F1E5
:1003300020050EF1200E012A03FA0EFC28BF4CF016
:10034000020C43FA05F3C01851EBE37101F00045CC
:1003500007D54FF0000EDCF1000C7EEB00006EEBD9
:100360000101B1F5801F1BD3B1F5001F0CD3490863
:100370005FEA30004FEA3C0C04F101044FEA4452BA
:1003800012F5800F80F09A80BCF1004F08BF5FEA41
:10039000500C50F1000041EB045141EA050130BD21
:1003A0005FEA4C0C404141EB010111F4801FA4F1C4
:1003B0000104E9D191F0000F04BF01460020B1FA19
:1003C00081F308BF2033A3F10B03B3F120020CDA51
:1003D0000C3208DD02F1140CC2F10C0201FA0CF02F
:1003E00021FA02F10CE002F11402D8BFC2F1200C94
:1003F00001FA02F120FA0CFCDCBF41EA0C0190404A
:10040000E41AA2BF01EB0451294330BD6FEA040492
:100410001F3C1CDA0C340EDC04F11404C4F120027D
:1004200020FA04F001FA02F340EA030021FA04F38F
:1004300045EA030130BDC4F10C04C4F1200220FAE6
:1004400002F001FA04F340EA0300294630BD21FA24
:1004500004F0294630BD94F0000F83F4801306BFEA
:1004600081F480110134013D4EE77FEA645C18BFDE
:100470007FEA655C29D094EA050F08BF90EA020F75
:1004800005D054EA000C04BF1946104630BD91EA6D
:10049000030F1EBF0021002030BD5FEA545C05D170
:1004A0004000494128BF41F0004130BD14F58004AF
:1004B0003CBF01F5801130BD01F0004545F0FE4123
:1004C00041F470014FF0000030BD7FEA645C1ABF58
:1004D000194610467FEA655C1CBF0B46024650EA8F
:1004E000013406BF52EA033591EA030F41F40021BB
:1004F00030BD00BF90F0000F04BF0021704730B541
:100500004FF4806404F132044FF000054FF0000115
:1005100050E700BF90F0000F04BF0021704730B5D6
:100520004FF4806404F1320410F0004548BF4042AB
:100530004FF000013EE700BF42004FEAE2014FEA00
:1005400031014FEA02701FBF12F07F4393F07F4FDB
:1005500081F06051704792F0000F14BF93F07F4F0D
:10056000704730B54FF4607401F0004521F0004150
:1005700020E700BF50EA010208BF704730B54FF0D6
:1005800000050AE050EA010208BF704730B511F0DB
:10059000004502D5404261EB41014FF4806404F113
:1005A00032045FEA915C3FF4DCAE4FF003025FEA95
:1005B000DC0C18BF03325FEADC0C18BF033202EB1D
:1005C000DC02C2F1200300FA03FC20FA02F001FA77
:1005D00003FE40EA0E0021FA02F11444C1E600BF16
:1005E00070B54FF0FF0C4CF4E06C1CEA11541DBFC9
:1005F0001CEA135594EA0C0F95EA0C0F00F0DEF894
:100600002C4481EA030621EA4C5123EA4C5350EA78
:10061000013518BF52EA033541F4801143F48013C9
:1006200038D0A0FB02CE4FF00005E1FB02E506F05A
:100630000042E0FB03E54FF00006E1FB03569CF0AF
:10064000000F18BF4EF0010EA4F1FF04B6F5007FB5
:1006500064F5407404D25FEA4E0E6D4146EB060627
:1006600042EAC62141EA55514FEAC52040EA5E50B0
:100670004FEACE2EB4F1FD0C88BFBCF5E06F1ED85A
:10068000BEF1004F08BF5FEA500E50F1000041EB91
:10069000045170BD06F0004646EA010140EA02003E
:1006A00081EA0301B4EB5C04C2BFD4EB0C0541EA60
:1006B000045170BD41F480114FF0000E013C00F375
:1006C000AB8014F1360FDEBF002001F0004170BD99
:1006D000C4F10004203C35DA0C341BDC04F11404B2
:1006E000C4F1200500FA05F320FA04F001FA05F23E
:1006F00040EA020001F0004221F0004110EBD3700B
:1007000021FA04F642EB06015EEA430E08BF20EA36
:10071000D37070BDC4F10C04C4F1200500FA04F3D9
:1007200020FA05F001FA04F240EA020001F000416B
:1007300010EBD37041F100015EEA430E08BF20EADE
:10074000D37070BDC4F1200500FA05F24EEA020E26
:1007500020FA04F301FA05F243EA020321FA04F055
:1007600001F0004121FA04F220EA020000EBD3700C
:100770005EEA430E08BF20EAD37070BD94F0000F0C
:100780000FD101F00046400041EB010111F4801F40
:1007900008BF013CF7D041EA060195F0000F18BFF1
:1007A000704703F00046520043EB030313F4801F2D
:1007B00008BF013DF7D043EA0603704794EA0C0FE7
:1007C0000CEA135518BF95EA0C0F0CD050EA4106FD
:1007D00018BF52EA4306D1D181EA030101F000417A
:1007E0004FF0000070BD50EA410606BF10461946A2
:1007F00052EA430619D094EA0C0F02D150EA0136AE
:1008000013D195EA0C0F05D152EA03361CBF1046EE
:1008100019460AD181EA030101F0004141F0FE418D
:1008200041F470014FF0000070BD41F0FE4141F411
:10083000780170BD70B54FF0FF0C4CF4E06C1CEA11
:1008400011541DBF1CEA135594EA0C0F95EA0C0FC6
:1008500000F0A7F8A4EB050481EA030E52EA033581
:100860004FEA013100F088804FEA03334FF08055A2
:1008700045EA131343EA12634FEA022245EA1115CF
:1008800045EA10654FEA00260EF000419D4208BF80
:10089000964244F1FD0404F5407402D25B084FEA2D
:1008A0003202B61A65EB03055B084FEA32024FF4D9
:1008B00080104FF4002CB6EB020E75EB030E22BF36
:1008C000B61A754640EA0C005B084FEA3202B6EBF6
:1008D000020E75EB030E22BFB61A754640EA5C00A5
:1008E0005B084FEA3202B6EB020E75EB030E22BF35
:1008F000B61A754640EA9C005B084FEA3202B6EB36
:10090000020E75EB030E22BFB61A754640EADC00F4
:1009100055EA060E18D04FEA051545EA16754FEA56
:1009200006164FEAC30343EA52734FEAC2025FEA74
:100930001C1CC0D111F4801F0BD141EA00014FF003
:1009400000004FF0004CB6E711F4801F04BF0143D4
:100950000020B4F1FD0C88BFBCF5E06F3FF6AFAEF0
:10096000B5EB030C04BFB6EB020C5FEA500C50F180
:10097000000041EB045170BD0EF0004E4EEA113103
:1009800014EB5C04C2BFD4EB0C0541EA045170BD0A
:1009900041F480114FF0000E013C90E645EA060E4E
:1009A0008DE60CEA135594EA0C0F08BF95EA0C0F7C
:1009B0003FF43BAF94EA0C0F0AD150EA01347FF4C4
:1009C00034AF95EA0C0F7FF425AF104619462CE79B
:1009D00095EA0C0F06D152EA03353FF4FDAE1046FE
:1009E000194622E750EA410618BF52EA43067FF44F
:1009F000C5AE50EA41047FF40DAF52EA43057FF4DF
:100A0000EBAE12E74FF0FF3C06E000BF4FF0010CE9
:100A100002E000BF4FF0010C4DF804CD4FEA410C4D
:100A20007FEA6C5C4FEA430C18BF7FEA6C5C1BD01A
:100A300001B050EA410C0CBF52EA430C91EA030F9B
:100A400002BF90EA020F0020704710F1000F91EAF8
:100A5000030F58BF994208BF90422CBFD8176FEAC6
:100A6000E37040F0010070474FEA410C7FEA6C5C94
:100A700002D150EA013C07D14FEA430C7FEA6C5C9B
:100A8000D6D152EA033CD3D05DF8040B704700BFC7
:100A90008446104662468C461946634600E000BF15
:100AA00001B5FFF7B7FF002848BF10F1000F01BDE7
:100AB0004DF808EDFFF7F4FF0CBF012000205DF8B2
:100AC00008FB00BF4DF808EDFFF7EAFF34BF012037
:100AD00000205DF808FB00BF4DF808EDFFF7E0FFD0
:100AE00094BF012000205DF808FB00BF4DF808ED21
:100AF000FFF7CEFF94BF012000205DF808FB00BF88
:100B00004DF808EDFFF7C4FF34BF012000205DF869
:100B100008FB00BF4FEA410C7FEA6C5C02D150EA4F
:100B2000013C0AD14FEA430C7FEA6C5C02D152EAE5
:100B3000033C02D14FF0000070474FF001007047B6
:100B40004FEA410212F5001215D211D56FF47873F5
:100B5000B3EB625212D94FEAC12343F0004343EA98
:100B6000505311F0004F23FA02F018BF4042704773
:100B70004FF00000704750EA013005D111F00040FD
:100B800008BF6FF0004070474FF00000704700BF93
:100B90004A0011D212F5001211D20DD56FF47873FC
:100BA000B3EB62520ED44FEAC12343F0004343EA51
:100BB000505323FA02F070474FF00000704750EA9C
:100BC000013002D14FF0FF3070474FF00000704706
:100BD0004FEA4102B2F1E04324BFB3F5001CDCF15F
:100BE000FE5C0DD901F0004C4FEAC0024CEA507097
:100BF000B2F1004F40EB830008BF20F001007047C6
:100C000011F0804F21D113F13872BCBF01F00040C8
:100C1000704741F480114FEA5252C2F11802C2F1FA
:100C2000200C10FA0CF320FA02F018BF40F001007B
:100C30004FEAC1234FEAD32303FA0CFC40EA0C002D
:100C400023FA02F34FEA4303CCE77FEA625307D16A
:100C500050EA01331EBF4FF0FE4040F440007047A1
:100C600001F0004040F0FE4040F40000704700BF3B
:100C700080F0004002E000BF81F0004142001FBF51
:100C80005FEA410392EA030F7FEA226C7FEA236C5A
:100C90006AD04FEA1262D2EB1363C1BFD21841404F
:100CA00048404140B8BF5B42192B88BF704710F0E5
:100CB000004F40F4000020F07F4018BF404211F088
:100CC000004F41F4000121F07F4118BF494292EAF0
:100CD000030F3FD0A2F1010241FA03FC10EB0C001C
:100CE000C3F1200301FA03F100F0004302D54942A9
:100CF00060EB4000B0F5000F13D3B0F1807F06D356
:100D000040084FEA310102F10102FE2A51D2B1F14D
:100D1000004F40EBC25008BF20F0010040EA030042
:100D20007047490040EB000010F4000FA2F10102EF
:100D3000EDD1B0FA80FCACF1080CB2EB0C0200FA79
:100D40000CF0AABF00EBC25052421843BCBFD040C7
:100D50001843704792F0000F81F4000106BF80F441
:100D600000000132013BB5E74FEA41037FEA226C04
:100D700018BF7FEA236C21D092EA030F04D092F0CF
:100D8000000F08BF0846704790EA010F1CBF002003
:100D9000704712F07F4F04D1400028BF40F0004060
:100DA000704712F100723CBF00F50000704700F080
:100DB000004343F0FE4040F4000070477FEA2262A7
:100DC00016BF08467FEA23630146420206BF5FEA78
:100DD000412390EA010F40F4800070474FF0000378
:100DE00004E000BF10F0004348BF40425FEA000C3F
:100DF00008BF704743F0964301464FF000001CE0E7
:100E000050EA010208BF70474FF000030AE000BF3C
:100E100050EA010208BF704711F0004302D540427A
:100E200061EB41015FEA010C02BF844601460020EC
:100E300043F0B64308BFA3F18053A3F50003BCFA07
:100E40008CF2083AA3EBC25310DB01FA02FC6344B4
:100E500000FA02FCC2F12002BCF1004F20FA02F2BB
:100E600043EB020008BF20F00100704702F12002AE
:100E700001FA02FCC2F1200250EA4C0021FA02F20F
:100E800043EB020008BF20EADC70704753B94AB94F
:100E9000002908BF00281CBF4FF0FF314FF0FF3082
:100EA00000F0A0B9ADF1080C6DE904CE00F02CF80B
:100EB000DDF804E0DDE9022304B07047D0B5FFF7A8
:100EC0003BFB00220E4B06460F46FFF789FBFFF760
:100ED0005FFE0446FFF70EFB00220A4BFFF780FB84
:100EE00002460B4630463946FFF7C6F9FFF750FE7B
:100EF0002346002242EA000210461946D0BD00BF38
:100F00000000F03D0000F0412DE9F0478C460D4611
:100F10000446089E002B51D18A4217466DD9B2FA79
:100F200082FEBEF1000F0BD0CEF1200C01FA0EF5BF
:100F300020FA0CFC02FA0EF74CEA050C00FA0EF44B
:100F40004FEA174A250CBCFBFAF81FFA87F90AFB8F
:100F500018CC45EA0C4508FB09F3AB420AD9ED1958
:100F600008F1FF3280F02381AB4240F22081A8F1EA
:100F700002083D44ED1AA4B2B5FBFAF00AFB105585
:100F800044EA054400FB09F9A14509D9E41900F137
:100F9000FF3380F00A81A14540F2078102383C44CA
:100FA000A4EB090440EA08400021002E61D024FA95
:100FB0000EF4002334607360BDE8F0878B4207D9DC
:100FC000002E54D0002186E821000846BDE8F087B5
:100FD000B3FA83F1002940F08E80AB4202D3824203
:100FE00000F2FA80841A65EB03050120AC46002E5E
:100FF0003FD086E81010BDE8F08712B90127B7FB93
:10100000F2F7B7FA87FEBEF1000F34D1EB1B3A0CB2
:101010001FFA87FC0121B3FBF2F8250C02FB183301
:1010200045EA03450CFB08F3AB4207D9ED1908F17B
:10103000FF3002D2AB4200F2D1808046ED1AA3B25B
:10104000B5FBF2F002FB105543EA05440CFB00FC33
:10105000A44507D9E41900F1FF3302D2A44500F2F8
:10106000B8801846A4EB0C0440EA08409DE73146DE
:101070003046BDE8F087CEF1200405FA0EF307FAFA
:101080000EF720FA04F83A0C25FA04F448EA0308AB
:10109000B4FBF2F14FEA184502FB11441FFA87FC3A
:1010A00045EA044501FB0CF3AB4200FA0EF409D902
:1010B000ED1901F1FF3080F08A80AB4240F2878069
:1010C00002393D44EB1A1FFA88F5B3FBF2F002FB3C
:1010D000103345EA034500FB0CF3AB4207D9ED1989
:1010E00000F1FF386FD2AB426DD902383D44EB1AA4
:1010F00040EA01418FE7C1F1200722FA07F88B404F
:1011000005FA01F448EA030320FA07FE4FEA134CFC
:10111000FD404EEA040EB5FBFCF94FEA1E440CFB01
:1011200019551FFA83F844EA054509FB08F4AC4257
:1011300002FA01F200FA01FA08D9ED1809F1FF30BC
:1011400043D2AC4241D9A9F102091D442D1B1FFA1B
:101150008EFEB5FBFCF00CFB10554EEA054400FB7F
:1011600008F8A04507D9E41800F1FF3529D2A045B9
:1011700027D902381C4440EA0940A4EB0804A0FB2C
:1011800002894C45C6464D4615D312D056B1BAEB2E
:101190000E0364EB050404FA07F7CB401F43CC4071
:1011A000376074600021BDE8F0871846F8E6904685
:1011B000E0E6C245EAD2B8EB020E69EB030501385E
:1011C000E4E72846D7E7404691E78146BEE7014677
:1011D00078E702383C4445E7084608E7A8F10208EA
:1011E0003D442BE7704700BFDFF82CD0002103E01F
:1011F0000A4B5B584350043109480A4B42189A4243
:10120000F6D3094A02E0002342F8043B074B9A4216
:10121000F9D30DF0D1F9FEE700000320FC880108A6
:1012200000000020CC080020D0080020F88000201A
:10123000FEE77047024B186800F00300704700BFDC
:1012400000240650014B1869C0B2704700240650B4
:1012500082B000230193034B03440193019B186860
:1012600002B0704714240650014BD3F88000704739
:1012700000240650044BDA6B11B11043D863704759
:1012800022EA0000FAE700BF00240650014B9863F1
:10129000704700BF00240650034B5B6B034214BF32
:1012A00001200020704700BF00240650FFF7F4BF64
:1012B000014B9863704700BF0024065008B5002218
:1012C0000E490F4801F097FB08B10DF0FBFC0D49EA
:1012D0000B4801F0A5FB08B10DF0F4FC0A490848E1
:1012E00001F054FB08B10DF0EDFC054801F09FFB47
:1012F00018B1BDE808400DF0E5BC08BDE8000020CD
:101300007C0E00204C010020D800002000207047F7
:101310000020704710B5064B0649074819600024A5
:101320005C609C60DC6001F03EFB204610BD00BFAD
:10133000287A0020EC3A00207C0E002008B50A4BE9
:1013400009685A6809480A44B2F5F86F5A6022BF22
:10135000DA6000225A600ACB194401F024FB0348EA
:1013600001F03CFB002008BD287A00207C0E002004
:1013700038B50A4CD4F890526B6D0A4663B90146F1
:10138000204601F00AFB204601F012FB044B6A6D77
:101390001AB1013BFBD138BD012038BD7C0E0020C5
:1013A000A086010007B502AB012103F8010D184624
:1013B000FFF7DEFF03B05DF804FB89B2FFF7D8BF8B
:1013C000F0B5104B5A689C68121B002A0AD0BCBFAB
:1013D000DC6812198A42B8BF91B20A464418002547
:1013E000A04201D11046F0BD99681E684F1C9F6055
:1013F000715C00F8011B9E68D9688E4208BF9D6031
:10140000EEE700BF287A0020034B58689B68C01A9B
:1014100018BF0120704700BF287A002012230B80DC
:10142000004870471401002004230B8000487047D7
:10143000280100200C230B80004870470801002081
:10144000002330B51D46DCB2A24200D830BD040FE7
:10145000092C94BF3034373401F8134001EB4304B6
:10146000000165700133EEE710B51A230B80094BBC
:10147000186808331B68C0180AD0074B07491C6856
:101480000822FFF7DDFF042205492046FFF7D8FFB9
:10149000044810BD9075FF1F9475FF1F2E0100209A
:1014A0003E0100202C01002010B5044C04480A46DF
:1014B000214601F0E5FD204610BD00BF387A00202E
:1014C000E153010810B5044C04480A46214601F0D6
:1014D000D7FD204610BD00BF387A0020F453010824
:1014E00010B5044C04480A46214601F0C9FD2046C7
:1014F00010BD00BF387A0020C853010810B5044C55
:1015000004480A46214601F0BBFD204610BD00BF3D
:10151000387A0020D3530108014B1868704700BF88
:10152000387C002038B50446FFF7F6FF631C1CBF6B
:10153000054B1B68054618BFE418FFF7EDFF401B7D
:101540008442FAD838BD00BF48010020034A04494C
:10155000136809680B441360704700BF387C002093
:1015600048010020014B1868704700BFB03A0020C6
:10157000F0B504468BB060B390F8BD33056803F056
:10158000FF021BB980F8BC2301F0D8FD032384F8C7
:10159000BD33EB6B254613F4807308BF236155F808
:1015A000100B00F019FD0FCD6E460FC60FCD0FC604
:1015B00095E8030086E803002546271D97E80E00FE
:1015C00055F8100B00F056FC064620B1022384F8B3
:1015D000BD33012556E00146206800F003FD30468A
:1015E000D4F804E01C264FF0010C0146C2B2964527
:1015F00000F101001CD800231C261946D8B28645EC
:1016000003F1010322D80FCD6E460FC60FCD0FC6D2
:1016100095E8030086E8030097E80E00206800F0D4
:1016200023FD0123054600B3022284F8BD23D0E741
:1016300006FB024383F83DC083F83C20A3F8422018
:1016400083F83F10596499641965CFE706FB00429F
:1016500082F8FD1182F8FC0182F8FF11C2F8041231
:10166000C2F80812C2F81012C8E784F8380084F8EB
:10167000BD33636A012B02D1204600F0CFFB206806
:1016800000F0EAFF28460BB0F0BD10B590F8BC336F
:10169000012B044614D0012380F8BC33836A02680E
:1016A000012B02BF936B43F480339363006800F017
:1016B000C7FF206800F08AFC002084F8BC0310BD3E
:1016C000022010BD2DE9F04F066885B00446304673
:1016D00000F0FDFF0090002840F04A81206800F0F3
:1016E000C7FF002800F04481206800F0C1FF850793
:1016F00041BF2268536903F002035361206800F080
:10170000B7FF10F400250ED02068DFF884A400F0A5
:10171000B3FF06F53067804600254FF02009B8F189
:10172000000F40F02881206800F0A2FF42030BD593
:10173000206800F0A9FF2746834606F5106A0025B9
:10174000BBF1000F40F06981206800F091FF002894
:1017500015DAD6F8043823F00103C6F8043894F8F3
:10176000F433012B40F0DF81002184F8F41320468C
:1017700001F052FE2268536903F000435361206870
:1017800000F076FF03050BD5D6F80838DF0702D541
:10179000204601F043FD2268536903F4006353615E
:1017A000206800F065FF000115D52268536903F039
:1017B0000063536194F8F433002B40F0B8810121A9
:1017C000236884F8F4135B6DC3F38303C4F8F83320
:1017D000204601F021FE206800F04AFFC10434D504
:1017E00006F500677B6823F001037B601021206809
:1017F00000F010FC06F510634FF67F316268009828
:101800009042C0F09881FB6943F00113FB61236BA8
:10181000002B00F0A281D7F8843043F00B03C7F807
:1018200084307B6C43F00B037B64D6F8003823F4E0
:10183000FE63C6F8003804F57171206800F066FF99
:101840002268536903F480535361206800F010FF4D
:10185000820416D5206800F03EFF206800F0ACFC42
:10186000E0602768FFF77EFE227B0146384600F0E5
:1018700039FB204601F0BFFC2268536903F4005392
:101880005361206800F0F4FEC3062BD522689369EB
:1018900023F010039361376AC7F34343022B07F029
:1018A0000F0940F0658147F6F0731F4215D04FF0E5
:1018B0001C0808FB0948C7F30A173A46D8F808126B
:1018C000304600F047FED8F808323B44C8F80832EA
:1018D000D8F814321F44C8F814722268936943F090
:1018E00010039361206800F0C3FE070707D5204668
:1018F00001F07DFC2268536903F0080353612068FE
:1019000000F0B6FEC60208D5E9B2204601F0BCFCE4
:101910002268536903F480135361206800F0A8FE25
:10192000800208D5E9B2204601F0AAFC226853697A
:1019300003F400135361206800F09AFE410007D5BC
:10194000204601F0A5FC2268536903F080435361EF
:10195000206800F08DFE42070AD523685D686B079A
:1019600002D5204601F098FC23685A6815435D6053
:1019700005B0BDE8F08F18F0010F40D0EAB2114673
:101980002068019200F088FE10F0010F8346019A52
:101990000FD00121B9602168086C01F5306101EBBD
:1019A000451150458B6833D118042DD54FF40042B2
:1019B0008A601BF0080F12D02268116C02F53062A9
:1019C00002EB45125145906804D1010444BF4FF425
:1019D00000419160204601F0F3FB0822BA601BF041
:1019E000100F1CBF1022BA601BF0200F18BFC7F8E1
:1019F00008901BF4005F1CBF4FF40053BB6001351F
:101A00004FEA580820378AE6980648BFC1F8089080
:101A10001146204601F0DAFBCBE71BF0010F7BD02B
:101A2000EBB219462068019300F03FFE10F0010F61
:101A3000804610D0D6F834380199012005F00F0205
:101A400000FA02F223EA0203C6F83438CAF80800A2
:101A5000204601F0C4FB18F0080F1CBF0823CAF889
:101A6000083018F0100F1CBF1023CAF8083018F007
:101A7000400F1CBF4023CAF8083018F0020F1CBFEB
:101A80000223CAF8083018F0800F45D07A6D3B6DFC
:101A90009A4241D8A3EB02087B6C216802919845D9
:101AA00028BF984601F5106308F1030803EB4513BE
:101AB0004FEA98080393039B7A6D9B699BB2434559
:101AC0003B6D27D3934225D963B9029B05F00F01E3
:101AD000D3F83428012000FA01F122EA0102C3F808
:101AE000342819E0A3EB02097B6C019AB96C0298C7
:101AF000994528BF99461FFA89F300F05BFCBB6C3F
:101B00004B44BB647B6D09F103084B444FEA9808D2
:101B10007B65D0E79342D8D901354FEA5B0B1C3780
:101B20000AF1200A0CE6204601F090FB22E620464E
:101B300001F074FB4FE699601A6822F400121A60F3
:101B4000C3F80812D3F8002222F40012C3F80022CE
:101B5000009A01320092203350E67B6943F400532F
:101B600043F02B037B613B6943F00B033B615CE675
:101B7000062B7FF4B2AE082204F5717130464FF0A7
:101B80001C0800F0E7FC08FB0948C7F30A179FE6AA
:101B90000A31544F10B590F8BC23012A04460BD0EB
:101BA000012280F8BC2384F83810006800F038FD6A
:101BB000002084F8BC0310BD022010BD70B504469F
:101BC00001F00F0011F0800F4FF01C06C5B206FBAC
:101BD000054115BF06FB054506FB05453C3101F5F2
:101BE000FE7115BF0126002685F83D6085F8FD6170
:101BF0008A604A78CB70C0B2087002B1C880022BEC
:101C000004BF00230B7194F8BC33012B09D00123CE
:101C100084F8BC33206800F0D9FA002084F8BC03B3
:101C200070BD022070BD01F00F03DAB210B504469A
:101C30001C2011F0800F00FB024119BF3C3100FB5A
:101C4000024200FB024201F5FE7115BF0120002097
:101C500082F83D0082F8FD010B7094F8BC33012B33
:101C600009D0012384F8BC33206800F0F1FA002089
:101C700084F8BC0310BD022010BD38B501F00F057B
:101C80001C2404FB050104FB050401F5FE71C4F8E6
:101C900010320023C4F80822C4F8143284F8FD314D
:101CA00084F8FC5100681DB900F010FB002038BD1D
:101CB00000F090FBFAE71C2301F00F0103FB010188
:101CC000D1F81402704738B501F00F051C2404FB4D
:101CD000050104FB05043C312365002363650123F2
:101CE000A26484F83D3084F83C5000681DB900F0CF
:101CF000EDFA002038BD00F06DFBFAE738B5436817
:101D000001F00F059D4204462DD811F0800F4FF0D1
:101D10001C021ED002FB050102FB050301223C331D
:101D200081F83D2001229A701D7094F8BC139142F5
:101D30001BD084F8BC231946206800F019FC25B993
:101D400004F57171206800F0E1FC002084F8BC0308
:101D500038BD02FB010302FB0101002203F5FE7303
:101D600081F8FD21DEE7012038BD022038BD38B5FD
:101D7000436801F00F029A42044626D81C2311F052
:101D8000800F03FB020119BF3C3103FB020301F585
:101D9000FE7103FB024314BF012000204FF0000539
:101DA00014BF83F83D0083F8FD018D700A7094F82C
:101DB000BC33012B0BD0012384F8BC33206800F026
:101DC00004FC84F8BC53284638BD012038BD0220ED
:101DD00038BD70B50468636A21B943EA0243A3625F
:101DE000002070BDA06A4D1E03EB10430020461C6E
:101DF000C0B2854206D83F3104EB810443EA024376
:101E00006360EDE7403004EB8000406803EB104373
:101E10003046ECE703680020596270470346012111
:101E20000268C0F8FC13002083F8F403936943F0C0
:101E300000639361536D43F0805343F00303536594
:101E4000704700000A4B013B01D103207047026933
:101E5000002AF8DA0369064A43F001030361013AF4
:101E6000F3D0036913F00103F9D11846704700BF9E
:101E7000410D030084B038B505AD85E80E000A9B1E
:101E8000012B044619D1836B23F480338363C36829
:101E900023F4840323F04003C360C36823F4401396
:101EA000C360119B012B02BFC36843F48013C3605E
:101EB000BDE8384004B0FFF7C5BFC36843F0400336
:101EC000C360FFF7BFFF0E9B3BB9A36B43F48033A6
:101ED000A363BDE8384004B07047A36B23F480339C
:101EE000F6E70000022A58D12E4B2F4A0B449342AA
:101EF00047D92E4B2E4A0B44934244D9A1F5740383
:101F00002C4AA3F5105393423FD9A1F1837302F5F4
:101F1000C332A3F5E743A032934238D9264B274A70
:101F20000B44934235D9264B02F592220B4402F51D
:101F3000787293422FD9234B02F5C3220B4402F54A
:101F40002072934229D9A1F1B77302F5B712A3F514
:101F5000585302F55872934221D91B4B02F51222B5
:101F60000B4402F5F862934294BF07230623C2682C
:101F700022F47052C260C26842EA8323C360002028
:101F800070470F23F3E70E23F1E70D23EFE70C2350
:101F9000EDE70B23EBE70A23E9E70923E7E708234B
:101FA000E5E700BF405327FFFF340C00401E1BFF36
:101FB0003F420F007F4F120060B6E5FE5FE3160060
:101FC00000D3CEFEC05BB3FEE05459FE836843F0FD
:101FD0000103836000207047836823F0010383605E
:101FE0000020704708B5C368012923F0C043C360CF
:101FF00008D1C36843F00053C3603220FFF792FA60
:10200000002008BD19B9C36843F08043F4E70120FC
:1020100008BD0000890141F02001064A0161013A32
:1020200005D0036913F02003F9D118467047032047
:10203000704700BF410D03001023064A0361013AB7
:1020400005D0036913F01003F9D118467047032037
:10205000704700BF410D0300D0F800381943C0F8A5
:10206000001800207047000084B02DE9F8430446B2
:1020700009A880E80E000023139E0F46194603F1BD
:10208000400204EB820201330F2B5160F7D1A36BA6
:10209000002E62D123F40013A363236843F04003AE
:1020A0002360236843F0800323600023C4F8003ECC
:1020B000D4F80038C4F8003803212046FFF7CCFFDD
:1020C00010212046FFF7A6FF0146204604F50065D3
:1020D000FFF7B2FF002844D1081C18BF01200023DD
:1020E0002B6104F510626B611946EB614FF0904E65
:1020F0004FF0006C4FF67F38BB4234D1002104F51D
:1021000030620F464FF0904E4FF0006C4FF67F3824
:102110008B423BD12B6923F480732B610023A36195
:102120006FF080436361A36943F01003A361A26968
:10213000204B1343A3610F9B1BB1A36943F008031A
:10214000A361012E01BFA36943F0804343F0040360
:10215000A361BDE8F84304B0704743F40013A363E0
:10216000A3E70120BBE7D2F80090B9F1000F0BDA2A
:102170003BB9C2F800C011610133C2F808802032B7
:10218000BAE7C2F800E0F6E71160F4E7D2F8009091
:10219000B9F1000F0BDA39B9C2F800C0176101318B
:1021A000C2F808802032B3E7C2F800E0F6E7176013
:1021B000F4E700BF00383C80D0F8083813F0020F75
:1021C00000F5006014BF02200F20704770B54A78F8
:1021D0000C78D0F81C6800F50063012A04F00F05A4
:1021E0001BD1AA40324300EB4410DA61D0F8003929
:1021F0001A0410D48B68C978D0F80029C3F30A03F5
:1022000043F0805343F4004343EA814343EA845359
:102210001343C0F80039002070BD4FF48032AA404B
:10222000324300EB4410DA61D0F8003B1B04F2D4D7
:102230008B68C978D0F8002BC3F30A0343F08053AE
:1022400043F4004343EA81431343C0F8003BE2E711
:1022500070B54D780A78D0F83C6800F50063012D20
:1022600002F00F0416D105FA04F426EA0404DC6334
:102270000978DC6901F00F018D4000EB421024EA7F
:102280000505DD61D0F800290E4B1340C0F8003978
:10229000002070BD012505FA04F426EA0444DC633D
:1022A0000978DC6901F00F018D4000EB421024EA4F
:1022B0000545DD61D0F8002B034B1340C0F8003B0F
:1022C000E6E700BF007833EC0078F3EF30B54B78E9
:1022D0000A78374D012B4FF0200347D14C6913FB8F
:1022E000020344BBD3F8104924F0FF5424F4C01473
:1022F000C3F81049D3F8104944F40024C3F8104936
:10230000D3F810492540C3F8105900EB4212D2F817
:10231000004944F00444C2F800494B694BB10A78C3
:10232000D0F8343802F00F0101228A401A43C0F875
:102330003428002030BD03F510631C6925401D6161
:102340001C6924F0FF5424F4C0141C618C684D698E
:10235000A54288BF4C611C6944F400241C614C698F
:102360001D69C4F312042C431C61CEE713FB020069
:1023700000F530631A692A401A611A6922F0FF5287
:1023800022F4C0121A614A690AB18A684A611A695C
:1023900042F400221A618A681C69C2F312022243C5
:1023A0001A61D0F8003B43F00443C0F8003BC0E79B
:1023B0000000F8FF033300EB023223F0030302F5C1
:1023C00080520B44994201D10020704751F8040B10
:1023D0001060F7E770B54B780C785C4D012B4FF02F
:1023E000200370D14A6913FB040342BB03F510625A
:1023F000D3F8103923F0FF5323F4C013136113698A
:1024000043F40023136113691D40156100EB44136D
:10241000D3F8002942F00442C3F80029CA78012AFF
:102420003ED04B694BB10B78D0F8344803F00F0223
:10243000012393402343C0F83438002070BDD3F803
:1024400010291540C3F81059D3F8102922F0FF5273
:1024500022F4C012C3F810298D684A69D3F81069B4
:102460002A44013AB2FBF5F2394D05EAC242324341
:10247000C3F810294A69D3F81059C2F312022A434B
:10248000C3F81029CA78012A03F51063BED11A696E
:1024900022F0C0421A611A6942F000521A61B5E78F
:1024A000D0F8082812F4807FD3F800290CBF42F03E
:1024B000005242F08052C3F800298B8A0A78C9681A
:1024C000FFF778FFB9E713FB040303F530621469E3
:1024D0002C401461146924F0FF5424F4C0141461D6
:1024E0004C698E68FCB91569C6F312042C4314615B
:1024F000146944F400241461CA78012A0CD1D0F87C
:10250000082812F4807FD3F8002B0CBF42F0005251
:1025100042F08052C3F8002BD3F8002B42F0044263
:10252000C3F8002B89E73444094D013CB4FBF6F4B1
:10253000166905EAC445354315618D681669A4B26C
:102540006C43C4F312043443D5E700BF0000F8FF26
:102550000000F81F033222F003020A4400F5805005
:10256000914201D108467047036841F8043BF7E700
:102570004B780A78012B4FF0200313FB020012D195
:10258000D0F80039002B06DB2AB1D0F8003923F04F
:102590008043C0F80039D0F8003943F40013C0F884
:1025A000003900207047D0F8003B002B06DB2AB131
:1025B000D0F8003B23F08043C0F8003BD0F8003B4C
:1025C00043F40013C0F8003BEBE74B780A78012B8B
:1025D0004FF0200313FB020011D1D0F8003923F48F
:1025E0000013C0F80039CB78023B012B05D8D0F896
:1025F000003943F08053C0F8003900207047D0F80C
:10260000003B23F40013C0F8003BCB78023B012BC6
:102610009EBFD0F8003B43F08053C0F8003BECE78E
:10262000D0F8003823F4FE63C0F80038D0F8003842
:10263000090101F4FE611943C0F800180020704739
:1026400008B5D0F8043823F00203C0F8043803209A
:10265000FEF768FF002008BD08B5D0F8043843F045
:102660000203C0F804380320FEF75CFF002008BD19
:102670004269806910407047D0F8183800F5006052
:10268000C0691840000C7047D0F8183800F5006099
:10269000C069184080B2704700EB411100F500603E
:1026A000D1F8082B40691040704710B5D0F8104899
:1026B000D0F8343800EB411001F00F01CB4000F5A9
:1026C0001060DB018068DBB22343184010BD406915
:1026D00000F001007047D0F8003923F4FF6323F0C5
:1026E0000703C0F8003900F500639A6802F006029B
:1026F000042A02BFD0F8002942F00302C0F80029E2
:102700005A6842F480725A6000207047026C0F4B86
:102710009A4203D9D0F8003B002B14DB0023C0F809
:10272000103BD0F8103B43F40023C0F8103BD0F826
:10273000103B43F01803C0F8103BD0F8103B43F0B7
:10274000C043C0F8103B0020704700BF0A30544F10
:1027500010B5D0F89432D0F890425BB194F84000B4
:10276000FF2807D09B6894F8412021469847FF2313
:1027700084F84030002010BD432303800048704798
:10278000840100204323038000487047C8010020D3
:102790004323038000487047180200200A23038067
:1027A000004870470C02002038B50546D0F890422A
:1027B00000F02EFEE064D5F8903243B1D5F89432A3
:1027C000606CDB6804F14C019847002038BD0220A2
:1027D00038BDF8B5D0F89062CEB1142303FB0103E5
:1027E000DD698DB1D0F898421C2707FB0142526C7D
:1027F000B5FBF2F402FB145434B9DC6122462346E3
:1028000000F0EAFD2046F8BD00207065F8BD02200A
:10281000F8BD2DE9F7430A78D0F890724FF0000820
:1028200012F0600405460E468DF80580ADF806806E
:1028300029D0202C48D1CC884B78ECB1120611D588
:10284000D0F894223946D2F8089018462246C84754
:10285000F2883946284600F02FFC4446204603B053
:10286000BDE8F08387F84030CB8887F84130CA88CC
:10287000394600F036FCF0E7D0F894221846956807
:102880002246A847EAE74F780A2F0DD00B2F15D024
:10289000D7B990F87432032B14D102220DF106013E
:1028A00000F00AFC3C46D9E790F87432032B09D1BA
:1028B00001220DF1050100F0FFFBCFE790F8743223
:1028C000032BCBD03146284600F0CFFB0224C5E7CE
:1028D00038B504460025812100F032FD0121E56272
:1028E000204600F02DFDC4F858518221204600F00A
:1028F00027FDD4F8903225644BB1D4F894325B684C
:102900009847D4F8900200F0BDFDC4F89052002022
:1029100038BD2DE9F04105460124402302228121E2
:1029200000F0FEFC402302222146EC62284600F023
:10293000F7FC082303228221C5F85841284600F0FD
:10294000EFFC2C645C2000F099FD0646C5F890026F
:10295000C8B1D5F8943200271B6898477765B765EA
:1029600095F81080726C402321462846B8F1000F7C
:1029700004D100F03FFD4046BDE8F08100F03AFD93
:102980003846BDE8F0812046BDE8F08119B1C0F8B5
:1029900094120020704702207047D0F89032002037
:1029A00099641A657047D0F89032002059647047D6
:1029B00010B5D0F890226AB1546D012364B9536503
:1029C000136D0363B2F85030926C812100F004FD66
:1029D000204610BD022010BD184610BD10B5D0F81D
:1029E000902232B14023526C012100F003FD0020FF
:1029F00010BD022010BD08B580B1D0F88C3213B1E3
:102A00000023C0F88C3209B1C0F88812012380F885
:102A10007432027000F044FC002008BD022008BDA2
:102A200019B1C0F88C12002070470220704708B519
:102A300000F068FC002008BD08B5D0F88C320BB956
:102A4000022008BD1B6898470028F9D108BD08B5C9
:102A5000D0F88C325B689847002008BD38B5044632
:102A600000F52075284600F0ECFA012394F8801256
:102A7000C4F86C32B4F88632C4F8703201F01F0327
:102A8000012B0ED007D3022B10D001F0800120467D
:102A900000F064FC03E02946204600F003F9002022
:102AA00038BD2946204600F01FFAF8E7294620469F
:102AB00000F03FFAF3E770B50546164649BBD0F87B
:102AC0006C32032B1ED1D0F84C31D0F850219342F8
:102AD0000BD99B1A9A42C0F84C318CBF9AB292B271
:102AE000314600F00DFB002070BDD0F88C321B6920
:102AF00023B190F87422032A00D19847284600F0A9
:102B000007FBF0E7052BEED1C5F86C1200F026FCB0
:102B1000E9E7D0F88C329B692BB190F87422032A34
:102B200001D19847DFE7022070BD70B51346044617
:102B30000E46002948D1D0F86C22022A3DD1056A00
:102B4000426A954214D9AA1A0262194692B200F05A
:102B5000C0FA33461A461946204600F04BFC94F85A
:102B60007832012B4FF000003AD184F8780270BD22
:102B7000C369B3FBF2F502FB153565B99A420AD871
:102B8000D0F87022934206D22A4600F0A2FAC4F886
:102B900070522B46DEE7D4F88C32DB682BB194F808
:102BA0007422032A01D1204698478021204600F054
:102BB000D5FB204600F0B7FAD1E732F00403CED1BE
:102BC000802100F0CBFBCAE7D0F88C325B6933B1CF
:102BD00090F87422032A02D19847002070BD022089
:102BE00070BD70B5002204461146012540264023E1
:102BF00000F096FB33468021C4F84451C4F850617C
:102C00000022204600F08CFBD4F89032A561002110
:102C1000666284F87452C4F86C126160C4F87C1265
:102C200023B1D4F88C3220465B689847002070BDF1
:102C300001740020704790F8743280F875320423D4
:102C400080F874320020704790F8753280F8743242
:102C50000020704708B590F87422032A04D1D0F8F8
:102C60008C32DB6903B19847002008BD0020704713
:102C7000002070470020704708B5012280F87422B8
:102C8000D0F88C22017952689047002008BD10B519
:102C90008021044600F062FB20460021BDE8104080
:102CA00000F05CBB37B50B7803F06003202B0446C3
:102CB0000D4614D0402B12D0002B40F095804B785D
:102CC000092B00F29080DFE813F0E70001018E008D
:102CD000FA008E00820013008E00D200A000D4F80B
:102CE0008C3229469B6820469847002003B030BDAF
:102CF0004B881A0A013A0E2A75D8DFE802F0242818
:102D0000357474555E747474747474740800D0F8F7
:102D10008832DB69207C0DF106019847BDF806205A
:102D200052B1EB8843B19A4228BF1A460146204669
:102D3000ADF8062000F0C0F9EB88002BD5D1204675
:102D400000F0E6F9D1E7D0F888321B68E2E7027CB0
:102D5000D0F88C3232B99B6A0DF1060098470223F5
:102D60004370DBE7DB6AF7E7DBB2052B3BD8DFE834
:102D700003F003070B0F1317D0F888325B68C9E71D
:102D8000D0F888329B68C5E7D0F88832DB68C1E7A5
:102D9000D0F888321B69BDE7D0F888325B69B9E7A3
:102DA000D0F888329B69B5E7037CE3B9D0F88C3260
:102DB0000DF106005B6B9847B0E7037C9BB9D0F838
:102DC0008C320DF106001B6B98470723C8E78B88F0
:102DD0004BB9CB883BB94D887F2D04D890F874321D
:102DE000032BE9B203D12046FFF751FF7DE780F8BE
:102DF000761200F0E3FA204600F08AF91DB10223B2
:102E000084F8743271E70123FAE78978354D012996
:102E10002970E8D890F87432022B08D0032B14D014
:102E2000FFF735FF29782046FFF711FE5DE70029FF
:102E300085D001210323416080F874322046FFF7DA
:102E4000FBFD02287FF47BAFCDE731B9022380F888
:102E500074324160FFF7FBFD71E7416801293FF4DF
:102E60006EAFC9B2FFF7F3FD29786160E6E7CA8863
:102E7000012AB8D190F87432002BB4D0022B03D9B8
:102E8000032BB0D1011D03E00146002341F8083FA8
:102E9000204600F011F928E790F87432013B022B2C
:102EA000A1D8CB88022B9ED10123C360D0F87C32FD
:102EB0000BB10323C360022204F10C01E8E74B8845
:102EC000012B7FF412AFC4F87C3238E790F87432EB
:102ED000013B022B87D84B88012B7FF406AF0023E0
:102EE000F1E700BFD008002038B50B7803F060038D
:102EF000202B04460D4602D0402B00D0B3B994F8E5
:102F00007432013B022B10D82B79012B0DD8D4F849
:102F10008C3229469B6820469847EB881BB910B92C
:102F2000204600F0F5F8002038BD2046FFF7AFFE40
:102F3000F9E738B50A7802F06002202A04460B4609
:102F400013D0402A11D06AB95D788A88012DD1B298
:102F50001FD035D3032D05D190F87422022A26D034
:102F6000032A0AD0FFF793FE05E0D4F88C22194615
:102F7000926820469047002038BD5A882AB94A06F0
:102F800003D0DB880BB900F0E9F9204600F0C0F867
:102F9000F1E790F87422022A09D0032AE2D15B8873
:102FA000002BE8D14D06F0D000F0E6F9EDE74B0636
:102FB00017D000F0D3F98021204600F0CFF9DAE7EE
:102FC00090F87432022B0ED0032BCBD112F0800F6D
:102FD0004FF0140301F00F0203FB020212D09269BA
:102FE000DAB92046BEE74906FBD113064CBF00F113
:102FF000140100F5A07100230B600222204600F0AE
:103000005BF8B8E7D2F84421002AEAD001F07F0546
:1030100003FB050505F5A07504E001F07F0505FB40
:103020000335054411F07F0303D12B6002222946AA
:10303000E4E7204600F0AEF908B10123F5E7286087
:10304000F4E70B7803704B784370CA788B7803EB06
:10305000022343804A790B7903EB02238380CA79E8
:103060008B7903EB0223C380704710B5802104469F
:1030700000F074F920460021BDE8104000F06EB960
:1030800030B588B105462B1A15F8014BDBB2002C80
:10309000F9D101335B0013800B7003234B700138AF
:1030A000022310F8015F05B930BD5A1CD2B2CD54CD
:1030B0000233DBB28C54F4E710B513460222C0F899
:1030C0006C22C3610A460362002100F085F90020EA
:1030D00010BD08B513460A46002100F07DF9002016
:1030E00008BD10B513460322C0F86C22C0F8483161
:1030F0000A46C0F84C31002100F07CF9002010BDD8
:1031000008B513460A46002100F074F9002008BDF6
:1031100008B50423C0F86C3200231A46194600F0A3
:103120005BF9002008BD08B50523C0F86C32002308
:103130001A46194600F05EF9002008BD0368B3F195
:10314000A04F38D14FF090431A6822F070721A6085
:103150001A6842F020721A609A6822F440029A605B
:103160009A6822F040729A609A6842F070729A608F
:103170005A6A42F42A225A6203F1784303F504336F
:10318000DA6C42F48052DA649A6D42F080529A65A9
:103190009A6D42F080529A659A6D42F080529A651B
:1031A000054A536843F480635360044B102283F84C
:1031B000432308229A6070470070004000E100E05D
:1031C00000F57171D0F80404FFF748BC1C2303FB21
:1031D0000103D0F80404D3F80822FFF76CBC1C23C9
:1031E00003FB0103D0F804049A6CFFF79EBCD0F8EF
:1031F0000404FFF72FBD10B5C368022B044601D0AD
:103200000BF060FDD4F804040121FFF711FDD4F8A0
:103210000404BDE81040FFF7E4BC000010B50268EC
:10322000D2F8003E43F00103C2F8003E0446D0F855
:103230000404FFF700FD236A23B1034A136943F036
:103240000603136110BD00BF00ED00E010B5026879
:10325000D2F8003E23F00103C2F8003E036A0446A0
:1032600033B1064A136923F0060313610AF0A0FB89
:10327000D4F80404BDE81040FFF7E6BC00ED00E020
:10328000D0F80404FFF7F4BCD0F80404FFF7EEBC58
:10329000D0F80404FFF7EEBCD0F80404FFF7ECBC50
:1032A00010B503784BBB164C06224FF0A041C4F872
:1032B000040484E80600C0F8984202222046E26036
:1032C000A261E36123626362A3622363E362FEF7A8
:1032D0004FF908B10BF0F6FC2368094880245C62C2
:1032E0002146FEF797FD402200210548FEF771FDBB
:1032F000224601210248FEF76CFD002010BD00BFF0
:103300003C7C002008B5D0F89802FEF7BEF90328EF
:103310009ABF024B185C022008BD00BF0A54010886
:1033200010B51C46D0F8980213462246FEF746FC1C
:1033300003289ABF014B185C022010BD0A540108F3
:1033400008B5D0F89802FEF76EFC03289ABF024B2E
:10335000185C022008BD00BF0A54010808B5D0F867
:103360009802FEF7CBFC03289ABF024B185C0220A0
:1033700008BD00BF0A54010808B5D0F89802FEF74E
:10338000F6FC03289ABF024B185C022008BD00BF60
:103390000A54010811F0800FD0F898324FF01C0247
:1033A0001BBF01F07F0102FB013102FB013191F8EB
:1033B0003E0008BF91F8FE017047000008B5D0F844
:1033C0009802FEF7E7FB03289ABF024B185C022025
:1033D00008BD00BF0A54010808B5D0F89802FEF7EE
:1033E00072FC03289ABF024B185C022008BD00BF84
:1033F0000A54010808B5D0F89802FEF73EFC0328ED
:103400009ABF024B185C022008BD00BF0A54010895
:10341000D0F89802FEF74FBC10B5044611B101294F
:1034200016D010BD036A33B10AF0C2FA124A13690A
:1034300023F0060313612268D2F8003E23F0010353
:10344000C2F8003ED4F80404BDE81040FFF7FCBB0E
:103450000268D2F8003E43F00103C2F8003ED0F803
:103460000404FFF7E8FB236A23B1034A136943F01E
:103470000603136110BD00BF00ED00E00048704777
:10348000D4080020704742884378007843EA02233A
:1034900040EA032070470B0A017043700B0C090EC1
:1034A0008370C1707047024400F8011B9042FBD149
:1034B00070470000154BF0B500252A461C461E68D3
:1034C000A6B10768BE4212D15F688668B7420ED1C6
:1034D0009F684669B7420AD1B1B904EB02129389D9
:1034E000B3F5807F14BF00201020F0BD012501320C
:1034F000092A03F11003E2D10DB10020F0BD022929
:103500000CBF00201220F0BD1020F0BD40090020AB
:10351000F0B51C4C0768002322462568BD4207D140
:1035200066688568AE4203D1A6684569AE421FD081
:103530000133092B04F11004EFD100231D0156596A
:103540008EB957515419856865604069A060A6819D
:10355000A9B902EB03118989013189B202EB031287
:10356000581C9181F0BD0133092BE7D10020F0BD3B
:103570000029EED002EB031189890029F6D14FF41E
:103580008071EBE740090020013808280ED8094A6D
:103590000301D118898921F4807080B208B1481ED6
:1035A00080B2D118888118B9D05070470220704776
:1035B0000020704740090020C3690239023B99424C
:1035C0003DBF4389006B01FB0300002070470246AA
:1035D00000F10B010020C30143EA500312F8010B74
:1035E00050FA83F38A42D8B2F5D17047F0B5046837
:1035F000054614B323461A4613F8011B1F2929D97F
:103600003A29F8D12378A3F13000092818D9DFF836
:1036100058E0013200235EF82370204610F8011BA9
:1036200017F8016BA1F1610CBCF1190F9CBF203997
:10363000C9B296B1B142F1D053B14FF0FF30F0BDF5
:10364000631C9A42E3D10128F7D801322A60F0BD09
:103650000123E0E7034B1878F0BD8242ECD1184615
:10366000F4E700BF34090020FC54010838B50D46CA
:10367000044618B900232B60092038BD0368002BCD
:10368000F8D01A78002AF5D0D98882889142F1D1F1
:1036900058780BF031FB10F00100EBD123682B6060
:1036A00038BD01380A4411F8013B00F8013F91424E
:1036B000F9D17047CA7E8B7E032843EA022301BFFB
:1036C000487D0A7D42EA002243EA024318467047D9
:1036D000C2F307238A76CB760378032B01BF120C43
:1036E0000A75120A4A757047F8B5456B00F138073C
:1036F000044601232A46394640780BF039FBA0B92D
:10370000A36A226AE070EB1A934201D30020F8BD4D
:10371000A678012EFAD9236A60781D442A4601232F
:1037200039460BF025FB013EF3E70120F8BDC378D5
:103730000BB1FFF7D9BF18467047F8B50446FFF73D
:10374000F6FF0546002842D12378032B37D127798D
:10375000012F34D104F1380601464FF4007230468F
:10376000FFF7A1FE552384F83632AA2384F83732B6
:1037700052234122722184F8383084F83930612391
:1037800084F83A3084F83B2084F81E2284F81F32F3
:1037900084F81C1284F81D1204F508706169FFF7A3
:1037A0007AFE216904F50970FFF775FE626A607898
:1037B000013262633B4631460BF0DAFA2571002292
:1037C000114660780BF09CFA003018BF0120F8BD5C
:1037D00070B5436B8B4206460D4612D0FFF7A7FF2C
:1037E000044660B92A46012306F1380170780BF0CF
:1037F000A4FA00281CBF4FF0FF3501247563204652
:1038000070BD0024FBE70000002310B5C3704FF02B
:10381000FF3343630446FFF7DBFF30BB94F83722E6
:1038200094F8363243EA02234AF6552293421ED1D7
:1038300094F83830E92B05D0A36B104A03F0FF133E
:10384000934216D104F16E00FFF71DFE0C4B20F0E1
:103850007F4098420FD004F18A00FFF714FE094B15
:10386000984214BF0220002010BD042010BD032088
:1038700010BD022010BD002010BD00BFEB00900065
:1038800046415400464154332DE9F043002385B0AE
:103890000B600F461546FFF7A9FE061EC0F24181D8
:1038A000A34B53F82640002C00F03D813C60237868
:1038B00005F0FE0573B160780BF01EFAC10709D45C
:1038C000002D00F0078110F0040000D00A2005B0A0
:1038D000BDE8F0830023F0B2237060700BF0F4F9C0
:1038E000C20700F122810DB14307EFD40021204629
:1038F000FFF78AFF022840F0F88004F5FF750021E9
:1039000015F8040C10B12846FFF7BDFD4DF8210055
:103910000131042905F11005F2D100255DF825607B
:10392000002E00F0D98031462046FFF76DFF0128B8
:1039300000F2D38094F8442094F8433043EA022301
:10394000B3F5007F40F0D58094F84F3094F84E5096
:1039500055EA032504D104F15C00FFF794FD054608
:1039600094F84890256209F1FF33012B84F8029006
:1039700000F2BF8094F84570BBB26381002B00F069
:10398000B8807B1E3B4240F0B48094F84A3094F8F3
:10399000498048EA032818F00F0FA4F8088040F087
:1039A000A88094F84C1094F84B0050EA012003D101
:1039B00004F15800FFF767FD94F8473094F846206B
:1039C00052EA032200F0958005FB09F302EB181E72
:1039D0009E447045C0F08D80A0EB0E01B1FBF7F165
:1039E000002900F086804FF6F570814200F2858054
:1039F00040F6F577B9428CBF0227012702313244E5
:103A000006EB0E00032FE1616662A262206376D1AD
:103A100094F8632094F8623053EA022369D1B8F134
:103A2000000F66D104F16400FFF72DFDE06289000C
:103A300001F2FF11B5EB512F5BD34FF0FF33636100
:103A40002361032F4FF0800323712FD194F8692055
:103A500094F8683043EA0223012B27D1711C2046D9
:103A6000FFF7B6FE10BB94F8372294F83632207177
:103A700043EA02234AF65522934217D104F1380053
:103A8000FFF701FD2B4B984210D104F50770FFF7AB
:103A9000FAFC294B984209D104F50870FFF7F3FCB2
:103AA000606104F50970FFF7EEFC2061234A27707E
:103AB000138801339BB21380E380214BE360214ADA
:103AC0000023A36119469858844208BF99501033C7
:103AD000902BF8D10020FAE603200135042D7FF465
:103AE0001DAF042805D10120F1E60428FBD00128F0
:103AF00001D90D20EBE600261CE703277EE7B8F18D
:103B0000000FF6D0022F4FEA410018BF40181344AF
:103B100018BF01F00101E3620CBF014601EB500147
:103B200086E70B20D3E60C20D1E60320CFE600BFCA
:103B3000380900205252614172724161D00900205F
:103B4000D20900204009002001292DE9F04705464F
:103B50000C46174672D9C36999426FD20378022B7B
:103B60003FD0032B50D0012B68D101EB5108816A63
:103B700001EB5821FFF72CFE064638BB05F138094A
:103B800008F1010AC8F3080814F001041FBF19F86E
:103B9000083003F00F023B0103F0F00314BF13439E
:103BA000FBB209F80830A96A0123EB7001EB5A2136
:103BB0002846FFF70DFE064640B9CAF3080A44B18D
:103BC000C7F3071709F80A700123EB703046BDE808
:103BD000F08719F80A30C7F3032723F00F031F43B8
:103BE000F0E7816A01EB1421FFF7F2FD0646002899
:103BF000ECD1640005F1380304F4FF741A191F5561
:103C0000C7F307275770DFE7816A01EBD411FFF78D
:103C1000DFFD06460028D9D1A40005F1380304F4DD
:103C2000FE741C442046FFF72EFC27F0704700F07E
:103C3000704139432046FFF72EFCC5E70226C5E751
:103C40000129F8B505460C4652D9C36999424FD2AD
:103C50000378022B29D0032B38D0012B48D101EB5C
:103C60005106816A01EB5621FFF7B2FD10B14FF00A
:103C7000FF30F8BD771CA96AC6F308062E4401EB95
:103C80005721284696F83860FFF7A2FD0028EED1AC
:103C9000C7F308073D44E30795F8380046EA0020DB
:103CA0004CBF0009C0F30B00F8BD816A01EB142181
:103CB000FFF78EFD0028DAD16400383504F4FF7474
:103CC0002B19285D5B7840EA0320F8BD816A01EB7F
:103CD000D411FFF77DFD0028C9D1A40005F13800FB
:103CE00004F4FE742044FFF7CEFB20F07040F8BDD2
:103CF0000120F8BDB1F5001FF8B506460D4601D309
:103D00000220F8BDCA06FBD1046871618268C2B99D
:103D10002378022B01D9E36AA3B92389B3EB551F9A
:103D2000EED9E36AF361F369B261002BE8D003EBEB
:103D300055233834C5F308052C44F3613462002060
:103D4000F8BD134667891A467F02BD42114604D268
:103D50002046FFF731FCF061E5E73068FFF770FFC0
:103D6000431C024606D00128CAD9E3699842C7D24B
:103D7000ED1BEAE70120F8BD2DE9F041804605681A
:103D80000F4671B92E69F6B1EB699E4228BF012634
:103D90003446EB6901349C4218D3012E15D8002417
:103DA00009E02846FFF74CFF0128044637D9431C99
:103DB00004D14FF0FF342046BDE8F081EB69984212
:103DC000F9D33E46E4E70126E2E702242146D8F88B
:103DD0000000FFF735FF30B1012820D00130E8D0D6
:103DE000B442D6D1DBE74FF0FF3221462846FFF739
:103DF000ABFE90B957B9EA696B692C61023A9342FC
:103E00000FD32B7943F001032B71D4E722463946B7
:103E10002846FFF799FE0028EDD00128C9D00124DB
:103E2000C9E7013B6B61ECE7F8B50D46012D07468C
:103E3000114601D80220F8BD0468E3699D42F9D219
:103E40002AB14FF0FF322046FFF77EFE08BB29461D
:103E50003868FFF7F5FE064608B90020F8BD0128CE
:103E6000E8D0431C14D0002229462046FFF76CFE00
:103E700078B9E2696369911E8B4205D201336361AF
:103E8000237943F00103237196423546DFD3E4E7FB
:103E90000120F8BD2DE9F0410026D0F800808E7594
:103EA000C36905460C46002B56D0036B01330BD07B
:103EB00001F11607D8F80C2032F816003346002816
:103EC0004CD1234400229A750023A17D1A462E2648
:103ED0002F6A501CBA5C202A21D0052A08BFE5228F
:103EE000092804D1E71801B9BE757E72013304EBCD
:103EF000030E8EF8092089B9A2F14107192F0BD8BA
:103F00002F6A082897F80CC08CBF102708271CEAD6
:103F1000070F1CBF2032D2B28EF8162001330B28B7
:103F20000246D5D131B9E21891752A6A127B002A6E
:103F300008BF0023234400225A722B6ADB7A2372C3
:103F4000286A1C30FFF79FFA2060286A1630FFF7B6
:103F50009AFAE080000CA080BDE8F081002101F019
:103F600051FE30B10136B6F5807F02D007F8010B63
:103F7000A0E70023A5E72DE9F047C36905460F46F2
:103F8000ABB1426902F12008B8F5001F0FD2C8F3A7
:103F900008090468B9F1000F4FD181690133C36189
:103FA00041B92389B3EB581F47D80023EB610420A4
:103FB000BDE8F0876389013B13EA58233DD12046D1
:103FC000FFF73EFE0128064602D80220BDE8F08732
:103FD000421C02D10120BDE8F087E369984226D354
:103FE000002FE2D0A9692846FFF7C6FE0646002842
:103FF00037D00128E9D0431CECD02046FFF797FBCF
:1040000007460028E6D101464FF4007204F138005B
:10401000FFF749FA31462046FFF7CEFA4FF0010A82
:10402000606363899F4210D3636BDF1B6763AE617C
:1040300031462046FFF7C0FAE86138344C44C5F8F1
:1040400014802C620020BDE8F08784F803A020468D
:10405000FFF74AFB0028BDD1636B0133013763636F
:10406000DFE70720BDE8F0872DE9F041016B056827
:1040700046694B1C044618D1E5274FF00108E16959
:104080002846FFF7A5FB60B9236A1F7085F80380F7
:1040900063699E420DD901462046FFF76CFF002858
:1040A000EDD0042808BF022003E0FFF723FE00281C
:1040B000E2D0BDE8F08100002DE9F04F002185B08D
:1040C0000546D0F800A0FFF715FE8046002840F016
:1040D0009E804FF0FF334FF0FF092B634E46E96996
:1040E0005046FFF775FB8046002840F090802C6A10
:1040F0002778002F00F09180E27AE52F02F03F034D
:10410000AB7103D0120705D50F2B05D04FF0FF334D
:104110002B6357E00F2B5ED195F82F30580652D401
:10412000790647D56A69637B2A6307F0BF0794F86D
:104130000D9099456FD1E37EA67E46EA032636B2FE
:10414000002E3FD194F80080DAF80CB008F03F0858
:1041500008F1FF334FF00D0808FB03F80121304B45
:10416000F25CA3185878A35C43EA002331B3B8F19A
:10417000FE0F27D81846039301F062FD08F10102F3
:1041800002903BF81800019201F05AFD0299814219
:1041900018D1039B019A1946904601360D2EDED1A7
:1041A00023785A0603D511B13BF8183053B9013FB3
:1041B000FEB208E0BE4205D14B46B8E74FF6FF72AB
:1041C0009342EAD0FF2600212846FFF7D4FE80461E
:1041D000002884D01BE026B92046FFF7F8F9814576
:1041E00015D095F82F30DB0790D404F10B0105F1C1
:1041F000240214F8013B12F8010B8C42A3EB0003DC
:1042000002D0002BF5D081E7002B7FF47FAF404632
:1042100005B0BDE8F08F9946D4E74FF00408F6E703
:104220008E5401082DE9F04F90F82F4014F0A004AF
:1042300089B0054640F084800668F26832F8143090
:10424000002B55D105F124070C22394605A8FFF7AC
:1042500028FA9DF81F30DB077BD54023DFF82C823E
:1042600085F82F304FF001090B2205A93846D6F802
:104270000CA0FFF716FAB9F1050F4ED84B460722EE
:1042800003F00F0000F13001392988BF00F1370138
:10429000013A03A810441B094170F1D108A9114447
:1042A0007E2001F8140C9A423DD0F95C202938D1C7
:1042B0003B44072A9BBF08A98918202111F8141C28
:1042C00003F8011BA3EB070198BF01320729F0D9BE
:1042D0002846FFF7F1FE8246A8BB09F10109B9F1B2
:1042E000640FC1D14FF0070A504609B0BDE8F08F06
:1042F0000134A3E7102002F0010E0EEB430313F488
:10430000803F18BF83EA080301384FEA5202F2D116
:1043100031F8022F002AEDD1B1E7AAF102014B4694
:10432000F6E70133BFE71346C2E78046012128467E
:10433000FFF721FE824610B3BAF1040FD2D0D3E7C3
:104340004FF0060AD0E70428CED19DF81F3085F83B
:104350002F309DF81F30D5F800909B0748BF0C34D4
:104360004FF00001284649BF0D230124B4FBF3F4AC
:104370000134FFF7BFFC82460028DDD18046E969A1
:104380004846FFF725FA82460028D5D12B6A1B78CC
:10439000E52B01D0002BC8D108F101084445C5D157
:1043A000013C56D069692846A1EB4411FFF7A2FCF5
:1043B0008246002898D13846FFF709F94FF6FF7971
:1043C0008046E9693046FFF703FA824600288BD120
:1043D0002B6AD6F80CC083F80D800F22E1B24FF0A3
:1043E0000D0EDA724A1E0EFB02F218739876D8761A
:1043F0000192864648451FBF019A3CF812000132DF
:104400000192214A1EF802A00EF1010E03EB0A0BE5
:1044100003F80A004FEA102A002808BF4846BEF1F8
:104420000D0F8BF801A0E5D1484503D0019A3CF867
:1044300012200AB941F0400119700123F3700021E4
:104440002846FFF798FD824600287FF44DAF013CD7
:10445000B7D1E9693046FFF7BBF9824600287FF4FF
:1044600043AF20225146286AFFF71DF80B22394638
:10447000286AFFF716F995F82F302A6A03F0180317
:1044800013730123F3702FE78E54010821100100EC
:104490002DE9F84FFF250668454F81462C464FF021
:1044A000040A4FF6FF78D9F81C1019B9BAF1000FB9
:1044B00071D064E03046FFF78BF9824600285ED168
:1044C000D9F820000378002B6FD0C27AE52B02F0D8
:1044D0003F0289F806204AD02E2B48D022F0200136
:1044E000082944D00F2A51D15A063ED503F0BF0403
:1044F000D9F81430457BC9F83030437BAB4236D114
:10450000C27E837E43EA02231BB283BB0278F1683A
:1045100002F03F02013A4FF00D0E0EFB02FE4FF08B
:10452000010C13F807A000EB0A0292F801B010F892
:104530000A2042EA0B22BCF1000F24D0BEF1FE0F8C
:1045400015D821F81E2094460EF1010E01330D2BD3
:10455000E7D103785B0605D5BEF1FE0F07D800232F
:1045600021F81E30013CE4B202E0A342C5D0FF2492
:1045700000214846FFF7FFFC8246002893D0002325
:10458000C9F81C3009E04245E0D0F0E744B9FFF734
:104590001EF8A84204D14FF0000A5046BDE8F88F3B
:1045A0004FF0FF33C9F83030F7E74FF0040AE6E781
:1045B0008E5401082DE9F74F0B78D0F800B02F2B5F
:1045C0000646884601D05C2B0AD1424613782F2B31
:1045D000904602F10102F9D05C2BF7D0002301E0F4
:1045E000DBF81830B36098F800301F2B53D88023C5
:1045F0000021304686F82F3003B0BDE8F04FFFF7BA
:1046000079BB5C2857D0B4F5807F0BD0012101F035
:10461000F9FA38B17F2807D8944A12F8013F1BB144
:104620009842FAD10620E0E027F8020F25463AE04A
:10463000022D55D1B9F802302E2B51D14CE0002378
:1046400029F8153006F124029D4294BF20212E2125
:1046500001330B2B02F8011BF6D144F0200486F83D
:104660002F403046FFF728FD96F82F30002840F005
:10467000AE805A0700F1B980B379DB0640F1BC8007
:1046800073699BF80000C3F308030BF13801194468
:10469000FFF710F8B0603368D3F80C9008F1FF3AD8
:1046A000A9F1020700251AF8010F1F2805F10104DE
:1046B0000BD92F28A5D108EB0403A3EB080413F8AA
:1046C000012B2F2AF9D05C2AF7D01F28A0448CBFD9
:1046D00000240424012DABD1B9F800302E2BAED02C
:1046E00009EB45037DBB002709EB450329F815704D
:1046F000002D97D020210B2206F12400FEF7D3FED7
:10470000394639F81120202A25D02E2A23D009B184
:1047100044F0030433F8022D2E2A01D0013DF9D1D3
:104720004FF0000A0823574639F811004A1C0028A8
:104730006BD0202803D02E280FD195425ED044F0B4
:1047400003041146F0E733F8022D202A01D02E2A67
:10475000C9D1013DC6E70131D3E79A4550D2954210
:104760000ED10B2B05D14DE0954202D044F003044D
:104770004BD3BF00FFB22A460B234FF0080AE0E7F5
:104780007F280FD900218DE80C0001F03BFA9DE84D
:104790000C0018B13649084410F8800C80B244F07F
:1047A000020438B1DFF8CCE01EF8011F00294FD019
:1047B0008142F9D144F003045F2006EB0A010AF1BB
:1047C000010A81F82400BCE747F00207F5E7042856
:1047D0000BD113F0200F03F0040309D0002B3FF49A
:1047E0005AAF802386F82F30002003B0BDE8F08F49
:1047F000002B08BF0520F8E70520F6E79A45B0D35F
:104800000B2BB1D144F003040B2396F82420E52AA6
:1048100004BF052286F82420082B04BFBF00FFB286
:1048200007F00C030C2B03D007F00302032A01D17D
:1048300044F00204A1073FF512AF07F00307012F70
:1048400008BF44F01004042B08BF44F0080406E736
:10485000A0F141011929B7D9A0F1610119299EBF21
:10486000203847F0010780B2A7E700BFEB540108EA
:104870000E540108F4540108F0B585B016460190B5
:1048800004A8009140F8041DFEF7B0FE051E20DBD1
:10489000124951F825405CB1002311481A461F58AF
:1048A000BC4208BF1A501033902BF8D1002323705C
:1048B000019B0BB100221A70019841F8250030B11C
:1048C000012E08D1002201A96846FEF7DDFF05B0E0
:1048D000F0BD0B20FBE70020F9E700BF38090020FE
:1048E000400900202DE9F04790B090460191044620
:1048F000002800F0D28002F03F052A4602A901A854
:10490000FEF7C2FF074660BB10AE029B46F8343D7F
:1049100001993046FFF74EFE58B99DF93B30002B08
:1049200016DB15F03E0F14BF012100213046FEF7C3
:10493000C1FD18F01C0F77D0B8B104280ED1714911
:1049400000231A0152582AB93046FFF76BFC05E0E4
:104950000620EEE70133092BF3D1122045F00805BC
:1049600060B100232360074691E09DF8123013F0F8
:10497000110F64D118F0040F40F0BD8028073DD519
:1049800007F04AFC024601460B980E30FEF783FD05
:104990000B9811461630FEF77EFD0B9BDDF8089054
:1049A0002022DA72DDF82CA099F800005146FEF7BB
:1049B00081FE0022514680464846FEF789FE0B9B49
:1049C00000221A775A779A77DA77029B0121D970F9
:1049D000B8F1000F12D0029B41463046D3F8349014
:1049E000FFF722FA0028BCD149460298FEF7F0FEF4
:1049F000029A08F1FF3313610028B2D1029B280705
:104A00005B6B636248BF45F0400515F0FE0F0B9BE2
:104A1000A36214BF012100213046FEF779FD206119
:104A200000283CD102209CE700289AD19DF8123042
:104A3000DA0662D418F0020FE0D0DB07DED50720DB
:104A40008FE72068FFF7FCF80128014623D9421CB4
:104A500050425041A5EB0805002848D0E1610028EC
:104A60007FF47FAFC5F308038BB1DDF808804046C3
:104A7000FEF7A2FD0028D5D000EB552222620123CB
:104A8000314698F801000AF058F9002837D1384625
:104A900010B0BDE8F0870220DCE70927F7E7029EA7
:104AA000DDF82C8030784146FEF704FEA06008F166
:104AB0001C00FEF7E8FC2660E060F388A38000217C
:104AC00004F12C06257561752162A1614FF4007215
:104AD0003046FEF7E8FCAB06D9D5E568002DD6D008
:104AE000029BA561B3F80A80A1684FEA4828A8454F
:104AF000A7D30020B2E7082033E7042031E70120E4
:104B00002FE700BF400900202DE9F04F9B4685B0FC
:104B100000238946CBF8003003A904461546FEF76A
:104B2000A5FD0646F8B9667DEEB9237DD90740F1AB
:104B30008F80E368A769DF1BAF4228BF2F4604F1CF
:104B40002C0A87B1A269C2F30803002B72D1039B20
:104B50005B89013B13EA522315D142B9A0680128B1
:104B60000CD802266675304605B0BDE8F08FE169C5
:104B700020680093FFF764F8009BF0E7421C01D126
:104B80000126EFE7E0610193039BE169009318467A
:104B9000FEF712FD0028E4D0019B7D0A03EB00081C
:104BA0002AD0009A0098528940785919914288BFBA
:104BB000D51A2B46424649460AF0BFF80028DFD1F5
:104BC00094F91430002B0BDA206AA0EB0800854220
:104BD00006D94FF40072514609EB4020FEF761FD03
:104BE0006D02A3692B44A361DBF800302B44A94478
:104BF000CBF800307F1BA4E7226A904518D094F9C7
:104C00001430002B0BDA00980123514640780AF04B
:104C1000AFF80028B4D1237D03F07F0323750398F8
:104C200001234246514640780AF087F80028A7D170
:104C3000C4F82080A169C1F30801C1F50075BD4227
:104C400028BF3D462A4651444846FEF72AFDC8E79C
:104C5000072688E72DE9F04F9B4685B0002389465B
:104C6000CBF8003003A904461746FEF7FFFC0646C2
:104C700028BB667D1EBB237D9A0740F1A880A369EF
:104C8000FB4228BFDF4304F12C0AA7B1A369C3F399
:104C90000802002A40F08980039A5289013A12EAF8
:104CA000532201921ED173B9A06870B90146204603
:104CB000FFF762F848B9237D43F04003237530467F
:104CC00005B0BDE8F08FE169F1E7012802D10226C5
:104CD0006675F4E7431C01D10126F9E7A368E0619A
:104CE00003B9A06094F91430002B0CDA0398226AFF
:104CF0004078012351460AF03BF80028ECD1237D8F
:104D000003F07F032375039BE16900931846FEF7C8
:104D100053FC0028DBD0019B7D0A03EB000832D056
:104D2000009B019A5B8900982A449A4288BF019AA5
:104D3000407888BF9D1A2B46424649460AF018F82B
:104D40000028C9D1216AA1EB08018D420AD94FF48C
:104D5000007209EB41215046FEF7A3FC237D03F0CE
:104D60007F0323756D02A369E2682B44A3619A4215
:104D70002CBFE260E360DBF800302B44A944CBF8A1
:104D800000307F1B81E7236A98450CD0A269E36855
:104D90009A4208D20098012342465146407809F0D1
:104DA000CCFF002898D1C4F82080A069C0F3080087
:104DB000C0F50075BD4228BF3D462A4649465044CD
:104DC000FEF76FFC237D63F07F032375CBE7072697
:104DD00075E7F7B501A90446FEF748FC054600282B
:104DE0003BD1237D5A0638D51B060CD50198226A83
:104DF0004078012304F12C0109F0BAFF80BB237D28
:104E000003F07F03237507F007FA616A07460198EC
:104E1000FEF7DEFC054600BBA66AF37A43F02003EA
:104E2000F372A26820683146FEF752FCE16806F191
:104E30001C00FEF730FB394606F11600FEF72BFB8F
:104E4000019BB5740122F574DA700198FEF775FCC8
:104E5000237D23F0400305462375284603B0F0BDAB
:104E60000125FAE713B50446FFF7B3FF48B901A9D6
:104E70002046FEF7FBFB20B92069FEF785FB00B951
:104E8000206002B010BD30B591B00022019002A99F
:104E900001A8FEF7F9FC044678B910A8029B40F877
:104EA000343D0199FFF786FB0446A0B99DF93B30DC
:104EB000002B05DA029B059A9A61204611B030BD9D
:104EC0009DF81230DB060AD5029D0B992878FEF773
:104ED000F1FBA861F1E7042808BF0524EDE70524EC
:104EE000EBE70000F0B5D7B0002201900E4602704B
:104EF00002A901A8FEF7C8FCC0B9029B03939B69F5
:104F000005933546059F9FB93C46019B5CB9374ADE
:104F1000127830321A70B5424FF03A025A705BD1B3
:104F20002F229A70033300221A70204657B0F0BD2A
:104F3000202103A8FEF7DEFE04460028E5D10A99E9
:104F40000298FEF745FC04460028DED1029B0B992F
:104F50001878FEF7AFFB2146059003A8FEF7CAFEBE
:104F600004460028D1D103A8FFF792FA044618BBE3
:104F7000029B0B991878FEF79DFB874215D110A96B
:104F800003A8FEF787FF10AB23449B7DC3B9E31C46
:104F90009D421FD3291B2B46601B8B4212D1E44339
:104FA0002544019B2F225A55ACE7214603A8FEF762
:104FB000E2FF04460028D6D0042C08BF0224A4E750
:104FC0000134E0E7013B10AFC2183A44977D019AE3
:104FD000D754E2E7112498E70233019A525D03F8AF
:104FE000012B0135AE42F8D89DE700BF34090020FF
:104FF000F7B50D4601A90446FEF738FB0646002822
:105000006CD1667D002E69D1E368AB4204D2227D6B
:1050100012F0020F08BF1D460022A369A261002DF5
:105020002FD12F4609E00027E368A5699D4281BF83
:10503000237DE56043F040032375C5F30805002D8B
:105040004CD0226ABA4249D094F91430002B04F1B2
:105050002C050BDA019801232946407809F088FED7
:10506000002840D1237D03F07F032375019801239D
:105070003A462946407809F060FE002833D127627D
:105080002CE0019A57897F02F3B1013B6A1EB3FB02
:10509000F7F1B2FBF7F28A4216D37A421340E16984
:1050A000A361ED1A0029BED0BD4221D8A3692B44CB
:1050B000A361C5F30803002BB5D00198FEF77CFA75
:1050C00050B100EB5527AFE7A16879B92046FEF74C
:1050D00053FE0128014604D102266675304603B00E
:1050E000F0BD013001D10126F7E7A160E161D9E708
:1050F000A3693B44A361237D9A07A5EB070506D569
:105100002046FEF739FE014628B90546CEE720685D
:10511000FEF796FD01464B1CE5D00129DCD9019B29
:10512000DB699942D8D2E161BEE730B585B005466A
:10513000019100283BD0002203A901A8FEF7A4FB9F
:10514000044600BB039B2B6001992846FFF732FA07
:105150000446A8B995F92F30002B08DBAB79DB06A4
:1051600021D5039B296A1878FEF7A4FAA860039B4F
:10517000DB88AB8000212846FEF7BCFD044628B141
:10518000042C08BF052400232B6007E0AB6843B163
:1051900021462846FEF7BCF9286130B1204605B00B
:1051A00030BD2C61FAE70524EDE71224EBE7092472
:1051B000F4E737B501A90546FEF758FA044618B9D1
:1051C000286920B900232B60204603B030BDFEF7CC
:1051D000DBF90028F6D00446F6E773B50D4601A9C1
:1051E0000446FEF743FA20B92DB901462046FEF7E2
:1051F00081FD02B070BD2046FFF74AF910F0FB06B2
:10520000F7D129462046FEF745FE31462046FEF7F7
:10521000B2FE042808BF0020EBE730B591B00D4680
:105220000190002203A901A8FEF72EFB044670B9E5
:10523000019903A8FFF7BEF9044640B99DF93B3038
:10524000002B07DB1DB1294603A8FEF723FE2046ED
:1052500011B030BD0624FAE72DE9F04385B0894648
:105260000190164603A9002201A8FEF70DFB054692
:1052700050B9039C3460D4F81C806369A8F1020221
:10528000934205D8C9F80030284605B0BDE8F08340
:105290002378012B19D10227064639462046FEF70E
:1052A000CFFC431C3AD001283AD000B90136039B09
:1052B000DB6901379F42F0D3039BC9F800601A797C
:1052C0005E6142F001021A71DEE7A16A07460446F8
:1052D00006464FB903984F1CFEF77AFA10BB039CA1
:1052E000394638344FF40077039B1B78022B0BD1DF
:1052F0006278237853EA022308BF01360234023F62
:10530000B8F10108E5D1D7E72046FEF7BCF830F048
:10531000704308BF01360434043FF1E70125CBE7B1
:105320000225C9E70546C7E7F0B59FB00222019004
:1053300003A901A8FEF7A8FA039B04930446B0B999
:10534000019904A8FFF736F9044680B99DF83F504B
:10535000A80618D4022104A8FEF7ACF8044630B918
:10536000290610D49DF81670FA070ED5072420469A
:105370001FB0F0BD0246294604A8FEF755FD0446BD
:105380000028F4D125E00624F1E7039E0C9930783B
:10539000FEF790F9FB06054613D5B3699D42E5D0AB
:1053A000214611A811961395FEF7A4FC0446002887
:1053B000DDD111A8FFF76CF804460028D6D00428E8
:1053C000D5D104A8FEF750FE04460028CFD1002D09
:1053D000D0D10398FEF7B1F90446C8E72DE9F047AC
:1053E00090B00222019002A901A8FEF74DFA029B9B
:1053F00003930446002840F09C80019903A8FFF71E
:10540000D9F80446002800F09880042840F09180E4
:105410009DF83B1011F0200140F0918003A8FEF7A9
:10542000ABFC029A53895B0206930546002858D0CC
:10543000012D54D06B1C40F08480012406F0ECFE5A
:105440008046002C45D1029E29463046FEF7B4F82E
:1054500006F1380721464FF4007281463846FEF7C0
:1054600022F80B2220213846FEF71DF84FF02E0AB5
:10547000102386F84330414606F14E0086F838A0E6
:10548000FEF709F806F158042A4639460298FEF755
:105490001FF9202220463946FEF703F9029886F8C4
:1054A00059A00378059A032B03D1C36A9A4208BF17
:1054B00000222146FEF70CF9029B5E894FF0010A9B
:1054C000B144A9EB060276B903A8FEF7ABFE044689
:1054D000D8B10022294603A8FEF7A6FC29E0022441
:1054E000ACE70724AAE7029B83F803A05A6302985B
:1054F000FEF71DF904460028EBD101464FF4007277
:105500003846FDF7D0FF013EDBE70B9C414604F136
:105510001600FDF7C0FF21462A460298FEF7D8F88C
:105520001023E372029B0122DA700298FEF705F95C
:105530000446204610B0BDE8F0870824F9E70624A9
:10554000F7E71046FEF7F3F8044677E7F0B5A5B0A5
:10555000019024A840F8901DFEF748F8022203A904
:1055600001A8FEF791F900286ED124AC039B44F802
:10557000683D01992046FFF71DF8002864D19DF889
:10558000573013F0A00F61D102212046FDF792FFA2
:10559000002859D1129915220B3104A8FEF781F881
:1055A000214617A83422FEF77CF8009917A8FFF7C8
:1055B00001F848B90C9B199A9A4203D10F9B1C9A87
:1055C0009A4203D008203FE004283DD117A8FEF7F7
:1055D00029FE002838D11F9D13220DF1120105F17B
:1055E0000D00FEF75EF89DF8103043F02003EB72DB
:1055F000039B0127DF70EB7ADB061ED5199B0C9A03
:105600009A421AD0039E29463078FEF753F8014695
:105610003046FDF7D1FF0146D0B13046FEF7D8F84D
:1056200090B9039890F859302E2B06D1199A00F1B1
:105630005801FEF74DF8039BDF702046FEF714FD7E
:1056400010B90398FEF779F825B0F0BD0620FBE706
:105650000220F9E730B591B00D460190144602A939
:10566000022201A8FEF710F9029B039350B9019999
:1056700003A8FEF79FFF28B99DF83B3013F0A00F59
:1056800002D0062011B030BD0B9AD37A5D402C4079
:1056900004F027045C40029BD4720122DA70029865
:1056A000FEF74BF8EEE700002DE9F04F8DB00CAFA0
:1056B0000D4647F80C0D384616461C46FDF796FF7A
:1056C0000028C0F28F82BB4B53F820300BB1002270
:1056D0001A70C3B21846009309F0F6FAC30700F136
:1056E0008382470700F182820AAA0321009809F009
:1056F00007FB30B90A9A531EB3F5004F01D21A4284
:1057000001D001230A9346B1AB4BA6F500729A4231
:1057100003D913200DB0BDE8F08F731E3342F8D1CA
:10572000169B23F4FF7323F0010303930BB90E20A0
:10573000F0E70BAA0121009809F0E2FA002840F0F6
:10574000328115F0080302930B9B0CBF4FF03F0B07
:105750004FF0000B9B45EAD8A3EB0B037F2B0B9379
:10576000E5D9720A802AD4D815F00201049105D037
:1057700005F00701022957D0E80755D5E907C8D534
:105780000227190B0691590C05910A99481E4942A6
:105790000890079140F6F57C4FF6F57E032F49D12E
:1057A000002A45D18548012630F8021F11B1059D18
:1057B0008D423BD2B3FBF6F181488D00A1F57F41CC
:1057C000F63905F2072581424FEA5525AFD8002169
:1057D00001914FF0200A01990AEB0B08681808990B
:1057E00000EB0809079849440140A1EB0901032F88
:1057F00006BF8A4488446D18CBEB061109EB010003
:10580000834294D3A3EB0A090199A9EB0509032F5D
:10581000A9EB0109B9FBF6F931D1F1454FD8002ABE
:1058200085D1760883D038E00327AAE77600BBE766
:105830001646BFE70ABB6348012630F8021F11B1C4
:10584000069D8D4217D2B3FBF6F565459BBF05EB70
:105850004505013502356D088CBF6D00033505F235
:10586000FF154FF020018CBF022701276D0A01911F
:105870004FF0010AAFE77600DFE71646E3E7022FB5
:1058800017D1F1450BD9002A40F0B2817600402EA5
:1058900003D9049949B11646032732467EE7E1450C
:1058A0000DD8002A7FF443AF7600802E3FF63FAF3D
:1058B000F3E740F6F57399453FF639AF01274FF40A
:1058C000007200212046FDF7EEFD0B223E492046E6
:1058D000FDF7E7FE0B9984F80EA000230222032FA8
:1058E000E3722273CAF3072A4FF00102637418BFF0
:1058F0000223B1F5803F667384F80FA02274A3746D
:1059000053D2E174C1F307212175F82363753F2356
:1059100023764FF0000AFF2384F819A0A37684F8B9
:105920001BA0594604F11C00FDF7B5FD032F4FD114
:1059300006F072FC014604F14300FDF7ACFD294678
:1059400004F12400FDF7A7FD022384F82C30012385
:1059500084F83030062384F83230802384F84030D5
:105960001A4984F82DA0292384F82EA084F82FA0AA
:1059700084F831A084F833A084F84230132204F173
:105980004700FDF78EFE4FF0550384F8FE316FF0AF
:10599000550384F8FF315A4601232146009809F047
:1059A000E7F9824650B30120B4E604F12000FDF788
:1059B00072FDAAE73809002000FEFF00A854010884
:1059C000FFFFFE0F9A540108B8540108C45401089F
:1059D00006F022FC014604F12700FDF75CFDC5F34B
:1059E0000723E375802384F824302923A57584F8E0
:1059F00026301322814904F12B00C2E7032F41D145
:105A000001230BF106022146009809F0B1F94FF489
:105A1000007251462046FDF746FD52234122722175
:105A2000237063706123A370E27084F8E41184F83A
:105A3000E51184F8E62184F8E73109F1FF3104F536
:105A4000F470FDF728FD022384F8EC314FF0550384
:105A500084F8FE316FF0550384F8FF310BF1070233
:105A60000123214684F8EDA184F8EEA184F8EFA18A
:105A7000009809F07DF901230BEB03022146009801
:105A800009F076F9039A00212046FDF70CFD032F5B
:105A90005FD1F8232370FF236370A370E370237139
:105AA0006371A371E37123726372A3720F23E372B4
:105AB000169B4FEA532A5545A94628BFD146214691
:105AC0004B464246009809F053F9014600287FF4FE
:105AD0006AAF4FF400722046FDF7E5FCC84464222B
