:020000040800F2
:1000000000000420D9110008211200082112000864
:10001000211200082112000821120008000000002F
:100020000000000000000000000000002112000895
:10003000211200080000000021120008CD21010853
:100040002112000821120008211200085521010880
:100050002112000821120008411F01082112000886
:1000600021120008211200082112000821120008A4
:100070002112000821120008211200082112000894
:100080002112000821120008211200082112000884
:100090002112000821120008211200082112000874
:1000A0002112000821120008211200082112000864
:1000B0002112000821120008211200082112000854
:1000C0002112000821120008211200082112000844
:1000D0002112000821120008211200082112000834
:1000E0003D210108211200082112000821120008F8
:1000F0002112000821120008211200082112000814
:100100002112000821120008211200082112000803
:1001100021120008211200082112000821120008F3
:1001200021120008211200082112000821120008E3
:1001300021120008211200082112000821120008D3
:10014000211200080521010825210108D1210108FB
:1001500021120008211200082112000821120008B3
:1001600021120008211200082112000821120008A3
:1001700021120008211200082112000800000000CE
:100180002112000821120008211200082112000883
:100190002112000821120008211200082112000873
:0C01A000211200082112000800000000DD
:1001B00001F0FF01102A2BDB10F0070F08D010F818
:1001C000013B013A8B422DD010F0070F42B3F6D11C
:1001D000F0B441EA012141EA014122F007047FF035
:1001E00000070023F0E80256083C85EA010586EA8C
:1001F000010685FA47F5A3FA87F586FA47F6A5FAC8
:1002000087F68EB9EED1F0BC01F0FF0102F00702D3
:1002100032B110F8013B013A83EA010313B1F8D17E
:100220000020704701387047002D06BF354603385F
:10023000073815F0010F07D1013015F4807F02BF98
:10024000013015F4C03F0130F0BC0138704700BFE9
:10025000034613F8012B002AFBD1181A0138704706
:1002600081F0004102E000BF83F0004330B54FEA67
:1002700041044FEA430594EA050F08BF90EA020FD4
:100280001FBF54EA000C55EA020C7FEA645C7FEA67
:10029000655C00F0E2804FEA5454D4EB5555B8BF8A
:1002A0006D420CDD2C4480EA020281EA030382EAFB
:1002B000000083EA010180EA020281EA0303362D8D
:1002C00088BF30BD11F0004F4FEA01314FF4801C60
:1002D0004CEA113102D0404261EB410113F0004F72
:1002E0004FEA03334CEA133302D0524263EB430329
:1002F00094EA050F00F0A780A4F10104D5F1200EC7
:100300000DDB02FA0EFC22FA05F2801841F1000121
:1003100003FA0EF2801843FA05F359410EE0A5F1F5
:1003200020050EF1200E012A03FA0EFC28BF4CF026
:10033000020C43FA05F3C01851EBE37101F00045DC
:1003400007D54FF0000EDCF1000C7EEB00006EEBE9
:100350000101B1F5801F1BD3B1F5001F0CD3490873
:100360005FEA30004FEA3C0C04F101044FEA4452CA
:1003700012F5800F80F09A80BCF1004F08BF5FEA51
:10038000500C50F1000041EB045141EA050130BD31
:100390005FEA4C0C404141EB010111F4801FA4F1D4
:1003A0000104E9D191F0000F04BF01460020B1FA29
:1003B00081F308BF2033A3F10B03B3F120020CDA61
:1003C0000C3208DD02F1140CC2F10C0201FA0CF03F
:1003D00021FA02F10CE002F11402D8BFC2F1200CA4
:1003E00001FA02F120FA0CFCDCBF41EA0C0190405A
:1003F000E41AA2BF01EB0451294330BD6FEA0404A3
:100400001F3C1CDA0C340EDC04F11404C4F120028D
:1004100020FA04F001FA02F340EA030021FA04F39F
:1004200045EA030130BDC4F10C04C4F1200220FAF6
:1004300002F001FA04F340EA0300294630BD21FA34
:1004400004F0294630BD94F0000F83F4801306BFFA
:1004500081F480110134013D4EE77FEA645C18BFEE
:100460007FEA655C29D094EA050F08BF90EA020F85
:1004700005D054EA000C04BF1946104630BD91EA7D
:10048000030F1EBF0021002030BD5FEA545C05D180
:100490004000494128BF41F0004130BD14F58004BF
:1004A0003CBF01F5801130BD01F0004545F0FE4133
:1004B00041F470014FF0000030BD7FEA645C1ABF68
:1004C000194610467FEA655C1CBF0B46024650EA9F
:1004D000013406BF52EA033591EA030F41F40021CB
:1004E00030BD00BF90F0000F04BF0021704730B551
:1004F0004FF4806404F132044FF000054FF0000126
:1005000050E700BF90F0000F04BF0021704730B5E6
:100510004FF4806404F1320410F0004548BF4042BB
:100520004FF000013EE700BF42004FEAE2014FEA10
:1005300031014FEA02701FBF12F07F4393F07F4FEB
:1005400081F06051704792F0000F14BF93F07F4F1D
:10055000704730B54FF4607401F0004521F0004160
:1005600020E700BF50EA010208BF704730B54FF0E6
:1005700000050AE050EA010208BF704730B511F0EB
:10058000004502D5404261EB41014FF4806404F123
:1005900032045FEA915C3FF4DCAE4FF003025FEAA5
:1005A000DC0C18BF03325FEADC0C18BF033202EB2D
:1005B000DC02C2F1200300FA03FC20FA02F001FA87
:1005C00003FE40EA0E0021FA02F11444C1E600BF26
:1005D00070B54FF0FF0C4CF4E06C1CEA11541DBFD9
:1005E0001CEA135594EA0C0F95EA0C0F00F0DEF8A4
:1005F0002C4481EA030621EA4C5123EA4C5350EA89
:10060000013518BF52EA033541F4801143F48013D9
:1006100038D0A0FB02CE4FF00005E1FB02E506F06A
:100620000042E0FB03E54FF00006E1FB03569CF0BF
:10063000000F18BF4EF0010EA4F1FF04B6F5007FC5
:1006400064F5407404D25FEA4E0E6D4146EB060637
:1006500042EAC62141EA55514FEAC52040EA5E50C0
:100660004FEACE2EB4F1FD0C88BFBCF5E06F1ED86A
:10067000BEF1004F08BF5FEA500E50F1000041EBA1
:10068000045170BD06F0004646EA010140EA02004E
:1006900081EA0301B4EB5C04C2BFD4EB0C0541EA70
:1006A000045170BD41F480114FF0000E013C00F385
:1006B000AB8014F1360FDEBF002001F0004170BDA9
:1006C000C4F10004203C35DA0C341BDC04F11404C2
:1006D000C4F1200500FA05F320FA04F001FA05F24E
:1006E00040EA020001F0004221F0004110EBD3701B
:1006F00021FA04F642EB06015EEA430E08BF20EA47
:10070000D37070BDC4F10C04C4F1200500FA04F3E9
:1007100020FA05F001FA04F240EA020001F000417B
:1007200010EBD37041F100015EEA430E08BF20EAEE
:10073000D37070BDC4F1200500FA05F24EEA020E36
:1007400020FA04F301FA05F243EA020321FA04F065
:1007500001F0004121FA04F220EA020000EBD3701C
:100760005EEA430E08BF20EAD37070BD94F0000F1C
:100770000FD101F00046400041EB010111F4801F50
:1007800008BF013CF7D041EA060195F0000F18BF01
:10079000704703F00046520043EB030313F4801F3D
:1007A00008BF013DF7D043EA0603704794EA0C0FF7
:1007B0000CEA135518BF95EA0C0F0CD050EA41060D
:1007C00018BF52EA4306D1D181EA030101F000418A
:1007D0004FF0000070BD50EA410606BF10461946B2
:1007E00052EA430619D094EA0C0F02D150EA0136BE
:1007F00013D195EA0C0F05D152EA03361CBF1046FF
:1008000019460AD181EA030101F0004141F0FE419D
:1008100041F470014FF0000070BD41F0FE4141F421
:10082000780170BD70B54FF0FF0C4CF4E06C1CEA21
:1008300011541DBF1CEA135594EA0C0F95EA0C0FD6
:1008400000F0A7F8A4EB050481EA030E52EA033591
:100850004FEA013100F088804FEA03334FF08055B2
:1008600045EA131343EA12634FEA022245EA1115DF
:1008700045EA10654FEA00260EF000419D4208BF90
:10088000964244F1FD0404F5407402D25B084FEA3D
:100890003202B61A65EB03055B084FEA32024FF4E9
:1008A00080104FF4002CB6EB020E75EB030E22BF46
:1008B000B61A754640EA0C005B084FEA3202B6EB06
:1008C000020E75EB030E22BFB61A754640EA5C00B5
:1008D0005B084FEA3202B6EB020E75EB030E22BF45
:1008E000B61A754640EA9C005B084FEA3202B6EB46
:1008F000020E75EB030E22BFB61A754640EADC0005
:1009000055EA060E18D04FEA051545EA16754FEA66
:1009100006164FEAC30343EA52734FEAC2025FEA84
:100920001C1CC0D111F4801F0BD141EA00014FF013
:1009300000004FF0004CB6E711F4801F04BF0143E4
:100940000020B4F1FD0C88BFBCF5E06F3FF6AFAE00
:10095000B5EB030C04BFB6EB020C5FEA500C50F190
:10096000000041EB045170BD0EF0004E4EEA113113
:1009700014EB5C04C2BFD4EB0C0541EA045170BD1A
:1009800041F480114FF0000E013C90E645EA060E5E
:100990008DE60CEA135594EA0C0F08BF95EA0C0F8C
:1009A0003FF43BAF94EA0C0F0AD150EA01347FF4D4
:1009B00034AF95EA0C0F7FF425AF104619462CE7AB
:1009C00095EA0C0F06D152EA03353FF4FDAE10460E
:1009D000194622E750EA410618BF52EA43067FF45F
:1009E000C5AE50EA41047FF40DAF52EA43057FF4EF
:1009F000EBAE12E74FF0FF3C06E000BF4FF0010CFA
:100A000002E000BF4FF0010C4DF804CD4FEA410C5D
:100A10007FEA6C5C4FEA430C18BF7FEA6C5C1BD02A
:100A200001B050EA410C0CBF52EA430C91EA030FAB
:100A300002BF90EA020F0020704710F1000F91EA08
:100A4000030F58BF994208BF90422CBFD8176FEAD6
:100A5000E37040F0010070474FEA410C7FEA6C5CA4
:100A600002D150EA013C07D14FEA430C7FEA6C5CAB
:100A7000D6D152EA033CD3D05DF8040B704700BFD7
:100A80008446104662468C461946634600E000BF25
:100A900001B5FFF7B7FF002848BF10F1000F01BDF7
:100AA0004DF808EDFFF7F4FF0CBF012000205DF8C2
:100AB00008FB00BF4DF808EDFFF7EAFF34BF012047
:100AC00000205DF808FB00BF4DF808EDFFF7E0FFE0
:100AD00094BF012000205DF808FB00BF4DF808ED31
:100AE000FFF7CEFF94BF012000205DF808FB00BF98
:100AF0004DF808EDFFF7C4FF34BF012000205DF87A
:100B000008FB00BF4FEA410C7FEA6C5C02D150EA5F
:100B1000013C0AD14FEA430C7FEA6C5C02D152EAF5
:100B2000033C02D14FF0000070474FF001007047C6
:100B30004FEA410212F5001215D211D56FF4787305
:100B4000B3EB625212D94FEAC12343F0004343EAA8
:100B5000505311F0004F23FA02F018BF4042704783
:100B60004FF00000704750EA013005D111F000400D
:100B700008BF6FF0004070474FF00000704700BFA3
:100B80004A0011D212F5001211D20DD56FF478730C
:100B9000B3EB62520ED44FEAC12343F0004343EA61
:100BA000505323FA02F070474FF00000704750EAAC
:100BB000013002D14FF0FF3070474FF00000704716
:100BC0004FEA4102B2F1E04324BFB3F5001CDCF16F
:100BD000FE5C0DD901F0004C4FEAC0024CEA5070A7
:100BE000B2F1004F40EB830008BF20F001007047D6
:100BF00011F0804F21D113F13872BCBF01F00040D9
:100C0000704741F480114FEA5252C2F11802C2F10A
:100C1000200C10FA0CF320FA02F018BF40F001008B
:100C20004FEAC1234FEAD32303FA0CFC40EA0C003D
:100C300023FA02F34FEA4303CCE77FEA625307D17A
:100C400050EA01331EBF4FF0FE4040F440007047B1
:100C500001F0004040F0FE4040F40000704700BF4B
:100C600080F0004002E000BF81F0004142001FBF61
:100C70005FEA410392EA030F7FEA226C7FEA236C6A
:100C80006AD04FEA1262D2EB1363C1BFD21841405F
:100C900048404140B8BF5B42192B88BF704710F0F5
:100CA000004F40F4000020F07F4018BF404211F098
:100CB000004F41F4000121F07F4118BF494292EA00
:100CC000030F3FD0A2F1010241FA03FC10EB0C002C
:100CD000C3F1200301FA03F100F0004302D54942B9
:100CE00060EB4000B0F5000F13D3B0F1807F06D366
:100CF00040084FEA310102F10102FE2A51D2B1F15E
:100D0000004F40EBC25008BF20F0010040EA030052
:100D10007047490040EB000010F4000FA2F10102FF
:100D2000EDD1B0FA80FCACF1080CB2EB0C0200FA89
:100D30000CF0AABF00EBC25052421843BCBFD040D7
:100D40001843704792F0000F81F4000106BF80F451
:100D500000000132013BB5E74FEA41037FEA226C14
:100D600018BF7FEA236C21D092EA030F04D092F0DF
:100D7000000F08BF0846704790EA010F1CBF002013
:100D8000704712F07F4F04D1400028BF40F0004070
:100D9000704712F100723CBF00F50000704700F090
:100DA000004343F0FE4040F4000070477FEA2262B7
:100DB00016BF08467FEA23630146420206BF5FEA88
:100DC000412390EA010F40F4800070474FF0000388
:100DD00004E000BF10F0004348BF40425FEA000C4F
:100DE00008BF704743F0964301464FF000001CE0F7
:100DF00050EA010208BF70474FF000030AE000BF4D
:100E000050EA010208BF704711F0004302D540428A
:100E100061EB41015FEA010C02BF844601460020FC
:100E200043F0B64308BFA3F18053A3F50003BCFA17
:100E30008CF2083AA3EBC25310DB01FA02FC6344C4
:100E400000FA02FCC2F12002BCF1004F20FA02F2CB
:100E500043EB020008BF20F00100704702F12002BE
:100E600001FA02FCC2F1200250EA4C0021FA02F21F
:100E700043EB020008BF20EADC70704753B94AB95F
:100E8000002908BF00281CBF4FF0FF314FF0FF3092
:100E900000F0A0B9ADF1080C6DE904CE00F02CF81B
:100EA000DDF804E0DDE9022304B07047D0B5FFF7B8
:100EB0003BFB00220E4B06460F46FFF789FBFFF770
:100EC0005FFE0446FFF70EFB00220A4BFFF780FB94
:100ED00002460B4630463946FFF7C6F9FFF750FE8B
:100EE0002346002242EA000210461946D0BD00BF48
:100EF0000000F03D0000F0412DE9F0478C460D4622
:100F00000446089E002B51D18A4217466DD9B2FA89
:100F100082FEBEF1000F0BD0CEF1200C01FA0EF5CF
:100F200020FA0CFC02FA0EF74CEA050C00FA0EF45B
:100F30004FEA174A250CBCFBFAF81FFA87F90AFB9F
:100F400018CC45EA0C4508FB09F3AB420AD9ED1968
:100F500008F1FF3280F02381AB4240F22081A8F1FA
:100F600002083D44ED1AA4B2B5FBFAF00AFB105595
:100F700044EA054400FB09F9A14509D9E41900F147
:100F8000FF3380F00A81A14540F2078102383C44DA
:100F9000A4EB090440EA08400021002E61D024FAA5
:100FA0000EF4002334607360BDE8F0878B4207D9EC
:100FB000002E54D0002186E821000846BDE8F087C5
:100FC000B3FA83F1002940F08E80AB4202D3824213
:100FD00000F2FA80841A65EB03050120AC46002E6E
:100FE0003FD086E81010BDE8F08712B90127B7FBA3
:100FF000F2F7B7FA87FEBEF1000F34D1EB1B3A0CC3
:101000001FFA87FC0121B3FBF2F8250C02FB183311
:1010100045EA03450CFB08F3AB4207D9ED1908F18B
:10102000FF3002D2AB4200F2D1808046ED1AA3B26B
:10103000B5FBF2F002FB105543EA05440CFB00FC43
:10104000A44507D9E41900F1FF3302D2A44500F208
:10105000B8801846A4EB0C0440EA08409DE73146EE
:101060003046BDE8F087CEF1200405FA0EF307FA0A
:101070000EF720FA04F83A0C25FA04F448EA0308BB
:10108000B4FBF2F14FEA184502FB11441FFA87FC4A
:1010900045EA044501FB0CF3AB4200FA0EF409D912
:1010A000ED1901F1FF3080F08A80AB4240F2878079
:1010B00002393D44EB1A1FFA88F5B3FBF2F002FB4C
:1010C000103345EA034500FB0CF3AB4207D9ED1999
:1010D00000F1FF386FD2AB426DD902383D44EB1AB4
:1010E00040EA01418FE7C1F1200722FA07F88B405F
:1010F00005FA01F448EA030320FA07FE4FEA134C0D
:10110000FD404EEA040EB5FBFCF94FEA1E440CFB11
:1011100019551FFA83F844EA054509FB08F4AC4267
:1011200002FA01F200FA01FA08D9ED1809F1FF30CC
:1011300043D2AC4241D9A9F102091D442D1B1FFA2B
:101140008EFEB5FBFCF00CFB10554EEA054400FB8F
:1011500008F8A04507D9E41800F1FF3529D2A045C9
:1011600027D902381C4440EA0940A4EB0804A0FB3C
:1011700002894C45C6464D4615D312D056B1BAEB3E
:101180000E0364EB050404FA07F7CB401F43CC4081
:10119000376074600021BDE8F0871846F8E6904695
:1011A000E0E6C245EAD2B8EB020E69EB030501386E
:1011B000E4E72846D7E7404691E78146BEE7014687
:1011C00078E702383C4445E7084608E7A8F10208FA
:1011D0003D442BE7704700BFDFF82CD0002103E02F
:1011E0000A4B5B584350043109480A4B42189A4253
:1011F000F6D3094A02E0002342F8043B074B9A4227
:10120000F9D310F01BFDFEE70000042038F70108B9
:1012100000000020FC08002000090020088F0020AA
:10122000FEE7000073B5144CA36805469847236990
:101230009847236A280C2E0A0BB1636A93B9E369B5
:10124000C0B29847E369F0B29847E369E8B29847BB
:10125000A3699847636905469847E3689847284615
:1012600002B070BD8DF804008DF805608DF8065051
:10127000032101A89847EBE7DC000020F7B5164CE6
:10128000A36805460E46984723699847636A45F068
:101290000405280C2F0A8BB9E369C0B29847E369AB
:1012A000F8B29847E369E8B29847E369304698474F
:1012B00063699847E368984703B0F0BD04218DF84F
:1012C00004008DF805708DF806508DF807600DEB61
:1012D00001009847ECE700BFDC0000202DE9F34156
:1012E0001B4CA36805460F46164698472369984746
:1012F000236A280C4FEA15280BB1636AD3B9E36956
:10130000C0B29847E3695FFA88F09847E8B2E369AA
:101310009847013E7D1E3E44B54206D16369984719
:10132000E368984702B0BDE8F081A369984705F8E3
:10133000010FF1E78DF804008DF8058001A88DF804
:10134000065003219847236A314638469847E5E717
:10135000DC0000202DE9F3411B4CA36805460F4635
:101360001646984723699847636A45F00405280C98
:101370004FEA1528D3B9E369C0B29847E3695FFA29
:1013800088F09847E8B2E3699847013E7D1E3E44E5
:10139000B54206D163699847E368984702B0BDE853
:1013A000F081E36915F8010F9847F1E78DF8040023
:1013B0008DF8058001A88DF8065003219847636ACF
:1013C000314638469847E5E7DC000020F8B546018D
:1013D000083606F50057002406F504563846FFF790
:1013E00021FF000285B23046FFF71CFF0544ADB275
:1013F0004DB13846FFF716FF000284B23046FFF7C2
:1014000011FF0444A4B2AC42E8D12046F8BDF8B5BF
:101410004601083606F51857002406F51C563846CE
:10142000FFF700FF000285B23046FFF7FBFE0544E0
:10143000ADB24DB13846FFF7F5FE000284B230463A
:10144000FFF7F0FE0444A4B2AC42E8D12046F8BD58
:101450002DE9F8438946144622B387007D1CED0030
:1014600005F510584046FFF7DDFE05F51455064614
:101470002846FFF7D7FE00EB0626B6B22246023713
:1014800030023444494600EBC700A4B2FFF762FFC4
:10149000210A4046FFF7F2FEE1B22846BDE8F843D4
:1014A000FFF7ECBEBDE8F8832DE9F8438946144602
:1014B00022B387007D1CED0005F520584046FFF75C
:1014C000B1FE05F5245506462846FFF7ABFE00EBB6
:1014D0000626B6B22246033730023444494600EBB2
:1014E000C700A4B2FFF7FAFE210A4046FFF7C6FE86
:1014F000E1B22846BDE8F843FFF7C0BEBDE8F88377
:101500002DE9D8414601083606F5205738460C46E5
:10151000FFF788FE06F5245680463046FFF782FE28
:10152000044404EB0824A4B2210A3846FFF7A6FEBF
:10153000E1B23046BDE8D841FFF7A0BE0828F8B5B3
:10154000054630D84401083404F580771021384628
:10155000FFF794FE3846FFF765FE06460028F9D1EE
:101560001F2104F50070FFF789FE10490123AB40ED
:101570000A88DB431BB21A400A800D4A11880B40CF
:1015800013800C4B23F815600B4B5E550B4D04F587
:1015900040744AF6AA262046FFF744FE08B9012007
:1015A000F8BD2E60F7E74FF0FF30F8BD00090020CE
:1015B000020900200C09002004090020003000402E
:1015C00008282DE9F3410446884617461D467FD872
:1015D000012905D001D3042910D96FF004000AE0D5
:1015E00004220DEB02014FF47060FFF777FE019BC0
:1015F00023B96FF0020002B0BDE8F081680759D44A
:101600002DB1B8F1010F52D0B8F1020F55D02046DC
:101610006601FFF793FF083625F00F0141EA080144
:101620003046FFF72BFE6FB92B4A17887B1C9BB205
:101630004FF6F0718B4209BF4FF440431380138083
:101640004FF6EF77390A06F58060FFF717FEF9B21B
:1016500006F5A06006F58077FFF710FE01213846F9
:10166000FFF70CFE3846FFF7DDFD0028FAD11B49D5
:101670000122A2400B88D24312B205F001051340AB
:10168000A5401D43164B0D801988164D0A401A803F
:10169000154B23F81400154B185506F540764AF6FD
:1016A000AA273046FFF7BEFD80B160B2A3E715F070
:1016B000210FACD16FF005009DE7A90601D52A06E0
:1016C000F8D5EB06A3D515F0800FF2E72F60E8E719
:1016D0004FF0FF308FE700BFD80000200009002046
:1016E00002090020003000400C09002004090020FD
:1016F000082810B51CD8400100F108042046FFF767
:1017000091FD00F00F00012815D104F54070FFF79E
:1017100089FD132812D104F5807402212046FFF7B9
:10172000ADFD2046FFF77EFD0028FAD1012010BD57
:101730004FF0FF3010BD6FF0040010BD6FF00200DD
:1017400010BD000008282DE9F04105463BD84401B2
:1017500008342046FFF766FD00F00F00012836D15F
:1017600004F5807608213046FFF788FD3046FFF704
:1017700059FD0028FAD11849012303FA05F20B8814
:1017800023EA02030B80154B1B882B41DA0720D478
:10179000134F04F540764AF6AA283046FFF742FD7B
:1017A00010B90120BDE8F081C7F8008004F5007091
:1017B000FFF738FD0307F0D52846FFF7BFFE6FF0AF
:1017C0000C00BDE8F0814FF0FF30BDE8F0816FF014
:1017D0000400BDE8F08100BF0209002000090020DC
:1017E000003000402DE9F74F074689461546002A8C
:1017F00057D04401083404F5F850FFF713FD800278
:1018000080B28542284E294B28BF05464AF6AA2BAE
:1018100004F54078C3F800B038460193FFF7D6FDD1
:1018200082464046FFF7FEFC1728019B09D01C2882
:1018300007D03846FFF782FE6FF0060003B0BDE820
:10184000F08F554507D9013EE4D13846FFF776FEC3
:101850006FF00C00F2E7494638462A4604F58076D8
:10186000FFF7F6FD20213046FFF708FD3046FFF771
:10187000D9FC0028FAD104F500744046FFF7D2FCE9
:10188000172801D01C28D4D12046FFF7CBFC020733
:10189000DBD4C306F1D520461021FFF7EFFC284624
:1018A000CCE76FF00D00C9E740420F000030004068
:1018B0002DE9F74F46010836824606F5F0500F46EF
:1018C0009046FFF7AFFC244C054606F5407906F537
:1018D000F85B4AF6AA2323605046FFF798FD019073
:1018E0004846FFF79FFC1728019A31D01C2827D1C2
:1018F000DAB1AD02ACB2A04528BFA046904528BFE2
:1019000090461FFA88F839465046424606F58076DA
:10191000FFF7CAFD40213046FFF7B0FC3046FFF725
:1019200081FC0028FAD140460FE05046FFF74EFDFB
:1019300001905846FFF776FC019AB2EB802FC8D190
:101940005046FFF7FBFD6FF0060003B0BDE8F08FD7
:10195000002ABED0CDE700BF003000402DE9F74F90
:1019600008280646894692461F46BDF8304000F2D8
:10197000A080450108352846FFF754FC00F00F0011
:101980000238022800F29880BAF1000F00F0978028
:101990003B787A7802EB0322BB7803EB0222FB78D8
:1019A00003EB0223002B3FD0002C45D005F54078F7
:1019B0004046FFF737FC422846D10422394605F558
:1019C0004060FFF7C7FC210A05F58050FFF756FC81
:1019D000E1B205F58850FFF751FC05F5F850FFF727
:1019E00021FC800280B2504528BF50460127DFF815
:1019F000E0B0364A0446B7404AF6AA230192304680
:101A0000CBF800300093FFF7E1FC82464046FFF739
:101A100009FC002856D0019A009B118839421AD03F
:101A200054451AD9002038E02846FFF7FBFB400751
:101A3000BAD46FF00B0030E02846FFF7F3FB410704
:101A4000B4D46FF00A0028E000F0EF002228B4D0F0
:101A50006FF0060021E05445D0D830464946224672
:101A600005F58076FFF7F4FC20213046FFF706FCF1
:101A70003046FFF7D7FB0028FAD1154E4AF6AA27C1
:101A800005F5007537602846FFF7CCFBC20607D581
:101A900028461021FFF7F2FB204603B0BDE8F08F87
:101AA0000307EFD528460821FFF7E8FB6FF00C008D
:101AB000F3E74FF0FF30F0E76FF00400EDE76FF071
:101AC0000D00EAE76FF00300E7E700BF0009002020
:101AD000003000402DE9F04F082887B004468A46C0
:101AE0009146984600F2F180012505EB8007FF0042
:101AF0003846FFF797FB00F00F02023A022A014630
:101B000000F2E680B9F1000F00F0E580754E36F87E
:101B10001430002B40F08180734A05FA04F307F576
:101B2000407B02934AF6AA23039120461360019258
:101B3000FFF76DFC05465846FFF774FB002800F0E0
:101B4000CD806A4B019A1888029B0399184202D0F3
:101B50001DB9284688E0002DE3D001F00703032BD0
:101B600007F5807700F08380042B58D0022B40F0DB
:101B7000A58036F8143083BB04A920460822FFF75D
:101B800093FC40213846FFF779FB3846FFF74AFBC4
:101B90000028FAD19DF8103088F800309DF81130F7
:101BA00088F801309DF8123088F802309DF8133023
:101BB00088F803309DF814209DF8153003EB0223BC
:101BC000109A13809DF816209DF8173003EB02231E
:101BD00026F81430464B80221A5536F814504D45DD
:101BE00028BF4D462A4651462046FFF75DFC40215E
:101BF0003846FFF743FB3846FFF714FB0028FAD1BD
:101C000036F814303A4A5B1B9BB226F8143013B1F5
:101C1000135D43F0010313559BE700259DE736F85C
:101C20001430002BD9D104A920460222FFF73CFC36
:101C300040213846FFF722FB3846FFF7F3FA002829
:101C4000FAD19DF811309DF81020023B03EB0223DE
:101C50009BB240F2EA52934226F81430BAD9204699
:101C6000FFF76CFC6FF47A7007B0BDE8F08F36F8C0
:101C70001430002BB1D104A920460622FFF714FC32
:101C800040213846FFF7FAFA3846FFF7CBFA00282A
:101C9000FAD19DF8103088F800309DF8113088F89E
:101CA00001309DF8123088F802309DF8133088F822
:101CB00003309DF814209DF8153087E7294620460B
:101CC000FFF71EFC26F8145091E74FF0FF30CBE7EA
:101CD0006FF00400C8E76FF00D00C5E76FF0030078
:101CE000C2E700BF0C0900200030004000090020BE
:101CF000040900200828F8B5154600F2848001394F
:101D0000062900F28380DFE801F0040F1727324034
:101D10007000012404EB8000C000117800F5B05081
:101D2000FFF7ACFA2046F8BD012404EB8000C000A8
:101D3000117800F5A850F3E7012606EB8000118822
:101D4000C400090A04F59050FFF798FA297804F5C1
:101D50009850FFF793FA39E00422012412FB004067
:101D6000C000294600F54060FFF7F4FADAE70126E3
:101D700006EB80001188C400090A04F58050FFF7C3
:101D80007DFA297804F58850E3E7400100F1080462
:101D90002046FFF747FA00F00F00012802D06FF04D
:101DA0000404BFE704F53C50FFF73CFA88BB04F598
:101DB000807522212846FFF761FA174E4AF6AA27B6
:101DC00004F500742846FFF72DFA08B90124A9E7A5
:101DD00037602046FFF726FA0307F3D5204608218F
:101DE000FFF74CFA6FF00C049CE7400100F1080487
:101DF0002046FFF717FA00F00F06012ECFD1297801
:101E000004F53C50A5E74FF0FF348BE76FF0090471
:101E100088E76FF0010485E70030004070470078E4
:101E200070470170704700207047704770477047D7
:101E300070470000054B00B121B9054A1A61054AF7
:101E40005A61704718615961704700BFDC0000207B
:101E5000311E00081D1E000810B5084B1C88A40583
:101E60001A4600D4FEE700B121B9054B9361054B3A
:101E7000D36110BD9861D96110BD00BFDC000020A6
:101E8000271E00082B1E00087FB5062204A94FF468
:101E90001060FFF723FA04220DEB02014FF480706B
:101EA000FFF71CFA02A904224FF4A060FFF716FA0C
:101EB000042203A94FF47060FFF710FA802100207C
:101EC000FFF7DCF90020FFF7ADF904A906224FF473
:101ED0001060FFF73FFA04220DEB02014FF480700F
:101EE000FFF738FA02A904224FF4A060FFF732FA94
:101EF000042203A94FF47060FFF72CFA07B05DF8D5
:101F000004FBF8B505460C46FFF7BEFF15B9ECB962
:101F10000020F8BD6E1E32460735002312F8011F5F
:101F20000B445BB2102B02DD4FF0FF30F8BDAA422C
:101F3000F4D141F6087542F20807284616F8011F49
:101F40002035FFF79BF9BD42F7D1E0E7651E2A4631
:101F50000734002312F8011F0B445BB2102BE3DCA3
:101F60009442F7D141F6086441F60876204615F808
:101F7000011F2034FFF782F9B442F7D1C8E710B54A
:101F800000F0F00104464FF4A850FFF777F9210A5A
:101F90004FF4B850BDE81040FFF770B910B54FF4DA
:101FA000A850FFF73FF904464FF4B850FFF73AF94D
:101FB000000204F0F00480B2204480B210BD10B5DD
:101FC000C1B204464FF4B050FFF758F9210A4FF45C
:101FD000C050BDE81040FFF751B910B54FF4B050F4
:101FE000FFF720F904464FF4C050FFF71BF904EB4C
:101FF000002080B210BD08B54FF43850FFF712F939
:1020000000F0010008BD08B54FF43850FFF70AF999
:1020100010F0300F14BF0120002008BD08B54FF4A8
:102020003850FFF7FFF800F07F014FF43850FFF70A
:1020300025F94FF43850FFF7F5F860F07F01C9B289
:102040004FF43850BDE80840FFF718B908B50378D9
:10205000012B43780CBF40210021012B09D141F015
:1020600038014FF43850FFF709F9BDE80840FFF791
:10207000D5BFC378012B837806D1012B0CBF41F06B
:10208000180141F00801ECE7012B08BF41F01001F5
:10209000E7E710B504464FF43850FFF7C3F8C0F334
:1020A000801300F038002028237001D038281DD17B
:1020B00001236370A0F11003DBB2102B18D80122AA
:1020C00002FA03F303F0013323F0807383B1A270AB
:1020D0000838C0B218280ED8012303FA00F000F027
:1020E000013020F4807030B1E37010BD0023E0E7D0
:1020F0000023A370ECE70023F6E710B504464FF485
:102100003850FFF78FF8430616D500F0C701012CB1
:102110000CBF41F0300141F038014FF43850FFF767
:10212000ADF8FFF77BFF4FF43850FFF77BF8012C39
:1021300005D110F0300F05D14FF0FF3010BD10F079
:10214000380FF8E7002010BD38B50C460F2864D8CA
:10215000DFE800F0080C18141C20232F3B494C50DA
:102160000A545960FFF790FE002038BD29B10831AC
:102170002046BDE83840FFF7C4BEF9E70888FFF7FE
:10218000FEFEF1E7FFF70AFF2080EDE70888FFF782
:1021900016FFE9E7FFF721FFF6E709884FF49850AB
:1021A000090AFFF76BF821784FF4A050FFF766F8A3
:1021B000DAE74FF49850FFF735F805464FF4A05092
:1021C000FFF730F800EB0520DEE7154B9A780A7030
:1021D000DA784A701A798A705A79CA709B790B71C9
:1021E0000020487138BDFFF719FFBDE70846FFF72B
:1021F0002DFFB9E70846FFF74CFFB5E70878BDE8C3
:102200003840FFF77ABFFFF7FEFEC0B2FF2804D0C8
:102210002070A9E7FFF7EFFEF7E74FF0FF3038BD7A
:10222000DC00002010B50146044606224FF4106081
:10223000FFF790F8042204F10E014FF48070FFF7CD
:1022400089F8042204F10A014FF4A060FFF782F834
:102250000422A11D4FF47060FFF77CF8064BA27CAE
:102260001A70E27C5A70227D9A70627DDA70034B9C
:10227000A27D1A7010BD00BF1D0900201C0900209E
:1022800010B50146044606224FF41060FFF726F809
:10229000042204F10E014FF48070FFF71FF80422AE
:1022A00004F10A014FF4A060FFF718F80422A11D01
:1022B0004FF47060FFF712F8064B1A78A2745A7840
:1022C000E2749A78DB786375034B22751B78A375EB
:1022D00010BD00BF1D0900201C09002038B530F0DA
:1022E0003A0405460AD12046FEF79CFF45EA000164
:1022F000C9B22046FEF7C2FF204638BD4FF0FF307E
:1023000038BD0020FEF78EBF10B5044601784FF4AB
:10231000D850FEF7B3FF61884FF4C850090AFEF7A2
:10232000ADFFA1784FF4D050BDE81040FEF7A6BF36
:1023300038B505464FF4D850FEF774FF28704FF4B7
:10234000C850FEF76FFF04464FF4D050FEF76AFF07
:1023500000EB0420688038BD10B50C4605281ED857
:10236000DFE800F003080C1115190846FFF75AFFC3
:10237000002010BD0846FFF783FFF9E70878BDE8A5
:102380001040FFF7ABBFFFF7BCFF2070F0E7084637
:10239000FFF7BAFFECE70846FFF7CAFFE8E74FF0A0
:1023A000FF3010BD08B500220E490F4801F097FB21
:1023B00008B10FF021FF0D490B4801F0A5FB08B152
:1023C0000FF01AFF0A49084801F054FB08B10FF05A
:1023D00013FF054801F09FFB18B1BDE808400FF05E
:1023E0000BBF08BD14010020207E002078010020D2
:1023F00004010020002070470020704710B5064BF4
:1024000006490748196000245C609C60DC6001F0AC
:102410003EFB204610BD00BFBC880020BC800020D1
:10242000207E002008B50A4B09685A6809480A440A
:10243000B2F5F86F5A6022BFDA6000225A600ACB08
:10244000194401F024FB034801F03CFB002008BDC7
:10245000BC880020207E002038B50A4CD4F8905269
:102460006B6D0A4663B90146204601F00AFB20461F
:1024700001F012FB044B6A6D1AB1013BFBD138BD70
:10248000012038BD207E0020A086010007B502ABE8
:10249000012103F8010D1846FFF7DEFF03B05DF8D8
:1024A00004FB89B2FFF7D8BFF0B5104B5A689C689F
:1024B000121B002A0AD0BCBFDC6812198A42B8BFBE
:1024C00091B20A4644180025A04201D11046F0BD41
:1024D00099681E684F1C9F60715C00F8011B9E6824
:1024E000D9688E4208BF9D60EEE700BFBC8800201F
:1024F000034B58689B68C01A18BF0120704700BF83
:10250000BC88002012230B80004870474001002047
:1025100004230B8000487047540100200C230B80DB
:102520000048704734010020002330B51D46DCB25E
:10253000A24200D830BD040F092C94BF3034373488
:1025400001F8134001EB4304000165700133EEE72D
:1025500010B51A230B80094B186808331B68C01884
:102560000AD0074B07491C680822FFF7DDFF042249
:1025700005492046FFF7D8FF044810BD9075FF1F9E
:102580009475FF1F5A0100206A01002058010020A5
:1025900010B5044C04480A46214601F0E5FD2046EA
:1025A00010BD00BFCC880020AC7C010810B5044CE5
:1025B00004480A46214601F0D7FD204610BD00BF61
:1025C000CC880020BF7C010810B5044C04480A46A2
:1025D000214601F0C9FD204610BD00BFCC88002077
:1025E000937C010810B5044C04480A46214601F0CA
:1025F000BBFD204610BD00BFCC8800209E7C01089A
:10260000014B1868704700BFCC8A002038B50446DB
:10261000FFF7F6FF631C1CBF054B1B68054618BF80
:10262000E418FFF7EDFF401B8442FAD838BD00BF25
:1026300074010020034A0449136809680B441360BD
:10264000704700BFCC8A002074010020014B18683D
:10265000704700BF142F0020F0B504468BB060B364
:1026600090F8BD33056803F0FF021BB980F8BC2366
:1026700001F0D8FD032384F8BD33EB6B254613F43A
:10268000807308BF236155F8100B00F019FD0FCDC2
:102690006E460FC60FCD0FC695E8030086E803000F
:1026A0002546271D97E80E0055F8100B00F056FC44
:1026B000064620B1022384F8BD33012556E00146C9
:1026C000206800F003FD3046D4F804E01C264FF0EB
:1026D000010C0146C2B2964500F101001CD800234E
:1026E0001C261946D8B2864503F1010322D80FCD26
:1026F0006E460FC60FCD0FC695E8030086E80300AF
:1027000097E80E00206800F023FD0123054600B382
:10271000022284F8BD23D0E706FB024383F83DC0C4
:1027200083F83C20A3F8422083F83F105964996451
:102730001965CFE706FB004282F8FD1182F8FC0123
:1027400082F8FF11C2F80412C2F80812C2F810127F
:10275000C8E784F8380084F8BD33636A012B02D1DE
:10276000204600F0CFFB206800F0EAFF28460BB0BF
:10277000F0BD10B590F8BC33012B044614D00123F2
:1027800080F8BC33836A0268012B02BF936B43F469
:1027900080339363006800F0C7FF206800F08AFC74
:1027A000002084F8BC0310BD022010BD2DE9F04FBD
:1027B000066885B00446304600F0FDFF0090002812
:1027C00040F04A81206800F0C7FF002800F04481F3
:1027D000206800F0C1FF850741BF2268536903F0FC
:1027E00002035361206800F0B7FF10F400250ED0FB
:1027F0002068DFF884A400F0B3FF06F53067804658
:1028000000254FF02009B8F1000F40F02881206822
:1028100000F0A2FF42030BD5206800F0A9FF274675
:10282000834606F5106A0025BBF1000F40F0698170
:10283000206800F091FF002815DAD6F8043823F05C
:102840000103C6F8043894F8F433012B40F0DF811B
:10285000002184F8F413204601F052FE22685369E7
:1028600003F000435361206800F076FF03050BD5A9
:10287000D6F80838DF0702D5204601F043FD22686C
:10288000536903F400635361206800F065FF0001A1
:1028900015D52268536903F00063536194F8F4334B
:1028A000002B40F0B8810121236884F8F4135B6D9C
:1028B000C3F38303C4F8F833204601F021FE2068F7
:1028C00000F04AFFC10434D506F500677B6823F0A9
:1028D00001037B601021206800F010FC06F51063F6
:1028E0004FF67F31626800989042C0F09881FB6992
:1028F00043F00113FB61236B002B00F0A281D7F89A
:10290000843043F00B03C7F884307B6C43F00B0337
:102910007B64D6F8003823F4FE63C6F8003804F56B
:102920007171206800F066FF2268536903F48053D8
:102930005361206800F010FF820416D5206800F073
:102940003EFF206800F0ACFCE0602768FFF77EFEE9
:10295000227B0146384600F039FB204601F0BFFCDF
:102960002268536903F400535361206800F0F4FEB9
:10297000C3062BD52268936923F010039361376A4D
:10298000C7F34343022B07F00F0940F0658147F678
:10299000F0731F4215D04FF01C0808FB0948C7F31D
:1029A0000A173A46D8F80812304600F047FED8F821
:1029B00008323B44C8F80832D8F814321F44C8F82B
:1029C00014722268936943F010039361206800F049
:1029D000C3FE070707D5204601F07DFC2268536936
:1029E00003F008035361206800F0B6FEC60208D564
:1029F000E9B2204601F0BCFC2268536903F480135D
:102A00005361206800F0A8FE800208D5E9B2204694
:102A100001F0AAFC2268536903F400135361206893
:102A200000F09AFE410007D5204601F0A5FC22687F
:102A3000536903F080435361206800F08DFE420724
:102A40000AD523685D686B0702D5204601F098FC23
:102A500023685A6815435D6005B0BDE8F08F18F033
:102A6000010F40D0EAB211462068019200F088FEC2
:102A700010F0010F8346019A0FD00121B96021683F
:102A8000086C01F5306101EB451150458B6833D17D
:102A900018042DD54FF400428A601BF0080F12D0A5
:102AA0002268116C02F5306202EB451251459068C4
:102AB00004D1010444BF4FF400419160204601F06D
:102AC000F3FB0822BA601BF0100F1CBF1022BA6083
:102AD0001BF0200F18BFC7F808901BF4005F1CBF45
:102AE0004FF40053BB6001354FEA580820378AE69F
:102AF000980648BFC1F808901146204601F0DAFB5D
:102B0000CBE71BF0010F7BD0EBB219462068019395
:102B100000F03FFE10F0010F804610D0D6F8343898
:102B20000199012005F00F0200FA02F223EA0203E4
:102B3000C6F83438CAF80800204601F0C4FB18F083
:102B4000080F1CBF0823CAF8083018F0100F1CBF6C
:102B50001023CAF8083018F0400F1CBF4023CAF8F1
:102B6000083018F0020F1CBF0223CAF8083018F012
:102B7000800F45D07A6D3B6D9A4241D8A3EB020895
:102B80007B6C21680291984528BF984601F5106337
:102B900008F1030803EB45134FEA98080393039BDE
:102BA0007A6D9B699BB243453B6D27D3934225D9F0
:102BB00063B9029B05F00F01D3F83428012000FA15
:102BC00001F122EA0102C3F8342819E0A3EB02095B
:102BD0007B6C019AB96C0298994528BF99461FFAF7
:102BE00089F300F05BFCBB6C4B44BB647B6D09F16B
:102BF00003084B444FEA98087B65D0E79342D8D945
:102C000001354FEA5B0B1C370AF1200A0CE620461F
:102C100001F090FB22E6204601F074FB4FE699603C
:102C20001A6822F400121A60C3F80812D3F80022BE
:102C300022F40012C3F80022009A013200922033DD
:102C400050E67B6943F4005343F02B037B613B69FF
:102C500043F00B033B615CE6062B7FF4B2AE082227
:102C600004F5717130464FF01C0800F0E7FC08FBDA
:102C70000948C7F30A179FE60A31544F10B590F878
:102C8000BC23012A04460BD0012280F8BC2384F81F
:102C90003810006800F038FD002084F8BC0310BD37
:102CA000022010BD70B5044601F00F0011F0800F36
:102CB0004FF01C06C5B206FB054115BF06FB0545D6
:102CC00006FB05453C3101F5FE7115BF01260026C6
:102CD00085F83D6085F8FD618A604A78CB70C0B2A6
:102CE000087002B1C880022B04BF00230B7194F856
:102CF000BC33012B09D0012384F8BC33206800F0D9
:102D0000D9FA002084F8BC0370BD022070BD01F028
:102D10000F03DAB210B504461C2011F0800F00FB3F
:102D2000024119BF3C3100FB024200FB024201F5A7
:102D3000FE7115BF0120002082F83D0082F8FD01E0
:102D40000B7094F8BC33012B09D0012384F8BC33F9
:102D5000206800F0F1FA002084F8BC0310BD0220C6
:102D600010BD38B501F00F051C2404FB050104FB60
:102D7000050401F5FE71C4F810320023C4F80822DE
:102D8000C4F8143284F8FD3184F8FC5100681DB990
:102D900000F010FB002038BD00F090FBFAE71C2388
:102DA00001F00F0103FB0101D1F81402704738B59F
:102DB00001F00F051C2404FB050104FB05043C3154
:102DC0002365002363650123A26484F83D3084F801
:102DD0003C5000681DB900F0EDFA002038BD00F04D
:102DE0006DFBFAE738B5436801F00F059D420446D4
:102DF0002DD811F0800F4FF01C021ED002FB0501F0
:102E000002FB050301223C3381F83D2001229A7028
:102E10001D7094F8BC1391421BD084F8BC23194652
:102E2000206800F019FC25B904F57171206800F0E4
:102E3000E1FC002084F8BC0338BD02FB010302FB67
:102E40000101002203F5FE7381F8FD21DEE7012078
:102E500038BD022038BD38B5436801F00F029A42F0
:102E6000044626D81C2311F0800F03FB020119BF72
:102E70003C3103FB020301F5FE7103FB024314BF67
:102E8000012000204FF0000514BF83F83D0083F8B7
:102E9000FD018D700A7094F8BC33012B0BD0012317
:102EA00084F8BC33206800F004FC84F8BC53284646
:102EB00038BD012038BD022038BD70B50468636A92
:102EC00021B943EA0243A362002070BDA06A4D1EEF
:102ED00003EB10430020461CC0B2854206D83F31A8
:102EE00004EB810443EA02436360EDE7403004EB06
:102EF0008000406803EB10433046ECE70368002095
:102F000059627047034601210268C0F8FC13002093
:102F100083F8F403936943F000639361536D43F0C6
:102F2000805343F003035365704700000A4B013B95
:102F300001D1032070470269002AF8DA0369064AC2
:102F400043F001030361013AF3D0036913F0010375
:102F5000F9D11846704700BF410D030084B038B561
:102F600005AD85E80E000A9B012B044619D1836B41
:102F700023F480338363C36823F4840323F0400382
:102F8000C360C36823F44013C360119B012B02BFCD
:102F9000C36843F48013C360BDE8384004B0FFF752
:102FA000C5BFC36843F04003C360FFF7BFFF0E9B7C
:102FB0003BB9A36B43F48033A363BDE8384004B04E
:102FC0007047A36B23F48033F6E70000022A58D140
:102FD0002E4B2F4A0B44934247D92E4B2E4A0B447B
:102FE000934244D9A1F574032C4AA3F5105393429C
:102FF0003FD9A1F1837302F5C332A3F5E743A032B1
:10300000934238D9264B274A0B44934235D9264B55
:1030100002F592220B4402F5787293422FD9234B8A
:1030200002F5C3220B4402F52072934229D9A1F183
:10303000B77302F5B712A3F5585302F558729342CD
:1030400021D91B4B02F512220B4402F5F862934280
:1030500094BF07230623C26822F47052C260C2687C
:1030600042EA8323C360002070470F23F3E70E2357
:10307000F1E70D23EFE70C23EDE70B23EBE70A2342
:10308000E9E70923E7E70823E5E700BF405327FF07
:10309000FF340C00401E1BFF3F420F007F4F120009
:1030A00060B6E5FE5FE3160000D3CEFEC05BB3FE64
:1030B000E05459FE836843F00103836000207047A9
:1030C000836823F0010383600020704708B5C3685C
:1030D000012923F0C043C36008D1C36843F0005303
:1030E000C3603220FFF792FA002008BD19B9C36807
:1030F00043F08043F4E7012008BD0000890141F05E
:103100002001064A0161013A05D0036913F020034A
:10311000F9D1184670470320704700BF410D0300E6
:103120001023064A0361013A05D0036913F0100326
:10313000F9D1184670470320704700BF410D0300C6
:10314000D0F800381943C0F800180020704700007C
:1031500084B02DE9F843044609A880E80E00002356
:10316000139E0F46194603F1400204EB820201331D
:103170000F2B5160F7D1A36B002E62D123F4001303
:10318000A363236843F040032360236843F0800374
:1031900023600023C4F8003ED4F80038C4F8003897
:1031A00003212046FFF7CCFF10212046FFF7A6FFA2
:1031B0000146204604F50065FFF7B2FF002844D120
:1031C000081C18BF012000232B6104F510626B61FD
:1031D0001946EB614FF0904E4FF0006C4FF67F3880
:1031E000BB4234D1002104F530620F464FF0904EBF
:1031F0004FF0006C4FF67F388B423BD12B6923F4A4
:1032000080732B610023A3616FF080436361A36926
:1032100043F01003A361A269204B1343A3610F9BEA
:103220001BB1A36943F00803A361012E01BFA36989
:1032300043F0804343F00403A361BDE8F84304B0C6
:10324000704743F40013A363A3E70120BBE7D2F860
:103250000090B9F1000F0BDA3BB9C2F800C0116160
:103260000133C2F808802032BAE7C2F800E0F6E77E
:103270001160F4E7D2F80090B9F1000F0BDA39B918
:10328000C2F800C017610131C2F808802032B3E7EC
:10329000C2F800E0F6E71760F4E700BF00383C80B2
:1032A000D0F8083813F0020F00F5006014BF0220B8
:1032B0000F20704770B54A780C78D0F81C6800F57C
:1032C0000063012A04F00F051BD1AA40324300EB32
:1032D0004410DA61D0F800391A0410D48B68C97828
:1032E000D0F80029C3F30A0343F0805343F40043AA
:1032F00043EA814343EA84531343C0F80039002072
:1033000070BD4FF48032AA40324300EB4410DA61C2
:10331000D0F8003B1B04F2D48B68C978D0F8002B9E
:10332000C3F30A0343F0805343F4004343EA814369
:103330001343C0F8003BE2E770B54D780A78D0F847
:103340003C6800F50063012D02F00F0416D105FA68
:1033500004F426EA0404DC630978DC6901F00F0157
:103360008D4000EB421024EA0505DD61D0F800290C
:103370000E4B1340C0F80039002070BD012505FA3E
:1033800004F426EA0444DC630978DC6901F00F01E7
:103390008D4000EB421024EA0545DD61D0F8002B9A
:1033A000034B1340C0F8003BE6E700BF007833EC66
:1033B0000078F3EF30B54B780A78374D012B4FF09A
:1033C000200347D14C6913FB020344BBD3F81049D7
:1033D00024F0FF5424F4C014C3F81049D3F8104962
:1033E00044F40024C3F81049D3F810492540C3F829
:1033F000105900EB4212D2F8004944F00444C2F8DC
:1034000000494B694BB10A78D0F8343802F00F010B
:1034100001228A401A43C0F83428002030BD03F549
:1034200010631C6925401D611C6924F0FF5424F4BD
:10343000C0141C618C684D69A54288BF4C611C6931
:1034400044F400241C614C691D69C4F312042C432C
:103450001C61CEE713FB020000F530631A692A40B5
:103460001A611A6922F0FF5222F4C0121A614A69E5
:103470000AB18A684A611A6942F400221A618A68AC
:103480001C69C2F3120222431A61D0F8003B43F0D8
:103490000443C0F8003BC0E70000F8FF033300EB33
:1034A000023223F0030302F580520B44994201D10A
:1034B0000020704751F8040B1060F7E770B54B78A7
:1034C0000C785C4D012B4FF0200370D14A6913FB3F
:1034D000040342BB03F51062D3F8103923F0FF5305
:1034E00023F4C0131361136943F4002313611369B8
:1034F0001D40156100EB4413D3F8002942F004424B
:10350000C3F80029CA78012A3ED04B694BB10B7829
:10351000D0F8344803F00F02012393402343C0F84E
:103520003438002070BDD3F810291540C3F8105965
:10353000D3F8102922F0FF5222F4C012C3F8102948
:103540008D684A69D3F810692A44013AB2FBF5F252
:10355000394D05EAC2423243C3F810294A69D3F80B
:103560001059C2F312022A43C3F81029CA78012A5B
:1035700003F51063BED11A6922F0C0421A611A69BC
:1035800042F000521A61B5E7D0F8082812F4807FA3
:10359000D3F800290CBF42F0005242F08052C3F829
:1035A00000298B8A0A78C968FFF778FFB9E713FB0F
:1035B000040303F5306214692C401461146924F08B
:1035C000FF5424F4C01414614C698E68FCB9156969
:1035D000C6F312042C431461146944F400241461EA
:1035E000CA78012A0CD1D0F8082812F4807FD3F8C9
:1035F000002B0CBF42F0005242F08052C3F8002B67
:10360000D3F8002B42F00442C3F8002B89E734447E
:10361000094D013CB4FBF6F4166905EAC44535438F
:1036200015618D681669A4B26C43C4F31204344367
:10363000D5E700BF0000F8FF0000F81F033222F0BA
:1036400003020A4400F58050914201D108467047B8
:10365000036841F8043BF7E74B780A78012B4FF0F9
:10366000200313FB020012D1D0F80039002B06DB37
:103670002AB1D0F8003923F08043C0F80039D0F8DF
:10368000003943F40013C0F8003900207047D0F827
:10369000003B002B06DB2AB1D0F8003B23F080432F
:1036A000C0F8003BD0F8003B43F40013C0F8003BE7
:1036B000EBE74B780A78012B4FF0200313FB020055
:1036C00011D1D0F8003923F40013C0F80039CB78B9
:1036D000023B012B05D8D0F8003943F08053C0F8E5
:1036E000003900207047D0F8003B23F40013C0F8E5
:1036F000003BCB78023B012B9EBFD0F8003B43F050
:103700008053C0F8003BECE7D0F8003823F4FE63A8
:10371000C0F80038D0F80038090101F4FE611943FF
:10372000C0F800180020704708B5D0F8043823F01E
:103730000203C0F804380320FEF768FF002008BD2C
:1037400008B5D0F8043843F00203C0F80438032069
:10375000FEF75CFF002008BD426980691040704799
:10376000D0F8183800F50060C0691840000C7047A8
:10377000D0F8183800F50060C069184080B2704772
:1037800000EB411100F50060D1F8082B40691040B2
:10379000704710B5D0F81048D0F8343800EB41101D
:1037A00001F00F01CB4000F51060DB018068DBB257
:1037B0002343184010BD406900F001007047D0F865
:1037C000003923F4FF6323F00703C0F8003900F544
:1037D00000639A6802F00602042A02BFD0F80029AA
:1037E00042F00302C0F800295A6842F480725A601D
:1037F00000207047026C0F4B9A4203D9D0F8003B6F
:10380000002B14DB0023C0F8103BD0F8103B43F42E
:103810000023C0F8103BD0F8103B43F01803C0F869
:10382000103BD0F8103B43F0C043C0F8103B0020E1
:10383000704700BF0A30544F10B5D0F89432D0F81A
:1038400090425BB194F84000FF2807D09B6894F841
:10385000412021469847FF2384F84030002010BDC6
:103860004323038000487047B001002043230380B6
:1038700000487047F401002043230380004870474C
:10388000440200200A2303800048704738020020C9
:1038900038B50546D0F8904200F02EFEE064D5F829
:1038A000903243B1D5F89432606CDB6804F14C017E
:1038B0009847002038BD022038BDF8B5D0F8906296
:1038C000CEB1142303FB0103DD698DB1D0F898421A
:1038D0001C2707FB0142526CB5FBF2F402FB1454A7
:1038E00034B9DC612246234600F0EAFD2046F8BDEB
:1038F00000207065F8BD0220F8BD2DE9F7430A7875
:10390000D0F890724FF0000812F0600405460E46A1
:103910008DF80580ADF8068029D0202C48D1CC88C0
:103920004B78ECB1120611D5D0F894223946D2F872
:10393000089018462246C847F2883946284600F0C3
:103940002FFC4446204603B0BDE8F08387F84030A2
:10395000CB8887F84130CA88394600F036FCF0E75A
:10396000D0F89422184695682246A847EAE74F788F
:103970000A2F0DD00B2F15D0D7B990F87432032B26
:1039800014D102220DF1060100F00AFC3C46D9E7F1
:1039900090F87432032B09D101220DF1050100F0DA
:1039A000FFFBCFE790F87432032BCBD0314628468B
:1039B00000F0CFFB0224C5E738B50446002581217D
:1039C00000F032FD0121E562204600F02DFDC4F833
:1039D00058518221204600F027FDD4F8903225640A
:1039E0004BB1D4F894325B689847D4F8900200F059
:1039F000BDFDC4F89052002038BD2DE9F0410546C8
:103A0000012440230222812100F0FEFC40230222F7
:103A10002146EC62284600F0F7FC082303228221AD
:103A2000C5F85841284600F0EFFC2C645C2000F0FB
:103A300099FD0646C5F89002C8B1D5F89432002722
:103A40001B6898477765B76595F81080726C4023BE
:103A500021462846B8F1000F04D100F03FFD404652
:103A6000BDE8F08100F03AFD3846BDE8F08120461F
:103A7000BDE8F08119B1C0F894120020704702200F
:103A80007047D0F89032002099641A657047D0F8DA
:103A9000903200205964704710B5D0F890226AB176
:103AA000546D012364B95365136D0363B2F850304C
:103AB000926C812100F004FD204610BD022010BD53
:103AC000184610BD10B5D0F8902232B14023526C88
:103AD000012100F003FD002010BD022010BD08B53B
:103AE00080B1D0F88C3213B10023C0F88C3209B108
:103AF000C0F88812012380F87432027000F044FC90
:103B0000002008BD022008BD19B1C0F88C120020A9
:103B100070470220704708B500F068FC002008BD1F
:103B200008B5D0F88C320BB9022008BD1B68984745
:103B30000028F9D108BD08B5D0F88C325B689847E9
:103B4000002008BD38B5044600F52075284600F071
:103B5000ECFA012394F88012C4F86C32B4F886327F
:103B6000C4F8703201F01F03012B0ED007D3022BD3
:103B700010D001F08001204600F064FC03E02946EB
:103B8000204600F003F9002038BD2946204600F009
:103B90001FFAF8E72946204600F03FFAF3E770B530
:103BA0000546164649BBD0F86C32032B1ED1D0F81F
:103BB0004C31D0F8502193420BD99B1A9A42C0F84D
:103BC0004C318CBF9AB292B2314600F00DFB00200E
:103BD00070BDD0F88C321B6923B190F87422032A8F
:103BE00000D19847284600F007FBF0E7052BEED1FF
:103BF000C5F86C1200F026FCE9E7D0F88C329B691E
:103C00002BB190F87422032A01D19847DFE70220F4
:103C100070BD70B5134604460E46002948D1D0F851
:103C20006C22022A3DD1056A426A954214D9AA1A29
:103C30000262194692B200F0C0FA33461A4619469B
:103C4000204600F04BFC94F87832012B4FF0000036
:103C50003AD184F8780270BDC369B3FBF2F502FB78
:103C6000153565B99A420AD8D0F87022934206D227
:103C70002A4600F0A2FAC4F870522B46DEE7D4F8C8
:103C80008C32DB682BB194F87422032A01D12046D0
:103C900098478021204600F0D5FB204600F0B7FA77
:103CA000D1E732F00403CED1802100F0CBFBCAE78C
:103CB000D0F88C325B6933B190F87422032A02D1B8
:103CC0009847002070BD022070BD70B500220446E8
:103CD000114601254026402300F096FB3346802103
:103CE000C4F84451C4F850610022204600F08CFB17
:103CF000D4F89032A5610021666284F87452C4F849
:103D00006C126160C4F87C1223B1D4F88C32204666
:103D10005B689847002070BD01740020704790F8E0
:103D2000743280F87532042380F8743200207047B2
:103D300090F8753280F874320020704708B590F81A
:103D40007422032A04D1D0F88C32DB6903B198477E
:103D5000002008BD002070470020704700207047F9
:103D600008B5012280F87422D0F88C2201795268BB
:103D70009047002008BD10B58021044600F062FB8A
:103D800020460021BDE8104000F05CBB37B50B7841
:103D900003F06003202B04460D4614D0402B12D0B4
:103DA000002B40F095804B78092B00F29080DFE8E3
:103DB00013F0E70001018E00FA008E00820013006C
:103DC0008E00D200A000D4F88C3229469B68204691
:103DD0009847002003B030BD4B881A0A013A0E2ADA
:103DE00075D8DFE802F02428357474555E74747455
:103DF000747474740800D0F88832DB69207C0DF18B
:103E000006019847BDF8062052B1EB8843B19A42AB
:103E100028BF1A4601462046ADF8062000F0C0F93A
:103E2000EB88002BD5D1204600F0E6F9D1E7D0F899
:103E300088321B68E2E7027CD0F88C3232B99B6A88
:103E40000DF10600984702234370DBE7DB6AF7E7D2
:103E5000DBB2052B3BD8DFE803F003070B0F13178A
:103E6000D0F888325B68C9E7D0F888329B68C5E72C
:103E7000D0F88832DB68C1E7D0F888321B69BDE72B
:103E8000D0F888325B69B9E7D0F888329B69B5E72A
:103E9000037CE3B9D0F88C320DF106005B6B9847D8
:103EA000B0E7037C9BB9D0F88C320DF106001B6B98
:103EB00098470723C8E78B884BB9CB883BB94D8817
:103EC0007F2D04D890F87432032BE9B203D1204639
:103ED000FFF751FF7DE780F8761200F0E3FA204605
:103EE00000F08AF91DB1022384F8743271E70123CE
:103EF000FAE78978354D01292970E8D890F87432AD
:103F0000022B08D0032B14D0FFF735FF2978204669
:103F1000FFF711FE5DE7002985D0012103234160F1
:103F200080F874322046FFF7FBFD02287FF47BAF58
:103F3000CDE731B9022380F874324160FFF7FBFD11
:103F400071E7416801293FF46EAFC9B2FFF7F3FD95
:103F500029786160E6E7CA88012AB8D190F87432FE
:103F6000002BB4D0022B03D9032BB0D1011D03E0E9
:103F70000146002341F8083F204600F011F928E7E8
:103F800090F87432013B022BA1D8CB88022B9ED132
:103F90000123C360D0F87C320BB10323C36002223B
:103FA00004F10C01E8E74B88012B7FF412AFC4F851
:103FB0007C3238E790F87432013B022B87D84B886B
:103FC000012B7FF406AF0023F1E700BF2109002099
:103FD00038B50B7803F06003202B04460D4602D061
:103FE000402B00D0B3B994F87432013B022B10D8A7
:103FF0002B79012B0DD8D4F88C3229469B682046AA
:104000009847EB881BB910B9204600F0F5F800205E
:1040100038BD2046FFF7AFFEF9E738B50A7802F061
:104020006002202A04460B4613D0402A11D06AB9F8
:104030005D788A88012DD1B21FD035D3032D05D1EB
:1040400090F87422022A26D0032A0AD0FFF793FEA2
:1040500005E0D4F88C22194692682046904700204B
:1040600038BD5A882AB94A0603D0DB880BB900F05C
:10407000E9F9204600F0C0F8F1E790F87422022A2E
:1040800009D0032AE2D15B88002BE8D14D06F0D09D
:1040900000F0E6F9EDE74B0617D000F0D3F98021E8
:1040A000204600F0CFF9DAE790F87432022B0ED0F8
:1040B000032BCBD112F0800F4FF0140301F00F024D
:1040C00003FB020212D09269DAB92046BEE7490624
:1040D000FBD113064CBF00F1140100F5A0710023C1
:1040E0000B600222204600F05BF8B8E7D2F84421CA
:1040F000002AEAD001F07F0503FB050505F5A07550
:1041000004E001F07F0505FB0335054411F07F0352
:1041100003D12B6002222946E4E7204600F0AEF9E5
:1041200008B10123F5E72860F4E70B7803704B78BA
:104130004370CA788B7803EB022343804A790B796A
:1041400003EB02238380CA798B7903EB0223C380BC
:10415000704710B58021044600F074F92046002114
:10416000BDE8104000F06EB930B588B105462B1A95
:1041700015F8014BDBB2002CF9D101335B00138041
:104180000B7003234B700138022310F8015F05B94F
:1041900030BD5A1CD2B2CD540233DBB28C54F4E79A
:1041A00010B513460222C0F86C22C3610A460362AE
:1041B000002100F085F9002010BD08B513460A461D
:1041C000002100F07DF9002008BD10B51346032240
:1041D000C0F86C22C0F848310A46C0F84C310021C2
:1041E00000F07CF9002010BD08B513460A460021F6
:1041F00000F074F9002008BD08B50423C0F86C3243
:1042000000231A46194600F05BF9002008BD08B5E6
:104210000523C0F86C3200231A46194600F05EF9F7
:10422000002008BD0368B3F1A04F38D14FF0904390
:104230001A6822F070721A601A6842F020721A60CE
:104240009A6822F440029A609A6822F040729A605A
:104250009A6842F070729A605A6A42F42A225A624C
:1042600003F1784303F50433DA6C42F48052DA64E4
:104270009A6D42F080529A659A6D42F080529A652A
:104280009A6D42F080529A65054A536843F4806300
:104290005360044B102283F8432308229A6070472E
:1042A0000070004000E100E000F57171D0F80404F6
:1042B000FFF748BC1C2303FB0103D0F80404D3F828
:1042C0000822FFF76CBC1C2303FB0103D0F8040495
:1042D0009A6CFFF79EBCD0F80404FFF72FBD10B511
:1042E000C368022B044601D00DF086FFD4F8040405
:1042F0000121FFF711FDD4F80404BDE81040FFF7D9
:10430000E4BC000010B50268D2F8003E43F001039F
:10431000C2F8003E0446D0F80404FFF700FD236A0B
:1043200023B1034A136943F00603136110BD00BFB4
:1043300000ED00E010B50268D2F8003E23F0010362
:10434000C2F8003E036A044633B1064A136923F0FB
:10435000060313610AF08EFCD4F80404BDE8104093
:10436000FFF7E6BC00ED00E0D0F80404FFF7F4BC72
:10437000D0F80404FFF7EEBCD0F80404FFF7EEBC5D
:10438000D0F80404FFF7ECBC10B503784BBB164C17
:1043900006224FF0A041C4F8040484E80600C0F8E7
:1043A000984202222046E260A261E36123626362D6
:1043B000A3622363E362FEF74FF908B10DF01CFF1F
:1043C0002368094880245C622146FEF797FD40225D
:1043D00000210548FEF771FD224601210248FEF743
:1043E0006CFD002010BD00BFD08A002008B5D0F8B9
:1043F0009802FEF7BEF903289ABF024B185C022010
:1044000008BD00BFD57C010810B51C46D0F8980245
:1044100013462246FEF746FC03289ABF014B185C60
:10442000022010BDD57C010808B5D0F89802FEF72F
:104430006EFC03289ABF024B185C022008BD00BF27
:10444000D57C010808B5D0F89802FEF7CBFC03280C
:104450009ABF024B185C022008BD00BFD57C010842
:1044600008B5D0F89802FEF7F6FC03289ABF024B75
:10447000185C022008BD00BFD57C010811F0800F38
:10448000D0F898324FF01C021BBF01F07F0102FBF5
:10449000013102FB013191F83E0008BF91F8FE01A5
:1044A0007047000008B5D0F89802FEF7E7FB032834
:1044B0009ABF024B185C022008BD00BFD57C0108E2
:1044C00008B5D0F89802FEF772FC03289ABF024B99
:1044D000185C022008BD00BFD57C010808B5D0F8E3
:1044E0009802FEF73EFC03289ABF024B185C02209C
:1044F00008BD00BFD57C0108D0F89802FEF74FBC7C
:1045000010B5044611B1012916D010BD036A33B1AC
:104510000AF0B0FB124A136923F006031361226804
:10452000D2F8003E23F00103C2F8003ED4F80404A0
:10453000BDE81040FFF7FCBB0268D2F8003E43F034
:104540000103C2F8003ED0F80404FFF7E8FB236A39
:1045500023B1034A136943F00603136110BD00BF82
:1045600000ED00E0004870472409002070474288B1
:104570004378007843EA022340EA032070470B0A9D
:10458000017043700B0C090E8370C17070470244B8
:1045900000F8011B9042FBD170470000154BF0B5AD
:1045A00000252A461C461E68A6B10768BE4212D1E5
:1045B0005F688668B7420ED19F684669B7420AD1E4
:1045C000B1B904EB02129389B3F5807F14BF0020C8
:1045D0001020F0BD01250132102A03F11003E2D1B1
:1045E0000DB10020F0BD02290CBF00201220F0BD4B
:1045F0001020F0BD90090020F0B51D4C0768002385
:1046000022462568BD4207D166688568AE4203D15F
:10461000A6684569AE4221D00133102B04F1100485
:10462000EFD100231D0156599EB957515419856881
:1046300065604069A0600029A68116DCA9B902EB7B
:1046400003118989013189B202EB0312581C91814F
:10465000F0BD0133102BE5D10020F0BD0029EDDDC8
:1046600002EB031189890029F6D14FF48071EBE741
:104670009009002001380F280ED8094A0301D118EB
:10468000898921F4807080B208B1481E80B2D118A7
:10469000888118B9D05070470220704700207047B9
:1046A00090090020C3690239023B99423DBF43890A
:1046B000006B01FB030000207047024600F10B0174
:1046C0000020C30143EA500312F8010B50FA83F3B0
:1046D0008A42D8B2F5D17047F0B50468064684B373
:1046E000214611F8013B1F2B2ED93A2BF9D1237803
:1046F000303BDAB2092A1ED9DFF860E000205EF80C
:104700002070254617F8013B15F8012BA3F1610C29
:10471000BCF1190F98BF203BA2F1610C98BFDBB22E
:10472000BCF1190F9CBF203AD2B283B19A42E9D0B2
:1047300038B90120E3E7A21C9142DDD1012B1846D4
:1047400007DD4FF0FF30F0BD034B1878F0BDA942F4
:10475000EED13160F0BD00BF84090020687D010802
:1047600038B50D46044618B9092000232B6038BD22
:104770000368002BF8D01A78002AF5D08188DA88EF
:104780009142F1D158780DF093F810F00100EBD17F
:104790002368EBE701380A4411F8013B00F8013FB8
:1047A0009142F9D17047CA7E8B7E032843EA0223E7
:1047B00001BF487D0A7D42EA002243EA02431846CF
:1047C0007047C2F307238A76CB760378032B01BFA9
:1047D000120C0A75120A4A75704770B500F1380656
:1047E000426B05460123314640780DF0B7F8044688
:1047F00088B9696BAB6A2A6AE870CB1A934208D20F
:10480000AB78022B05D10A440123314668780DF0BC
:10481000A5F8204670BD0124FBE770B5C3780446B7
:10482000002B44D12378032B38D12679012E35D1A2
:1048300004F138054FF4007200212846FFF7A7FE67
:10484000552384F83632AA2384F837325223412282
:10485000722184F8383084F83930612384F83A3092
:1048600084F83B2084F81E2284F81F3284F81C123E
:1048700084F81D1204F508706169FFF780FE216954
:1048800004F50970FFF77BFE626A607801323346F7
:10489000626329460DF062F800232371002211465D
:1048A00060780DF0B5F8003018BF012003E0FFF785
:1048B00094FF0028B6D070BD70B590F8373290F8EC
:1048C000362242EA032290F83830EB2B03D018331B
:1048D000DBB2012B37D84AF655239A420ED11F4C32
:1048E00000F1920500F18A0111F8013B14F8016F03
:1048F0008D42A3EB06032DD0002BF5D090F8441089
:1049000090F8433043EA0123591E19421BD1B3F5F5
:10491000007F18D190F84510A9B14B1E0B4012D161
:1049200090F84810013901290DD890F84A4090F8C4
:10493000491051EA042106D090F84F4090F84E10EB
:1049400051EA042108D14AF6552082420CBF0220C8
:10495000032070BD002BD1D1184670BDB27D010877
:104960002DE9F0470027D0F800908F75C3690646FF
:104970000C46002B00F09580036B01330DD0B84638
:104980003D46D9F80C30D85B00283ED1B8F1000F75
:1049900018BF002525440023AB7500231A462E209E
:1049A000356A511CAA5C202A0CD0052A08BFE522D2
:1049B000092904D10B2B9EBFE51801336872E51855
:1049C00001336A720B290A46EAD1E21800215172BA
:1049D000A27D002A4FD1002B43D004F10901082009
:1049E000134611F8012B002A3ED092B22E2AA2F1D2
:1049F000410508BF1020192D04D8356A2D7B2842A7
:104A000018BF20320A730133EBE7B8F1000F05D16C
:104A100000F520539BB2B3F5006F13D340F2B511EC
:104A200040EA084002F0F8FAFF28C5F1FF0A0CD965
:104A3000BAF1010F11D96319020A9A75D8750223C8
:104A40001D440020023780469BE730B1BAF1000FC9
:104A500005D0631998750123F2E7002596E75546BE
:104A600094E73F23A3750123234400229A75336AF8
:104A70001B7B03B96372336ADB7A2372306A1C30A2
:104A8000FFF775FD2060326AD17D937D43EA0123F3
:104A9000E380326A517E137E43EA0123A380BDE89E
:104AA000F087BDE8F087F8B5C37804460D46B3B982
:104AB00029462046FFF7F6FD04F1380660630746F5
:104AC0004FF4007200213046FFF761FD0025638935
:104AD0009D420AD36089401B18BF0120F8BDFFF733
:104AE0007CFE0028E4D00120F8BD01237A1931466C
:104AF00060780CF033FF0028ECD10135E7E738B5DA
:104B0000436B8B4204460D4616D0C3787BB92A46C8
:104B1000012304F1380160780CF0D4FE002818BF9E
:104B20004FF0FF3565630CBF0020012038BDFFF753
:104B300054FE0028EBD038BD0020FCE701292DE908
:104B4000F04705460C46174672D9C36999426FD2A1
:104B50000378022B3FD0032B50D0012B68D101EBFF
:104B60005108816A01EB5821FFF7C9FF064638BB9F
:104B700005F1380908F1010AC8F3080814F0010426
:104B80001FBF19F8083003F00F023B0103F0F003D8
:104B900014BF1343FBB209F80830A96A0123EB7074
:104BA00001EB5A212846FFF7AAFF064640B9CAF38F
:104BB000080A44B1C7F3071709F80A700123EB701C
:104BC0003046BDE8F08719F80A30C7F3032723F011
:104BD0000F031F43F0E7816A01EB1421FFF78FFFFA
:104BE00006460028ECD1640005F1380304F4FF7494
:104BF0001A191F55C7F307275770DFE7816A01EBC2
:104C0000D411FFF77CFF06460028D9D1A40005F196
:104C1000380304F4FE741C442046FFF7A8FC27F078
:104C2000704700F0704139432046FFF7A8FCC5E704
:104C30000226C5E70129F8B505460C4652D9C369D5
:104C400099424FD20378022B29D0032B38D0012B65
:104C500048D101EB5106816A01EB5621FFF74FFF66
:104C600010B14FF0FF30F8BD771CA96AC6F30806F3
:104C70002E4401EB5721284696F83860FFF73FFF96
:104C80000028EED1C7F308073D44E30795F8380044
:104C900046EA00204CBF0009C0F30B00F8BD816A52
:104CA00001EB1421FFF72BFF0028DAD1640038351F
:104CB00004F4FF742B19285D5B7840EA0320F8BDEB
:104CC000816A01EBD411FFF71AFF0028C9D1A400B3
:104CD00005F1380004F4FE742044FFF748FC20F08E
:104CE0007040F8BD0120F8BDB1F5001FF8B50646CB
:104CF0000D4601D30220F8BDCA06FBD104687161DC
:104D00008268C2B92378022B01D9E36AA3B9238947
:104D1000B3EB551FEED9E36AF361F369B261002B7F
:104D2000E8D003EB55233834C5F308052C44F36170
:104D300034620020F8BD134667891A467F02BD42DF
:104D4000114604D22046FFF7ADFCF061E5E730687C
:104D5000FFF770FF431C024606D00128CAD9E36959
:104D60009842C7D2ED1BEAE70120F8BD2DE9F041DA
:104D7000804605680F4649B92E69CEB1EB699E425F
:104D800028BF01266B69ABB9002409E02846FFF76C
:104D900051FF0128044658D9421C04D14FF0FF347A
:104DA0002046BDE8F081EB699842F9D33E46E9E739
:104DB0000126E7E7BE4215D1EB69D8F80000741C64
:104DC0009C4228BF02242146FFF734FF01283CD033
:104DD000431CE3D0D8B12B69012B03D9EA69934274
:104DE00038BF1E463446EB6901349C4202D3012E83
:104DF000CAD902242146D8F80000FFF71BFF40B1B2
:104E0000012822D00130C9D0B442ECD1BCE7002C3B
:104E1000E8D04FF0FF3221462846FFF78FFE90B9C9
:104E200057B9EA696B692C61023A93420FD92B7921
:104E300043F001032B71B3E7224639462846FFF7BA
:104E40007DFE0028EDD00128A8D00124A8E7013B71
:104E50006B61ECE7F8B50D46012D0746114601D808
:104E60000220F8BD0468E3699D42F9D22AB14FF0EF
:104E7000FF322046FFF762FE08BB29463868FFF77D
:104E8000D9FE064608B90020F8BD0128E8D0431C29
:104E900014D0002229462046FFF750FE78B9E26977
:104EA0006369911E8B4205D201336361237943F01C
:104EB0000103237196423546DFD3E4E70120F8BDB4
:104EC0002DE9F843476905682037B7F5001F24BF6F
:104ED0000023C361C3690446894673B1C7F3080858
:104EE000B8F1000F3BD181690133C36141B92B890E
:104EF000B3EB571F33D80023E3610420BDE8F883E8
:104F00006B89013B13EA572329D12846FFF792FE0C
:104F10000128064602D80220BDE8F883421C02D1CF
:104F20000120BDE8F883EB69984212D3B9F1000F74
:104F3000E1D0A1692046FFF719FF0646B0B101286C
:104F4000E9D0431CECD001462846FFF7ACFD002811
:104F5000E6D1A66131462846FFF7A4FBE06138356B
:104F60004544676125620020BDE8F8830720BDE85D
:104F7000F8832DE9F041016B056846694B1C044636
:104F800018D1E5274FF00108E1692846FFF7B7FD82
:104F900060B9236A1F7085F8038063699E420DD94A
:104FA00001462046FFF78CFF0028EDD0042808BFFB
:104FB000022003E0FFF798FE0028E2D0BDE8F08170
:104FC0002DE9F84FFF250668474F81462C464FF0E4
:104FD000040A4FF6FF78D9F81C1019B9BAF1000F7E
:104FE00074D067E03046FFF78AFD8246002861D121
:104FF000D9F820000378002B72D0C27AE52B02F09A
:105000003F0289F806204DD02E2B4BD022F02001F4
:10501000082947D00F2A54D15A0641D503F0BF04BE
:10502000D9F81430457BC9F83030437BAB4239D1D5
:10503000C27E837E43EA02231BB29BBB0278F168E7
:1050400022F04002013A4FF00D0E0EFB02FE4FF02F
:10505000010C13F807A000EB0A0292F801B010F857
:105060000A2042EA0B22BCF1000F27D0BEF1400F0C
:1050700018D821F81E2094460EF1010E01330D2B95
:10508000E7D103785B0608D5BCF1000F05D0BEF16F
:10509000400F07D8002321F81E30013CE4B202E0A3
:1050A000A342C2D0FF2400214846FFF709FF8246F1
:1050B000002890D00023C9F81C3009E04245DDD01B
:1050C000F0E744B9FFF7F9FAA84204D14FF0000A1B
:1050D0005046BDE8F88F4FF0FF33C9F83030F7E79E
:1050E0004FF0040AE6E700BF597D01082DE9F04FB3
:1050F000002185B00546D0F800A0FFF7F5FD8046F9
:10510000002840F09E804FF0FF334FF0FF092B63E3
:105110004E46E9695046FFF7F2FC8046002840F011
:1051200090802C6A2778002F00F09180E27AE52F9A
:1051300002F03F03AB7103D0120705D50F2B05D04A
:105140004FF0FF332B6357E00F2B5ED195F82F30D4
:10515000580652D4790647D56A69637B2A6307F0FB
:10516000BF0794F80D9099456FD1E37EA67E46EA7D
:10517000032636B2002E3FD194F80080DAF80CB046
:1051800008F03F0808F1FF334FF00D0808FB03F863
:105190000121304BF25CA3185878A35C43EA00234A
:1051A00031B3B8F1400F27D81846039301F068FFD8
:1051B00008F1010202903BF81800019201F060FF33
:1051C0000299814218D1039B019A194690460136F3
:1051D0000D2EDED123785A0603D511B13BF81830D5
:1051E00053B9013FFEB208E0BE4205D14B46B8E7D5
:1051F0004FF6FF729342EAD0FF2600212846FFF7C0
:105200005FFE8046002884D01BE026B92046FFF7C9
:1052100054FA814515D095F82F30DB0790D404F16E
:105220000B0105F1240214F8013B12F8010B8C422A
:10523000A3EB000302D0002BF5D081E7002B7FF415
:105240007FAF404605B0BDE8F08F9946D4E74FF0F8
:105250000408F6E7597D01082DE9F04F85B0036891
:1052600001930B782F2B0546894601D05C2B0AD180
:105270004A4613782F2B914602F10102F9D05C2B9C
:10528000F7D0002301E0019B9B69AB6099F80030E7
:105290001F2B4FD880230021284685F82F3005B0DA
:1052A000BDE8F04FFFF720BD7F2807D8A94A12F8C4
:1052B000013F1BB19842FAD1062001E1402EFBD0FC
:1052C0002AF81600013639E0042452E0022E56D1A5
:1052D000BAF802302E2B52D14DE000232AF81630B6
:1052E00005F124029E4294BF20212E2101330B2B75
:1052F00002F8011BF6D144F0200485F82F4028461F
:10530000FFF7F4FE95F82F30002840F0CB805A07C5
:1053100000F1D680AB79DB0640F1D980019B03F127
:1053200038016B69C3F308031944019B1878FFF730
:105330003AFAA8602B68D3F80CA0002619F8010BE4
:1053400037460028C0D040F2B51101F085FE002894
:10535000B2D01F28B8D92F2801D05C28A4D14A4642
:1053600013782F2B914602F10102F9D05C2BF7D074
:105370000024012EAAD1BAF800302E2BADD00AEBB2
:10538000460697BB00230AEB47022AF81730002F86
:1053900092D03AF8131020292FD00BB92E2902D120
:1053A00044F00304E4B232F8021D2E2901D0013F7B
:1053B000F9D10B22202105F12400FFF7E8F84FF086
:1053C00000084FF0080B46463AF813005A1C002814
:1053D00000F08980202803D02E2810D1974278D061
:1053E00044F00304E4B21346EEE736F8023D202B06
:1053F00001D02E2BC6D1013FC3E70133C9E7D84501
:1054000069D2974211D1BBF10B0F06D166E09742EA
:1054100003D044F00304E4B265D3B600F6B23A46D2
:105420004FF00B0B4FF00808DDE77F2838D944F028
:105430000203DBB240F2B5110392029301F0ECFDDE
:1054400010F0800F029B039A10D000F07F004249B9
:10545000085C30B1414C14F8011F002968D0884223
:10546000F9D143F00303DBB25F2011E0FF28F0D94C
:105470000BF1FF31884504D344F00304E4B2D8466D
:10548000B1E705EB0801040A81F8244008F101089E
:1054900005EB08011C4681F8240008F10108A2E789
:1054A0002346D7E704280BD113F0200F03F00403A1
:1054B00009D0002B3FF43EAF802385F82F30002029
:1054C00005B0BDE8F08F002B08BF0520F8E70520E8
:1054D000F6E7D84597D3BBF10B0F98D144F00304FE
:1054E000E4B24FF00B0B95F82430E52B04BF0523F5
:1054F00085F82430BBF1080F04BFB600F6B206F001
:105500000C030C2B03D006F00303032B02D144F051
:105510000204E4B2A7073FF5F0AEF00744BF44F041
:105520001004E4B2710744BF44F00804E4B2E4E6B6
:10553000A0F1410189B2192901D846F00206A0F173
:10554000610189B219299EBF203846F0010680B258
:105550009EE700BFCF7D0108D97C0108D87D0108F6
:105560002DE9F04F90F82F4014F0A00489B00546C3
:1055700040F084800668F26832F81430002B55D170
:1055800005F124070C22394605A8FFF703F99DF819
:105590001F30DB077BD54023DFF82C8285F82F30C6
:1055A0004FF001090B2205A93846D6F80CA0FFF7E9
:1055B000F1F8B9F1050F4ED84B46072203F00F0062
:1055C00000F13001392988BF00F13701013A03A801
:1055D00010441B094170F1D108A911447E2001F843
:1055E000140C9A423DD0F95C202938D13B44072A5B
:1055F0009BBF08A98918202111F8141C03F8011B6E
:10560000A3EB070198BF01320729F0D92846FFF71D
:105610006DFD8246A8BB09F10109B9F1640FC1D142
:105620004FF0070A504609B0BDE8F08F0134A3E7F8
:10563000102002F0010E0EEB430313F4803F18BF5D
:1056400083EA080301384FEA5202F2D131F8022FFF
:10565000002AEDD1B1E7AAF102014B46F6E701338A
:10566000BFE71346C2E7804601212846FFF728FC22
:10567000824610B3BAF1040FD2D0D3E74FF0060A36
:10568000D0E70428CED19DF81F3085F82F309DF843
:105690001F30D5F800909B0748BF0C344FF0000135
:1056A000284649BF0D230124B4FBF3F40134FFF76E
:1056B0001BFB82460028DDD18046E9694846FFF79A
:1056C0001EFA82460028D5D12B6A1B78E52B01D023
:1056D000002BC8D108F101084445C5D1013C56D082
:1056E00069692846A1EB4411FFF7FEFA82460028BB
:1056F00098D13846FEF7E1FF4FF6FF798046E96919
:105700003046FFF7FCF9824600288BD12B6AD6F889
:105710000CC083F80D800F22E1B24FF00D0EDA724B
:105720004A1E0EFB02F218739876D87601928646CE
:1057300048451FBF019A3CF8120001320192214AEC
:105740001EF802A00EF1010E03EB0A0B03F80A008B
:105750004FEA102A002808BF4846BEF10D0F8BF80B
:1057600001A0E5D1484503D0019A3CF812200AB9BE
:1057700041F0400119700123F37000212846FFF722
:105780009FFB824600287FF44DAF013CB7D1E96909
:105790003046FFF7B4F9824600287FF443AF202259
:1057A0005146286AFEF7F3FE0B223946286AFEF7B7
:1057B000F1FF95F82F302A6A03F0180313730123C1
:1057C000F3702FE7597D0108211001002DE9FF47F3
:1057D00000230B600F461546FEF77EFF061EC0F243
:1057E000F080B64B53F82640002C00F0EC803C6073
:1057F000237805F0FE056BB160780CF059F8C1070D
:1058000008D41DB110F0040500D00A25284604B0C4
:10581000BDE8F0870023F0B2237060700BF09CFFAE
:10582000C20700F1D2800DB14307EED400224FF041
:10583000FF3604F13807E270666301233946607869
:105840000CF040F8002800F0A78001256663002DC9
:10585000DCD12046FFF730F8022840F0AB8004F599
:10586000FF7629463046FEF782FE4DF821000131D1
:10587000042906F11006F5D10026B0464FF0FF3995
:105880005DF82610002900F08A8084F80380C4F8AF
:1058900034902046FFF733F9002840F089802046F5
:1058A000FFF70AF801287BD894F8442094F8433095
:1058B00043EA0223B3F5007F40F0818094F84F3033
:1058C00094F84E1051EA032104D104F15C00FEF774
:1058D0004EFE014694F848A0D4F8348021620AF1C3
:1058E000FF33012B84F802A069D894F84560B3B265
:1058F0006381002B63D0731E334260D194F84A3029
:1059000094F8499049EA032919F00F0FA4F8089078
:1059100055D194F84C3094F84B0050EA032003D151
:1059200004F15800FEF723FE94F8472094F846301F
:1059300053EA022343D001FB0AF203EB191E9644FB
:1059400070453CD3A0EB0E00B0FBF6F05C4E00F1CE
:10595000FF3CB44533D84FF6F576B042434400F1EE
:105960000206C64433D840F6F57C6045E661C4F8CB
:105970002480A362C4F830E000F29780B9F1000FF0
:105980001DD01344E36206EB460306F0010606EB66
:1059900053064FF0010932E00546064656E703205C
:1059A0000136042E7FF46CAF042808D101252DE7C1
:1059B0000420F5E70428F9D001287FF675AF0D25FE
:1059C00024E70B2522E70C2520E703251EE7A36229
:1059D00094F8632094F86230E66153EA0223C4F835
:1059E0002480C4F830E0EAD1B9F1000FE7D104F126
:1059F0006400FEF7BCFDB600E0624FF0030906F25A
:105A0000FF16B1EB562FDAD34FF0FF3363612361FA
:105A1000B9F1030F4FF0800323712FD194F869205F
:105A200094F8683043EA0223012B27D108F10101E1
:105A30002046FFF764F808BB94F8372294F8363212
:105A4000207143EA02234AF65522934216D1384682
:105A5000FEF78DFD1B4B984210D104F50770FEF741
:105A600086FD194B984209D104F50870FEF77FFDB9
:105A7000606104F50970FEF77AFD2061134A84F82D
:105A80000090138801339BB21380E380104BE360D6
:105A9000104A0023A36119469858844208BF9950C0
:105AA0001033B3F5807FF7D1B0E6B9F1000F86D09F
:105AB0001344E36276004FF00209A0E78809002052
:105AC000F4FFFF0F5252614172724161900A00204F
:105AD000920A002090090020F0B585B0144601908C
